:100000008846002055240000EB79000039240000C8
:10001000392400003924000039240000392400006C
:100020000000000000000000000000003525000076
:100030003924000000000000B92400003924000029
:10004000C1260000C1260000C1260000C126000014
:10005000C1260000C1260000C1260000C126000004
:10006000C1260000C1260000C1260000C1260000F4
:10007000C1260000C1260000C1260000C1260000E4
:10008000C1260000C1260000C1260000C1260000D4
:10009000C1260000C1260000C1260000C1260000C4
:1000A000C1260000C1260000C1260000C1260000B4
:1000B000C1260000C1260000C1260000C1260000A4
:1000C000C1260000C1260000C1260000C126000094
:1000D000C1260000C1260000C1260000C126000084
:1000E000C1260000C1260000C1260000C126000074
:1000F000C1260000C1260000C1260000C126000064
:10010000C1260000C1260000C1260000C126000053
:10011000C1260000C1260000C1260000C126000043
:10012000C1260000C1260000C1260000C126000033
:10013000C1260000C1260000C1260000C126000023
:10014000C1260000C1260000C1260000C126000013
:04015000C1260000C4
:1001540053B94AB9002908BF00281CBF4FF0FF312A
:100164004FF0FF3000F00CB8ADF1080C6DE904CE8F
:1001740000F010F8DDF804E0DDE9022304B0704774
:10018400704700BF034613F8012B002AFBD1181A4D
:10019400013870472DE9F04786468C460846089E8C
:1001A400154674461946002B40F0C1808542B2FAC8
:1001B40082F245D94AB1C2F1200300FA02FC95400B
:1001C40094402EFA03F343EA0C0C4FEA154EA8B2FE
:1001D400230CBCFBFEF80EFB18CC08FB00F943EA29
:1001E4000C43994528D9EB1808F1FF3704D29945F7
:1001F40002D9A8F102072B44A3EB0903A4B2B3FB71
:10020400FEFC0EFB1C330CFB00F044EA0344A0424A
:1002140014D92C190CF1FF3304D2A04202D9ACF149
:1002240002032C44241A43EA07401EB1D44000239D
:1002340034607360BDE8F0874746DDE76346F1E765
:1002440092BB431B01214FEA154EAFB2200CB3FB06
:10025400FEFC0EFB1C330CFB07F840EA03439845F5
:1002640061D9EB180CF1FF3004D2984502D9ACF1F6
:1002740002002B44A3EB0803A4B2B3FBFEFC0EFB69
:100284001C330CFB07F744EA0344A7424DD92C194D
:100294000CF1FF3304D2A74202D9ACF102032C447F
:1002A400E41B43EA0040C0E7C2F1200395409440B8
:1002B40020FA03F12EFA03F34FEA154E9040AFB241
:1002C4000343B1FBFEFC0EFB1C10190C0CFB07F8DE
:1002D40041EA0041884522D969180CF1FF3004D263
:1002E400884502D9ACF102002944A1EB08019BB274
:1002F400B1FBFEFC0EFB1C110CFB07F743EA0143A8
:100304009F420ED9EB180CF1FF3104D29F4202D95F
:10031400ACF102012B44DB1B41EA004193E7604648
:10032400E3E76146F7E76046A4E76346B8E783423C
:1003340006D916B9002108467CE7C6E900E0F9E7CA
:10034400B3FA83F78FB9834201D3724508D8BEEB61
:10035400020460EB030301209C461EB9002169E7F7
:100364003846FAE7C6E9004CF8E7C7F1200CBB4071
:100374000EFA07F522FA0CF42EFA0CF1BA401C43DB
:1003840020FA0CF3B8404FEA144901431FFA84FEE3
:10039400B3FBF9F809FB18300B0C08FB0EFA43EA1F
:1003A40000439A4540D9E31808F1FF3004D29A4536
:1003B40002D9A8F102002344A3EB0A0389B2B3FBD8
:1003C400F9F809FB183308FB0EFE41EA03418E4598
:1003D4002CD9611808F1FF3304D28E4502D9A8F153
:1003E4000203214443EA0040A1EB0E01A0FB029862
:1003F4004145CE46434602D306D14D4504D2013889
:10040400B9EB020E68EB0403002EA7D0B5EB0E0285
:1004140061EB030101FA0CFC22FA07F3F9404CEA00
:100424000303C6E9003199E74046C5E74346D9E7E7
:10043400F8B5174D284607F04DFD044628B32A6940
:10044400A9681368284643F0100313600B68114A27
:1004540004219847002818DB0F4F104EAB68102179
:1004640028465B69984700280FDB84F0010414F0E8
:10047400FF0414BF39463146094805F0CBFA002180
:100484004FF4004007F006FEE8E70020F8BD00BF87
:10049400FC84000001000600048D0000078D0000AC
:1004A4000B8D00002DE9F04F91B0009302F004038E
:1004B4000293C2F3C2030133840705460E46DDF8F6
:1004C40068800392059340F0BB81041D30B1072975
:1004D40009D86FF01B0011B0BDE8F08F01F00706DA
:1004E4003444C6F10806009B4FF000094FF0040A9B
:1004F400591E4FF0FF334F460193CB465346CDF878
:1005040010900DB1009A22600598002800F3E8804D
:100514009848009A824203D397488242C0F0E08010
:10052400039AA4EB050E92074FEA9E0000F10381A3
:100534000F2F00F2B180002D00F0058107F1400279
:100544000DEB020C019A0CF8200C0CF8102C0498FA
:1005540001300490E7E07A285DD84B280ED847286C
:1005640059D829282DD8252852D054D820287AD0D3
:100574002338D0F1000B4BEB000B74E04C382E28E1
:1005840049D8DFE800F07048484848484848484897
:1005940048484B484848484848484859484B4B59AC
:1005A4005959704B6D487048184B184848827F4B16
:1005B40048484B487F0000204FF0000B4FF0040ADE
:1005C40038E001222A38C0B202FA00F010EA0E0F15
:1005D40049D110F0625C2FD110EA020B43D060467F
:1005E400013C5444B4FBFAF40AFB04F4002D61D03A
:1005F400A3EB050CA444B4453FF66BAF002868D1C7
:10060400042B47D158F8043B2360042304342AE024
:10061400019A013A01924FF0000B24E011F8010C09
:100624006C2834D1002011F8023C83466C2BC5D1D0
:100634004FF0080A5346D3E708F1070828F00708E3
:10064400073424F00704F8E802AB35B106982044D7
:10065400B0423FF63EAFC4E900AB4FF0000B0834A4
:100664004FF0080A534611F8010F002878D0BBF167
:10067400000F7FF470AF2528F5D14FF0010B019BDB
:10068400013301934FF0040AECE7584694E7002045
:100694008346A5E7082B02D06FF015001BE708F18D
:1006A400070828F00708F8E80223C4E90023082310
:1006B4000834D8E768B9042B02D108F10408A4E788
:1006C400082BE9D108F1070828F0070808F1080801
:1006D400EDE7059A013A059258F8042B009210E7C9
:1006E400039A900720D54FF0010CA4EB050E4FEAB6
:1006F4009E00BEF5007FCFD20F2FCDD8F5B107F104
:1007040040020DEB020E019AC0B20EF8200C0EF856
:10071400102CBCF1000F3FF41AAF60F07F000EF80C
:10072400200C09F101090137C5F108024FF6DA7E00
:100734000434069297E74FF0000CDAE7BCF1000F9F
:1007440001D00136EFE7029802360028EBD1009879
:10075400CDE90631FFF716FDDDE906310644E2E78F
:10076400631BB3F5806F97D245B9A6F10804E0186E
:10077400B1E600BF7C8400002C990000029A9B081B
:1007840028602B709DF81030C2B1EB7085F8029090
:10079400B9F1000F05D0002208A8C5F1010C974259
:1007A4000ED14FF0000AC5F101030DF120080193A9
:1007B4000DF1300B574512D1601B8CE66B70E5E7E9
:1007C40010F8013B190608D50CEB040EB64503F0EE
:1007D4007F033FF67EAE04F8013B0132DFE7B9F157
:1007E400000F03D098F90020002A17DB029BD3B135
:1007F4001AF80B2004F8012B0022019B181910444D
:10080400B0423FF666AE98F80000009904F8010B78
:100814002046039207F0D2FC039A14440AF1010A19
:1008240008F10108C6E798F8002055F82230009333
:10083400029B009845F82230FFF7A4FC421CDCE739
:100844006FF00D0047E600BF2DE9F04F97B000AF01
:10085400D7F880B03B62CBF3C0030446894690F8D6
:1008640002A0FA62BB6141B9457800780AEB8000C6
:1008740020444D4517D8A0EB0409E378FB61BAF195
:10088400000F02D01BF0010F16D1FB6953BBFB6AAA
:100894001BB1494620463A6A98474D4628465C377C
:1008A400BD46BDE8F08F461C3046FFF76BFC0130B7
:1008B400304409F10109DCE7626823787A62FA6A54
:1008C4009900796104EB8301002A40F003810E460C
:1008D4004FF000084D4601EB0A094E454ED101EB9D
:1008E4000A0610E01BF0020FD1D023789A007A6137
:1008F400626804EB83017A62FA6A002A79D14D4670
:10090400904601EB0A061BF0050F0CBF02230123DE
:10091400FB62FB6906EB430A0BF00203BB6256451C
:10092400BCD016F8021B16F8013C54F823909A4BDD
:10093400994502D3994B994538D3BB69002B42D0D2
:10094400786A06F0A3FB00283DD0E9468AB06A46DF
:10095400934B5361934B93617B6AC2E9073140F235
:1009640001339384904B42F8103F00234FF43251EB
:100974008E4800F01BFD023DCD46D0E716F8013B42
:10098400F96254F82300FFF7FDFBD7F88430F96AC5
:1009940001304BB1D7F8883098453EBFD7F8843042
:1009A40023F8180008F10108054496E7BB6923B150
:1009B400786A06F06BFB0028C7D11BF0010F05D144
:1009C400FB6AED1AABE7BB6A002BA8D04846FFF7D9
:1009D400D9FBD7F8843053B1D7F8883098453FBF56
:1009E400D7F88420431C22F8183008F10108054484
:1009F40095E7BAF1000F73D01BF0040873D0D0460A
:100A0400002607F1480052463B61B96207F0D6FB65
:100A1400B96A3B6901EB0A02BA62FA69F9695200E0
:100A2400FA60BA6A02EB41023A610BF00202BA6060
:100A34003A69B96A8A4258D162781BF0020F18BF2A
:100A440000217A6208BF4FEA5801B2181BF0010F67
:100A5400D2B240F09F801BF0040F14BF4046002028
:100A6400BB616270A070E17020463A6A7969FB6AE2
:100A74009847051EFFF612AFBB69414623707B6A97
:100A84003A6A6370FB6984F802A0E37007F14800D6
:100A9400FB6A9847B0F10008C0F2BC807B69A9EBFF
:100AA4000A01C91AFB683A6AC91AD7E90A039847BE
:100AB4000028C0F2B1804FF0000BA84408EB0005F9
:100AC40007F1380AB34573D300213A6A0846FB6A32
:100AD4009847E3E656464FF0000807F1380092E7DE
:100AE400D046564696E7464694E7BA6A12F8021B81
:100AF40012F8015CBA6254F82500274A904202D3E6
:100B0400264A90421ED3BA6932B1786A7B6006F0F5
:100B1400BDFA7B6800288BD1BA6802BB08F12802B1
:100B240007F1300C08F10100944407F1580208F170
:100B3400020852FA80F00CF8101C5FFA88F800F8EA
:100B4400105C75E7BA693AB1786A7B6006F09EFA80
:100B54007B6800287FF46CAF1BF0010F09D006F10D
:100B6400280207F13000711C161806F8205CCEB27A
:100B74005EE71BF0040F3FF45BAF08F1280207F1B6
:100B8400300008F1010102EB000808F8105C5FFA7C
:100B940081F84DE7002063E77C8400002C99000075
:100BA4001A8D0000C18D000005000001B08700000F
:100BB4001BF80A3054F8239087F83730D7F884307C
:100BC4002BB3D7F888309B4521D2D7F8843033F83B
:100BD4001B8001213A6AFB6A07F137009847002815
:100BE4001ADB0544B8F1000F06D14846FFF7CAFAEC
:100BF40000F101081FFA88F8414648463A6AFB6A40
:100C04009847002808DB05440BF1010B5AE74FF025
:100C14000008DEE7454641E605463FE6014B18601D
:100C2400704700BF0000002080B505460E461746F9
:100C3400984604F08DFB034607F014FC0446DFF8E5
:100C44001890424649F8003039463046A84754F8CF
:100C5400090001F019FC00BF080000002DE9F0476D
:100C6400058B04462807904611D4022905F0070590
:100C740040F0CC80204606F0A9FC78B10138218BE5
:100C8400042811D8DFE800F0C2106D859500012911
:100C94000CBF45F0100545F02005258388F3118825
:100CA400BFF36F8FBDE8F08701F0070AAA4500F093
:100CB400A5800027B9463E46A368002B00F0BC80FF
:100CC40041F00801218388F31188BFF36F8FA16875
:100CD400002900F0BA800D68002900F0B680334680
:100CE40052462046D1F80480C047002D76D02B68A8
:100CF40029461D46F0E701F007035A1F012A1BD8B5
:100D0400002221F00701062B276889B2C4E90022DA
:100D140009D13B4603E0628B013262831B68002BDE
:100D2400F9D141F002012046218306F04FFC00284E
:100D34007AD041F0200176E0042B0AD121F007019A
:100D440089B22046218306F041FC10B141F0200114
:100D54002183218B01F0070AAA454FD00027B94609
:100D6400AAE7236921F0070141F00601062DD3F813
:100D7400009021832DD1B9F1000F3FD041F008013B
:100D8400218388F31188BFF36F8F20463949C84700
:100D940029E021F00701236941F0040189B2042DFF
:100DA400D3F804902183E6D000274FF0040A3E468E
:100DB40082E721F00701236941F0050189B2052D7D
:100DC400D3F808902183D6D000274FF0050A3E4679
:100DD40072E700274FF0060A3E466DE72B4687E789
:100DE400B9F1000FD1D1EFF31188202383F31288D6
:100DF400BFF36F8F238B23F008032383258BEA062D
:100E04002ED525F01003238305F007056669218B91
:100E1400002EBFF670AF00232768C4E9003321F029
:100E2400070141F001012183218B4FF0000901F0FA
:100E3400070AAA457FF440AF002F9CD041F0080177
:100E4400218388F31188BFF36F8F002FC8D03D68CA
:100E5400394633465246204606F0E4FB2F46F4E773
:100E6400AB067FF51BAF25F02003238305F00705B0
:100E740000E700BF557600002DE9F0470446074619
:100E84004FF00109DFF8508014B93846BDE8F08707
:100E940094FAA4F5B5FA85F509FA05F32E0108EBE1
:100EA40005156FEA030A24EA03042B7B002BEBD01D
:100EB40058F806301B694BB9464473680422284627
:100EC400196807EA0A0706F089FCDDE7284698470F
:100ED4000028D9D1F0E700BFF887000030B5002220
:100EE40089B00F490F4807F041F90022002300247C
:100EF400CDE906230E230C4DCDE903344FF44072A3
:100F04002846CDE90144094B0949009403F0CEFF7A
:100F14000849284603F054FF204609B030BD00BFFD
:100F24003D0F000060310020A80000205512000091
:100F340048360020EB8D0000014803F0E7BE00BFF7
:100F4400940000202DE9F047804621480F4606F022
:100F540029FC0646002833D000252846BDE8F08742
:100F6400237B83B12368DB680BB120469847636811
:100F740083F8069023681B69D3B96368042220466A
:100F8400196806F02BFC013610345445E8D3B8F147
:100F9400000FE2D0002DDFD02846FFF76DFF054695
:100FA400002FF7D000214FF4A47007F073F8F1E795
:100FB400204698470028E0D009FA06F31D43E2E7EB
:100FC40005464FF00109034CDFF80CA0DDE700BF34
:100FD40000340020F887000008880000014B53F813
:100FE40020007047BC8A000008B5034608462BB1B0
:100FF400044A136000F086FC002008BD6FF0150061
:10100400FBE700BF0400002010B5044C237813B99B
:10101400034803F07BFE0123237010BD3C360020FF
:101024009400002010B50446094806F0BBFB3CB10F
:10103400084BD3E8EF1F0139C3E8E21F002AF8D1B7
:10104400054807F09FF8BDE81040044803F05EBE71
:10105400F8330020FC33002060310020940000208D
:1010640000200146034BD3E8EF0FC3E8E21F002A38
:10107400F9D17047F833002070B5FFF7F1FF05464A
:10108400074C084EB44200D370BD63685B792BB142
:1010940023685B6813B12946204698471034F1E76A
:1010A400F88700000888000010B5044C0449204665
:1010B40006F025F9034B1C6010BD00BF540000204E
:1010C400A88A0000F033002000230D4A10B51370E5
:1010D4000C4A4FF4004113600B4A0C481360FFF7AD
:1010E40083FFFFF7E1FF0A4B0A4918468B4200D3FE
:1010F40010BD1A1A5C681211013222711033F5E71F
:101104003D360020F8330020FC330020A577000092
:10111400F88700000888000001464FF400420023CD
:10112400014806F00DB900BF54000020014806F044
:10113400A5B900BF54000020024B0146186806F010
:10114400F1B900BFF0330020014806F026BA00BF11
:101154005400002070B5274B1878002849D0FFF7B9
:10116400E5FF0546002841D1234B244C1B68002B86
:1011740019DD06F0F9FF4FF47A72A0FB020302FBBB
:101184000131C30B43EA4143D4E900209B1A40F2E6
:10119400E9324FEAD13161EB0001934271F1000170
:1011A40001D3FFF769FFD4E9003213F57A7342F1F2
:1011B4000002C4E90032BDE87040FFF7C5BF6368B0
:1011C4005B7923B12368294620461B68984710346D
:1011D400B442F4D32846FFF7AFFF094BD3E8EF1F1F
:1011E4000139C3E8E21F002ABED0F7E7054C064EDA
:1011F400EEE770BD3C360020F83300205831002063
:10120400FC330020F88700000888000070B50D4DFD
:10121400297861B90120FFF795FE0B4C0B4EB442BF
:1012240006D3FFF797FF0028FBD101232B7070BD75
:1012340063685B791BB1236820469B689847103428
:10124400EDE700BF3D360020F88700000888000065
:1012540000212DE9F0470846FFF774FE044658B311
:1012640040F267684FF0000907F0FCF81B4B1C4A7A
:101274001B58136033B11B4B1B68092B02DD1A4842
:1012840003F044FD0025194FDFF85CA044B120466B
:10129400FFF7F2FD044618B94FF0FF384FF0FF395D
:1012A400FFF758FF064628B9B5B942464B465046A3
:1012B40003F060FD3546E9E74FF0FF384FF0FF39A2
:1012C400D2E72B689B691BB1002228461146984738
:1012D4001035BD42F5D3E8E7054DFAE708000000F4
:1012E400F4330020FC330020940000200888000020
:1012F400F887000013B5184806F054FA174B1B780A
:1013040073B1EFF31184202383F31288BFF36F8F3B
:10131400FFF720FF84F31188BFF36F8F02B010BD75
:101324000F4B1B68002BF9D050B9002200230D4845
:10133400CDE900234FF40042002304F02DFBEDE738
:101344000928EBD1074806F01DFF074802B0BDE8A5
:10135400104003F0DBBC00BFFC3300203D3600200E
:10136400F4330020603100209400002010B5064BB7
:1013740004461B6898472146A060044806F05FF8BD
:10138400BDE81040FFF7B6BF040000205400002061
:10139400044A054B9B1AB1EBD30F34BF52F831000A
:1013A40000207047B0870000F88700002DE9F04F57
:1013B4008FB0C1F34A2804AF0D469146B8607B60F4
:1013C4000C0DB8F1000F65D000264FF0040B4FF060
:1013D4000A0A07F11403C7F80C80C7E907667E629E
:1013E4000193CDF808B0CDF800A007F11C033246F4
:1013F4004846F968FFF728FAB0F5006F03461ED394
:101404006C468AB0D9F8041004AB27481A465861D0
:101414002648C3E9060140F2FF71196240F2013126
:101424009984234B42F8103F4FF4325133462148FC
:10143400FFF7BCFFA5462C37BD46BDE8F08FC0F3CF
:101444000A0804F11700184420F0070080083B60E4
:10145400FFF762FE68F35325044690B13B6800F140
:101464001001C7E9083607F11403F961CDE900A3B7
:10147400CDF808B04846104AF96807F11C03FFF795
:10148400E3F968F353252A4620467B68B96806F0D9
:10149400C5F9D0E704F1170020F007008008FFF732
:1014A4003BFE0446EDE700BF008E0000998E00006D
:1014B40005000001C0870000F37700002DE9F04F1C
:1014C40087B00446DDE9105ADDE91279934698465F
:1014D40003913FB33B46524610210020CDF80090C3
:1014E400CDF81490FEF7DEFFB0F5006F06461AD370
:1014F4000820FFF711FE60B11C4B43611C4B836154
:1015040040F2FF73C36104230374002343748374A0
:10151400C37400234FF40252164907B0BDE8F04FDC
:1015240006F07CB93E4605F11700304420F0070070
:101534008008FFF7F1FD04F007040BF0070BE4004B
:1015440044EA8B1444EA462444EA0554054640B16F
:101554003FB13B4652463146CDF800901030FEF77D
:10156400A1FF4346224628460399D6E7438E00004E
:101574007F8E0000C0870000406820B1034BC01A72
:1015840040F3CF0070474FF0FF307047B087000042
:101594000EB403B503AB53F8042B0146044801937E
:1015A40001F0DEFA02B05DF804EB03B0704700BF4F
:1015B40089780000CA0605D48B064CBF024903494A
:1015C400FFF7E6BF704700BFB98E0000B88E000079
:1015D4002DE9F04F89B09A46149B9DF84CB00693C0
:1015E400159B04460593169B0D469046179E04933F
:1015F400BBF1000F00F09D8006F48073079306F0A2
:10160400EBF806F00209024600283ED02046924933
:10161400FFF7BEFF0746B9F1000F08D016F0440FDC
:1016240035D12A4620468D49FFF7B2FF074406F01C
:10163400010353B18A4B204653F82B20894B8A4926
:10164400002A08BF1A46FFF7A3FF06F48073002B95
:1016540049D006F00803002B63D1B8F1000F66D01F
:10166400424620468149FFF793FF0546069B3D44C9
:10167400002B6DD1049B002B73D1F30700F1E5809F
:1016840031462046FFF796FFD9E00746C3E7784B7B
:1016940018680028CAD0774B4FF47A791B684FF04A
:1016A4003C0CB5FBF3F5B5FBF0F14FF4616300FBC3
:1016B400115509FB05F5B1FBF3F2B5FBF0FE03FB95
:1016C400121100FB1E55B1FBFCF309FB05F5B5FB3C
:1016D400F0F50CFB131120460091CDE901E56649B4
:1016E400FFF756FFA2E706F00803EBB1634B204671
:1016F40053F82B206249FFF74BFF0546B8F1000F62
:1017040005D0424620465949FFF742FF0544BAF145
:10171400000FABD0524620465A49FFF739FF054423
:10172400A4E74FF0000AE1E706F00805E6E74546BE
:101734009CE7BAF1010F069B06D1002B65D1049BEF
:10174400002B7CD000250CE0002BF8D04E485DE047
:101754004E48069B22464E4905F067FC049B002B2D
:1017640069D0DFF83081DFF83091049F3146102FC3
:10177400204628BF10274FF0000AFFF71BFF5545EE
:1017840046DC059B494620461A78FFF701FF4FF0D7
:10179400010A1AF0070F03D141462046FFF7F8FE6D
:1017A40057453CD9059B4946204613F80A20FFF7C4
:1017B400EFFE0AF1010ABAF1100FEAD14FF0000A64
:1017C40020463649FFF7E4FE5246059B20469A5CC4
:1017D400334B995C11F0970F08BF2E223149FFF764
:1017E400D7FE0AF1010ABAF1100F1DD01AF0070F43
:1017F40003D141462046FFF7CBFE57455246E4D875
:1018040041462046FFF7C4FEEBE720485D46A0E7CB
:1018140041462046FFF7BCFE0AF1010AAFE7204625
:101824002149FFF7B5FEC4E7059B3B440593049BA0
:10183400DB1B049399D1BBF1000F7FF41EAF20464C
:1018440009B0BDE8F04F06F010B82046054A064935
:10185400FFF79EFE14E700BFC08E0000C48E000098
:10186400CC8A0000BB8E0000E98E0000EC8E0000E4
:101874000834002004340020CD8E0000E08A0000EB
:10188400F08E0000F68E0000B77800008978000022
:10189400652B0000038F0000FB8E0000058F000005
:1018A40020980000078F0000018F000042F20F73A0
:1018B40073B58B4228BF0B4605680446052168466C
:1018C4000D4A04F0B9F80646636828460B225B68A3
:1018D4000A4905F0BCFF63683246694628465B68DE
:1018E40005F0B5FF63681B2228465B68044905F0D0
:1018F400AEFF02B070BD00BFDA900000268F00007A
:101904000A8F000000210123064A904206D8064AA5
:1019140001B901231360054B186070470121400889
:101924005B00F2E740420F0004340020083400203A
:10193400F8B50D460446064F4618B44201D1284670
:10194400F8BD14F8011BBB6801485B689847F4E7CD
:101954001C850000014B036000207047288B0000A9
:101964002DE9F84305460C46002900F0C780D1E96B
:1019740000870A208E68FFF7CFFB60B16F4BC0E988
:10198400087643616E4BC0E90638062303740023CE
:1019940043748374C37400234FF44152694905F0BE
:1019A4003DFFD4E903870A206669FFF7B5FB60B100
:1019B400654BC0E908764361614BC0E906380623EC
:1019C4000374002343748374C37400234FF441529B
:1019D4005C4905F023FF0820E669FFF79DFB50B141
:1019E4005A4B4361564BC0E9063604230374002363
:1019F40043748374C37400234FF40152514905F0B6
:101A04000DFF266A002E4DD0D6E900980A20B7684B
:101A1400FFF782FB60B14E4BC0E908874361484B36
:101A2400C0E9063906230374002343748374C37422
:101A340000234FF44152434905F0F0FED6E90398E0
:101A44000A207769FFF768FB60B1424BC0E9088759
:101A540043613B4BC0E906390623037400234374F6
:101A64008374C37400234FF44152364905F0D6FE03
:101A7400D6E906870A20366AFFF74EFB60B1364B7B
:101A8400C0E9087643612E4BC0E906380623037487
:101A9400002343748374C37400234FF441522949CF
:101AA40005F0BCFE0820A66AFFF736FB50B12B4BAD
:101AB4004361234BC0E906360423037400234374B3
:101AC4008374C37400234FF401521E4905F0A6FE2B
:101AD4000820A669FFF720FB50B1214B4361184B46
:101AE400C0E9063604230374002343748374C37467
:101AF40000234FF40152134905F090FE012D17D134
:101B0400EFF305860820FFF707FB58B1154B103E8D
:101B14004361154BC661836104230374002343743A
:101B24008374C37400234FF40152064905F076FE12
:101B340021462846BDE8F84302F036BF6C8F00000A
:101B4400DD900000E08700009F8F0000D28F00002E
:101B5400E58F0000189000004B9000007E9000007C
:101B640094900000C6900000E690000030BFFFF79C
:101B7400FDBF00BF2DE9F04105460B4EDFF82C8078
:101B8400324606EB0807CC1B2046094906F016FB33
:101B9400A01942460021083C06F01DFBC5F8A440EC
:101BA40007F10800BDE8F081000000000400000017
:101BB40008880000054B5A699B689A421FBF044A73
:101BC400536843F080535360704700BF0C360020C5
:101BD40000ED00E008B50820FFF79EFA48B1654B18
:101BE4004361654B8361032303740023437483744B
:101BF400C37400234FF4C252604905F00FFE604BDA
:101C04009B6A980140F1B3800820FFF785FA48B138
:101C14005C4B4361584B8361032303740023437477
:101C24008374C37400234FF4C252544905F0F6FD83
:101C34001E20534B9B6AD90114D50820FFF76CFA78
:101C440048B1514B43614C4B83610323037400231C
:101C540043748374C37400234FF4C252474905F09C
:101C6400DDFD1F20464B9B6ADA0214D50820FFF7DE
:101C740053FA48B1454B43613F4B836103230374DB
:101C8400002343748374C37400234FF4C2523B494A
:101C940005F0C4FD02203A4B9B6A1B0314D50820AF
:101CA400FFF73AFA48B13A4B4361334B836103235C
:101CB4000374002343748374C37400234FF4C25227
:101CC4002E4905F0ABFD21202D4B9B6A590314D5F9
:101CD4000820FFF721FA48B12E4B4361264B83615C
:101CE40003230374002343748374C37400234FF4E5
:101CF400C252224905F092FD2220214B9B6A9A038D
:101D040014D50820FFF708FA48B1234B43611A4B56
:101D1400836103230374002343748374C374002313
:101D24004FF4C252154905F079FD2320144B9B6AE8
:101D3400DB0314D50820FFF7EFF948B1174B4361D3
:101D44000D4B836103230374002343748374C374AE
:101D540000234FF4C252094905F060FD2420084ACB
:101D6400936A6FEA03436FEA1343936208BD1D202D
:101D74005FE700BFF8900000F5940000E0870000E2
:101D840000ED00E0149100002B9100004991000047
:101D94007791000099910000C2910000E091000049
:101DA40070B5054608200C46FFF7B6F948B1684BF4
:101DB4004361684B83610323037400234374837476
:101DC400C37400234FF4C252634905F027FD634BEB
:101DD4009B6ADA0440F1A2800820FFF79DF948B11C
:101DE4005F4B43615B4B83610323037400234374A0
:101DF4008374C37400234FF4C252574905F00EFD97
:101E04001720564B9B6A1B0514D50820FFF784F94D
:101E140048B1544B43614F4B836103230374002344
:101E240043748374C37400234FF4C2524A4905F0C7
:101E3400F5FC1820494B9B6A9E0534D50820FFF712
:101E44006BF948B1484B4361424B836103230374EC
:101E5400002343748374C37400233F494FF4C25274
:101E640005F0DCFC3D4B9E6B9B6A19041AD50820D7
:101E7400FFF752F950B13D4B4361364BC0E906368A
:101E840004230374002343748374C37400234FF442
:101E94000152314905F0C2FC25B1304A936A23F45A
:101EA4000043936219202D4B9B6A5A0514D50820D0
:101EB400FFF732F948B12E4B4361264B836103236C
:101EC4000374002343748374C37400234FF4C25215
:101ED400214905F0A3FC1A20204B9D6A15F4807556
:101EE4001ED00820FFF718F948B1224B4361194B63
:101EF400836103230374002343748374C374002332
:101F04004FF4C252144905F089FC1B20134A936A0A
:101F140043F47F4393620023237070BD162070E75F
:101F24009B6A9B04F2D50820FFF7F6F840B1124BE8
:101F340045744361074B857483610323C57403743B
:101F440000234FF4C252044905F068FC1C20DDE76D
:101F54000F92000001950000E087000000ED00E012
:101F6400299200003E9200005592000072920000F7
:101F74008B920000AA920000C692000070B505463C
:101F840008200C46FFF7C8F848B1614B4361614B28
:101F9400836103230374002343748374C374002391
:101FA4004FF4C2525C4905F039FC5C4B9B6AD8067D
:101FB40040F1AC800820FFF7AFF848B1584B4361BB
:101FC400544B836103230374002343748374C374E5
:101FD40000234FF4C252504905F020FC11204F4B0E
:101FE4009B6A190714D50820FFF796F848B14D4BA2
:101FF4004361484B83610323037400234374837454
:10200400C37400234FF4C252434905F007FC122065
:10201400424B9B6A9A0734D50820FFF77DF848B1F4
:10202400414B43613B4B836103230374002343749B
:102034008374C37400234FF4C252374905F0EEFB96
:10204400364B5E6B9B6A1B061AD50820FFF764F8B3
:1020540050B1364B43612F4BC0E906360423037459
:10206400002343748374C37400234FF401522A4938
:1020740005F0D4FB25B1294A936A23F080039362C7
:102084001320264B9B6ADE0714D50820FFF744F87B
:1020940048B1274B43611F4B83610323037400231F
:1020A40043748374C37400234FF4C2521A4905F075
:1020B400B5FB1420194B9B6A9D0614D50820FFF725
:1020C4002BF848B11B4B4361124B83610323037408
:1020D400002343748374C37400234FF4C2520E4923
:1020E40005F09CFB15200D4B9A6AD10658BF9A6ADD
:1020F4009A6A920642BF5A6A22F400525A629A6A53
:1021040042F0FF029A620023237070BD102066E73C
:10211400F99200000B950000E087000000ED00E05C
:10212400139300003E9200004A930000669300005F
:1021340080930000C69200002DE9F04F8DB09A46BE
:10214400A34B8146D3F804B00D469046002600AF59
:10215400CBF3080486F31188BFF36F8F02F07F433B
:10216400B3F17F4F15D102F00C00082825D1FEF7FA
:10217400D3FF40B1974B46744361974B8674836198
:102184000323C674037400234FF4C252934905F029
:1021940045FB002635460023FB70E31E092B00F2A5
:1021A400F480DFE813F01000DB00DE00D700F2005B
:1021B400F200F200F200F200E10012F0080F04BF96
:1021C4004D460126E7E70820FEF7A6FF48B1844BF9
:1021D4004361844B83610323037400234374837436
:1021E400C3744FF0000B00234FF4C2527B4905F037
:1021F40015FB774B87F803B0DC6A14F0020417D0A0
:102204000820FEF789FF58B1774B80F811B043617D
:10221400744B80F812B08361032380F813B0037405
:1022240000234FF4C2526D4905F0F8FA00245FE030
:10223400DA6A002A0EDA0820FEF76EFF0028EFD0D3
:102244006A4B44744361674B847483610323C4748D
:102254000374E5E7DB6A5B00E8D50820FEF75CFF62
:1022640040B1634B447443615E4B847483610323C4
:10227400C474037400234FF4C252584905F0CEFAD3
:10228400534BA9695A6942F480725A61BFF34F8F64
:10229400BFF36F8F5A6931F8021C22F480725A61BD
:1022A400BFF34F8FBFF36F8F4DF60272914208D088
:1022B4009A6AD2B2002A3FD00120F91CFFF75EFED1
:1022C4004AE008202C68FEF727FF50B1494B4361D0
:1022D400444BC0E906340423037400234374837419
:1022E400C37400234FF401523C4905F097FA2C685B
:1022F400FB78EBB93A1D05F1200C13462868696890
:10230400083503C365451A46F7D1C7E909A93B6AED
:10231400C7F82C80002E56D0C3F3080222B96FEA06
:1023240053236FEA43233B622046391DFFF718FB12
:102334003437BD46BDE8F08F9A6A12F47F4F04D05B
:102344000120F91CFFF72CFD06E09B6AB3F5803FE2
:10235400FFF46CAFFFF73EFC0446C9E70020F91C0C
:10236400ACE70020F91CEDE70820FEF7D5FE0028B5
:102374003FF456AF204B4361204B83610323037426
:10238400002343748374C3744AE71D4A1BF4F87F23
:10239400EB468AB01B4B18BF13466A461A49103CD9
:1023A40051611A491462C2E9061340F2013393845D
:1023B400174B42F8103F00234FF431510748FEF702
:1023C400F5FFDD4632E723F4FF7323F00103AAE7A8
:1023D40000ED00E0D193000027950000E0870000A5
:1023E400009400001C9500001B9400004094000021
:1023F400529400007594000095940000E794000046
:10240400B8930000A3930000BD940000D49400008E
:1024140005000001064B5A6942F010025A615A69DC
:1024240042F480625A615A6922F008025A61704784
:1024340000ED00E0EFF30880EFF3098101B506B485
:102444002DE9F00F6B467246FFF776FE0AB001BD28
:102454000B4880F3088801F02FFC202080F31188BA
:1024640008484FF40061401880F30988EFF31480A2
:102474000221084380F31488BFF36F8F00F0B0F893
:102484008846002048390020084B9B6883420BD1C2
:10249400EFF3058343B1064B5A6842F080525A6009
:1024A4005A6A22F400425A6202F058BF0C360020E5
:1024B40000ED00E001B505F05BFDBDE80140194900
:1024C4008A684FF030001044EFF3098C80E8F01F65
:1024D400202080F31288BFF36F8F134F4FF00066F4
:1024E4004A698A603E60D2F8A400104C2060D2F899
:1024F400A8000023C2F8A83080F3118802F130004C
:1025040090E8F01F8CF3098802F1000004B505F08F
:1025140075FABDE8044001B505F029FDBDE80140A8
:10252400704700000C36002004ED00E03434002035
:102534001EF0040F0CBFEFF30880EFF309808169EC
:1025440011F8021C0229FFD001B5EFF3098106B48A
:102554002DE9F00F6946724605F02BFA0AB001BD69
:1025640040B2002807DB01234109034A00F01F00A1
:10257400834042F82130704700E100E0054B4209F6
:1025840053F82220012300F01F0003FA00F010404A
:10259400704700BF00E100E040B2002801F10101F2
:1025A400ACBF00F16040064B4FEA4111C9B2ABBF6A
:1025B40000F5614000F00F0080F8001319547047D3
:1025C40014ED00E0044B054A23F07F039360BFF34E
:1025D4004F8FBFF36F8F70470000000000ED00E0E5
:1025E40008B5FFF7EFFF0B4AD2F8883023F47003E5
:1025F400C2F88830EFF3148323F0040383F31488C0
:10260400BFF36F8F02F0D2FA02F0EEFF00F04AF847
:1026140002F010FB00ED00E042F8203C009B0B4967
:1026240042F81C3C019B21F0010142F8183C029B3A
:1026340042F8081C42F8143C4FF0807342F8043C02
:102644000023203A0265C0F8A83070472D0C000022
:10265400044608B50E4B15469860D0F8A4200D4BDF
:102664000E461A6005F083FCD4F8943083F30B888B
:102674002C4686F309880020034B98472046002106
:1026840000220023014C2047117A00002D0C000089
:102694000C360020343400201022014B1A6170479C
:1026A40000ED00E0002320210348C2180133452B2C
:1026B40082F80013F9D1704700E100E008B505F095
:1026C40074F9EFF30583074A103B02EBC30152F898
:1026D40033004968884705F069F9BDE80840FFF709
:1026E40069BA00BF3C8500001FB5094C094A23465E
:1026F4000121094800F040F900230393074B01210D
:10270400E41A01A80193029400F040F904B010BD4A
:102714000000072000000020288B0000A8000020F3
:1027240010B50C7A0B6804F01F0223F01F031A4340
:10273400CB68640923F01F03054943EA440343F0CB
:102744000103C1F89800C1F89C20C1F8A03010BD65
:1027540000ED00E010B504460820FEF7DDFC50B1A2
:10276400094B4361094BC0E9063404230374002375
:1027740043748374C37400234FF40152044905F075
:102784004DF86FF0150010BD33950000AB950000B7
:10279400D887000008B5074BD3F89030C3F307235C
:1027A400013B984203D9BDE80840FFF7D3BFFFF7C8
:1027B400B7FF08BD00ED00E02DE9F04F894614464F
:1027C40006464FF000085C4D85B0C8453DDAD6F8A2
:1027D40004A0BAF1000F5AD0BAF11F0F1ED91AF093
:1027E4001F0F1BD1D6F800B01BF01F0F16D158468F
:1027F40005F050F907460AEB0B00013805F04AF9D9
:10280400874226D06FF015070820FEF785FCA0B19B
:102814004A4B43614A4BC0E9063708E00820FEF7FB
:102824007BFC50B1474B4361454BC0E90638042358
:102834000374002343748374C37400234FF401525C
:10284400414904F0EBFF6FF01504204605B0BDE8E4
:10285400F08F17F1160FD7D0BC42D5DDC5F89870AC
:10286400D5F89C10C5F89870D5F8A03021F01F0158
:1028740043F01F0BD6E900321A44994202F1FF3AA1
:102884001DD1D34507D13146F8B205F00CF908F152
:1028940001080C3699E73146C5F89870D5F89C3094
:1028A40022F01F0203F01F031343C5F89C30E0B26B
:1028B40005F0F9F810F1160FC5D0441CE7E7C5F888
:1028C4009870D5F8A020013B23F01F0302F01F02EB
:1028D4001343D3453146E0B2C5F8A030E8D005F043
:1028E400E2F810F1160FAED0C5F89870D5F89C2018
:1028F4009DF808300BF1FF3B62F304038DF80830B8
:10290400D5F8A0309DF808205B0863F347128DF8D2
:102914000820D6E900321344009323F01F035B44DC
:10292400A3EB0A03013023F01F036946C0B20393EB
:10293400FFF730FFBEE700BF00ED00E08495000024
:10294400C49500005D950000D88700000522044B63
:10295400C3F89420BFF34F8FBFF36F8F704700BF4E
:1029640000ED00E0BFF35F8F0022024BC3F8942018
:10297400704700BF00ED00E010B5034C2278FFF76C
:102984001BFF207010BD00BF3F3600202DE9F74F1C
:10299400294D8A4606464FF00008AB46274FD045DE
:1029A4001BDAD6F80490B9F1000F3FD0316808461D
:1029B400019105F06FF80199044609EB0100013813
:1029C40005F068F884424FF014021D4B08D002FB56
:1029D40008F36FF015024BF8032003B0BDE8F08F45
:1029E40014F1160F2C60F8D01978A142F5DD02FB22
:1029F40008B0C7F89840C7F89840D7F89C4000F151
:102A04000801007B64F304000871D7F8A0000C7976
:102A1400400860F347140C71D7F89C1021F01F0193
:102A24006960D7F8A01021F01F01296108F101089D
:102A340014350C36B3E700BF3834002000ED00E055
:102A44003F360020F0B54149414CD1F8903025681B
:102A5400C3F307239D4287B075D80020FFF782FF98
:102A64003C4BC1F8C030854216D13B4C01A82570BF
:102A7400FEF770FF00250646384FAE4213D1002002
:102A840023783249D1F89020C2F30722934254DBD1
:102A9400FFF75CFF00202FE0616801EB0011FFF7F6
:102AA4003FFE0130DFE70199280101EB0513DA68E5
:102AB4003A40B2F5001F21D0B2F5800F2BD0B2F509
:102AC400801F38D15A689B680958013B22F01F00C7
:102AD40003440120844623F01F0340EA4C10CDE94F
:102AE40002218DF8100002A920780593FFF752FE09
:102AF40000281DDA6FF0150007B0F0BD5A689B6816
:102B04000958013B22F01F0003444FF0020C01203E
:102B140023F01F03E1E75A689B680958013B22F040
:102B24001F0003444FF0000C062023F01F03D4E7DA
:102B340023780133237001359FE7C1F89830C1F839
:102B4400A00001339EE74FF0FF30D5E700ED00E031
:102B5400348B0000AAFF44003F3600200000F0FF41
:102B6400F0B587B007460E46144600211022684689
:102B74001D4605F030FB02238DF80230054B2A4632
:102B840021466846CDE90476019303F01BF807B0AB
:102B9400F0BD00BFDD7A000008B5024B1B68984702
:102BA400002008BD4C340020034B044A186093787D
:102BB40043F00203937070474C340020100000204F
:102BC40008B50649064821F00701C1F1005202F593
:102BD400E02204F0D2F9002008BD00BF8F46002097
:102BE40050340020054B03EB8000D0F8003223F072
:102BF400E04343F04053C0F800327047002584504E
:102C0400052370B5144D154E2C780134B4FBF3F341
:102C140003EB8303E41A05F0BEF8114A137823B1D9
:102C240056F82430C01A072814D94FF05023D3F88B
:102C3400141141B10021C3F81411D3F814312C70CC
:102C44000CB9012313702C7805F0A5F846F824007C
:102C5400012070BD0020FCE7413600205C340020D8
:102C64004036002010B50124154B1649C3F8004521
:102C740002230020C1F8D036FFF7B4FF2046FFF747
:102C8400B1FF4FF47F030D20D3F8202CC2F344137B
:102C940002F01F021B0182F01002603B283200FB8D
:102CA40002339B0943F48073C1F8C435C1F8044767
:102CB400C1F80449C1F8004BBDE8104000F078B8F1
:102CC400001000500040005007B50DF1070001F05E
:102CD40017F90F4B984218D14FF480620D4B0E49EF
:102CE400C3F8B8254FF40062C3F83C259DF80700EB
:102CF40005F05DF89DF80700084905F053F8012038
:102D04009DF80730984001F0F5F803B05DF804FB36
:102D14000000AD0B00A002502CA0025028A10250CC
:102D240048B1054B054A1B68B3FBF2F35843044B07
:102D340043F00103184770472000002040420F0071
:102D4400108800004FF47F032DE9F041D3F83021BF
:102D54000646072A0D46D3F8343120D1023B032B13
:102D640002D8124AD35CD3B14FF050244FF001087B
:102D740000270520C4F81886C4F8147605F010F866
:102D84004046C4F8148605F00BF8C4F81476C4F869
:102D9400187630462B46BDE8F041002118474FF025
:102DA40050230022C3F81426F3E700BFFB9500006C
:102DB4000149024804F059BC608B000070340020C3
:102DC400084B70B5C31A0D4607499B100446594376
:102DD4004022064804F09CFE2B4601462046BDE8EE
:102DE40070401847A0340020B76DDBB6BC840000E7
:102DF400402373B50B4C0093041B0B460D460A4944
:102E0400A41061430646094A094804F0ACFE011EB9
:102E140005DA30462B4602B0BDE87040184702B0D0
:102E240070BD00BFA0340020B76DDBB6D37B0000BB
:102E3400BC8400002DE9F843002201210646052048
:102E4400FFF7AAFB144801F0DBF8144B98421FD19A
:102E54004FF0502349F6A532C3F85C2501F0E0F8A1
:102E640000244FF01C090C27DFF8348035694146F3
:102E740009FB045004F0F9FB002807DB012307FBDE
:102E840004551C44042CAB67F0D10020BDE8F88342
:102E94006FF00400FAE700BFD52F00000000AD0B6F
:102EA4006C8B00007FB500230393059301ABCDE940
:102EB40001330123074A049301AB04F081FE002887
:102EC40005DB4FF48042002301A801F053FF07B053
:102ED4005DF804FB097C000010B5EFF31184202396
:102EE40083F31288BFF36F8F074A136823F002013C
:102EF400DB07116002D4012004F065FF84F311881C
:102F0400BFF36F8F10BD00BF403500200C22104B63
:102F1400014602FB0033002030B4D3E91C52186789
:102F2400EFF31180202484F31288BFF36F8F9C6F1A
:102F340004F0C00444F002049C6780F31188BFF3DA
:102F44006F8F1DB12B4630BC0248184730BC704708
:102F5400A0340020BC84000010B4EFF311822023BD
:102F640083F31288BFF36F8F1748016841F002049E
:102F74000460C80707D482F31188BFF36F8F012060
:102F840010BC01F065B84FF05021D1F80C04D1F811
:102F94000C14C907EFD5EFF3118083F31288BFF344
:102FA4006F8F0A498B6F03F0C00343F002038B67F2
:102FB40080F31188BFF36F8F82F31188BFF36F8F93
:102FC400002010BCFFF7A2BF40350020A034002031
:102FD400092813D8DFE800F0051012121212121299
:102FE4000E0C074B986F10F0070007D1FFF78EBF48
:102FF4000220FBE70320F9E70120F7E7704700BF51
:10300400A03400202DE9F041012207463649D1E8D9
:10301400EF3FC1E8E02F0028F9D133B933493448F0
:103024004B60CB608A6004F033FB7B1E012B2BD8F2
:10303400012F07D14FF05023D3F81C3403F00303BE
:10304400022B21D004F08BFF0546F8B9294B1B78DD
:10305400E3B14FF0502302220646C3F808234FF091
:103064005024DFF89480D4F81824D4F81834D20308
:1030740015D503F00303022B01D0012F0FD16DB33B
:1030840086F31188BFF36F8FBDE8F081EFF31186EB
:10309400202383F31288BFF36F8F0125DFE7C5B1C7
:1030A400304604F0D7FCD4F81835DBB2012BDAD162
:1030B400D4F80421002AD6D00022C4F80421D4F87C
:1030C40004210222C4F818252022C8F88021A36014
:1030D400C9E70021212004F0DDFFE4E74FF050238D
:1030E4000222C3F80423CFE79C3400208C34002050
:1030F400BC3400204436002000E100E008B5074855
:1031040004F0E8FE38B10648FFF74EFD0448FDF729
:1031140085FD002008BD6FF01200FBE71C85000050
:10312400293100000A2838B50446074D04D1AB689C
:103134000D2128465B689847AB6803485B68E1B299
:103144009847204638BD00BF1C850000F0B51646E0
:10315400426801F01F04107B87B044EA40141069F0
:10316400002871D0B6F5001F02F1100506D12146E2
:10317400284604F0A8FE002007B0F0BD0027B6F5ED
:10318400800F01A80197476039D1B3F1007F14BFC4
:10319400052304238DF804300023CDE904030393AD
:1031A40093680DF1030723FA01F111F001013DD1F8
:1031B400B6F1A07F3AD104F01F03620903F1800342
:1031C40028D0012A46D1254A52F82330DB072DD4D2
:1031D4003A462146284601F045FA214B98421BD035
:1031E40002972146284603AA01F0F4F81D4B9842A1
:1031F4002DD101222146284601F08CFABBE7B3F118
:10320400C06F05D0B3F1007F14BF01230223C1E7CF
:103214000323BFE7144AD7E73946284601F072FA78
:10322400104B9842DCD06FF00B00A5E73A462146DC
:10323400284601F017FA0B4B9842D2D128469DF844
:10324400031001F057FACCE76FF0850094E76FF0B4
:10325400150091E751F82330FFDE00BF00288450A9
:103264000400AD0B0000AD0B002584504209034659
:1032740070B502D0012A17D070BD0D4E3269516865
:103284000029F9D0012503F01F030C689D40002993
:10329400F2D08A682A4002D030464B6898472CB155
:1032A400236821461C46F2E7024EE7E72346F8E787
:1032B400FC840000DC84000038B545682B69B3B198
:1032C4001035284601F00CFA044680B90146284618
:1032D40001F0E2F9084B98420BD1224628460749EF
:1032E40001F0BAF9224605210D20FFF755F9002017
:1032F40038BD6FF00400FBE70000AD0B7132000035
:103304002DE9F04340F206354668D00648BF032055
:10331400337B02EA050558BFC2F3401087B001F0C1
:103324001F07B5F5837F144647EA43178DF803005A
:1033340043D00FD8062D18D007D8B5B1022D3ED0F2
:103344006FF0150007B0BDE8F083B5F5807FF7D1C5
:1033540001250AE040F20222954232D0B5F5407FC1
:1033640031D0B5F5007FEBD1022522032DD5012301
:1033740072688B409360326982BB07F01F037F0938
:103384002AD0012F77D13E4A02EB830284F48033A2
:10339400D2F80012C3F30043C4F3404444EA4304A4
:1033A40021F4706144EA800421F00F0144EA05230A
:1033B4000B43C2F800320020C4E70725D5E70425F3
:1033C400D3E70525D1E70325CFE7630341BF0123F5
:1033D40072688B40D360CEE72A4AD5E71036394667
:1033E40030460DF1020201F03DF914F4403F8046ED
:1033F4000CD13946304604F064FD234B9845DAD1AC
:1034040030469DF8021001F075F9D4E74FF0000939
:1034140001AB3946304603AACDE90439CDE9019917
:10342400CDF80C9000F0D6FF174B984288D114F4D5
:10343400003315D09DF8033084F48034C4F3004481
:103444008DF80E3039464B46304603AA8DF80C50A1
:103454008DF80D4001F07EF80B4B9842CDD06FE70C
:10346400CDE9043339460DF10303304603AA03932F
:1034740000F0B0FFF0E7803352F82330FFDE00BFE6
:1034840000288450002584500000AD0B036803F02D
:103494001F025B09026004D0012B034818BF0020FF
:1034A40070470248704700BF0028845000258450AC
:1034B4002DE9F04F1546834640F2FF18DFF8CC9112
:1034C400DFF8CCA185B000EB8101594503D1002080
:1034D40005B0BDE8F08FDBF80030C3F3C322082A3F
:1034E400C3F3080400F2CC801B0E444508BF4FF020
:1034F400FF3419F80270222B00F2C580DFE803F0D4
:10350400122129412C3241C3C3C3C34875787B7E41
:103514008184878A8D90939FA2A5C3C3C3A8AFB2A9
:10352400B5B8BB00C5F80C45621C0FD0012603A832
:103534000394FFF7ABFF039B06FA03F38360324661
:103544002FE0661CC5F8144540F098800BF1040B7D
:10355400BBE7C5F80845E7E7601CC5F80845F5D0A2
:10356400002604E0C5F80C45621CEFD0012603A830
:103574000394FFF78BFF0122039B02FA03F3C3605A
:103584000FE0C5F81045631CE0D00026002208E0D7
:10359400C5F80845002FF6D1631CD7D000260627AE
:1035A4003246DBF80030039403F40040002818BFCF
:1035B400002203A818BF012601930092FFF766FFBB
:1035C400039C019B00EB8400D0F80042C3F3412C20
:1035D400009A3B0243EA8C03134304EA0A0423439C
:1035E40043EA4603C0F80032B0E7C5F80C45D1E71A
:1035F400C5F86445B8E7C5F86445C4E7C5F8684547
:10360400B2E7C5F86845BEE7C5F86C45BBE7C5F841
:103614007045A9E7C5F86045A6E7C5F84045A3E7A6
:10362400C5F84445AFE7C5F86045661CDBF80030D3
:103634008CD0C3F30043002B7FF478AF96E7C5F832
:103644006445F2E7C5F86845EFE7C5F86C45ECE773
:10365400C5F82445601C3FF479AF012696E7C5F808
:10366400284561E7C5F83045F4E7C5F83445F1E786
:10367400C5F83845EEE7C5F83C4555E700265EE752
:103684006FF0150024E76FF0850021E751960000E4
:10369400F0F0FCFF2DE9F04104460D46476804F0C4
:1036A4005EFC4FF0200888B9264B1B7873B1642662
:1036B400606804F024FBF0B9012004F071FB013EC2
:1036C400F6D10021212004F0E5FCF0E7EFF31186A8
:1036D400314688F31288BFF36F8F606804F00FFBE4
:1036E400A8B986F31188BFF36F8FEFE786F31188CB
:1036F400BFF36F8FE5E7EFF31186314688F3128845
:10370400BFF36F8F606804F0FAFA0028EED0FB690B
:1037140000201D706368FA691B68C3F84425012200
:10372400C3F84825C3F82001D3F82041C3F8580151
:10373400D3F858019A6081F31188BFF36F8FBDE805
:10374400F08100BF44360020F8B50546002201216F
:103754000820FEF721FF0820FEF702FF6C68012114
:10376400E06804F0FDFA6B6819682369C1F8243530
:10377400A27D637D207D1343228B02431343C1F852
:103784006C356E68D6E9004313F0010359D02F69F4
:1037940007F1080000F0B4FB374B984216D008201C
:1037A400FDF7BAFC48B1354B4361354B83610323C4
:1037B4000374002343748374C37400234FF4C2520C
:1037C400304904F02BF86FF00400F8BD387A04F1A6
:1037D4000C0204F5907104F0EFFA387A012707FA25
:1037E40000F000F087FB0823C4F80035F369C4F83F
:1037F40044350023C4F84835A760D4F85831002B69
:10380400FBD00026C4F800656B683146D86804F024
:10381400A7FA6D683146E8682C6804F0A1FA082319
:10382400C4F800352A7A52B92B6AC4F83435012316
:10383400C4F83835C4F81021D4F8102123600020CE
:10384400C3E70822C4F80025F269C4F84425C4F883
:1038540048350123A360D4F82031002BFBD000238A
:10386400C4F82031D4F820310123E3604FF480738D
:10387400C4F80433C1E700BF0000AD0B5A96000042
:103884007D960000F08700000123834070B5DC437F
:103894000B4AD2E8EF1F01EA0405C2E8E65F002EF6
:1038A400F7D14FF4803282400648C0F80823BFF3B2
:1038B4005F8FBFF36F8F0B4214BF0120002070BDD8
:1038C4006C3500200050015070B40E4922F07F4640
:1038D400D1E90034D01AC31844F10004C1E900341A
:1038E400A6F50013B3F5400F09D2074B1B681A0A5B
:1038F4001B069C19054B42F10005C3E9004570BC49
:1039040001F04CBFB031002070350020B8310020E8
:10391400D9B101230D4A8340D2E8EFCF4CEA030C1E
:10392400C2E8E1CF0029F7D14FF48033084A83403D
:10393400C2F80433074BD3E8AF3FC340DB0742BFB1
:103944004FF40012044BC3F8002170476C3500207B
:10395400005001506835002000E100E00D4B18686C
:10396400010A0006BFF35F8F0B4BD3F80435181818
:1039740041F10001B3F5801F0AD2084BD3E90023BB
:10398400904271EB030303D210F1807041F1000106
:10399400704700BF7035002000500150B83100203E
:1039A4002DE9F04F85B016461F4604469DF840A009
:1039B400FFF76AFF0190FFF7D1FFB04271EB0703F5
:1039C40052D23B4B301A67EB0101984271F100016E
:1039D4004DD2384B03EB0413D3E902239F4208BFB3
:1039E400964258D04FF48038334908FA04F82046F8
:1039F40026F07F4BC1F8488304F0C1F94FF0030966
:103A0400584604F15005AD00ADB205F1502504F55A
:103A1400A87305F580350293029A20F07F4341F89C
:103A24002230C1F84483D1F80435244AC01A03383B
:103A340020F07F4090422ED9286868B1D1F804352F
:103A4400A3EB0B0020F07F40B0F5000F039322D9C5
:103A5400204604F094F9039BBAF1000F07D109EB57
:103A6400030009F10109D7E7BAF1000F09D06FF09B
:103A7400150520460199FFF74BFF284605B0BDE820
:103A8400F08F01230E4AA340D2E8EF0F1843C2E897
:103A9400E10F0029F8D107490E982301C8500F9B64
:103AA40001EB04120025C2E902675360E1E700BF9D
:103AB40001008000A031002000500150FDFF7F0074
:103AC400683500207FB500254FF0FF304FF0FF31FF
:103AD400194C1A4B0226C4F80833C4F84833184B5F
:103AE400C4F80855C3E902014FF480334FF40012BF
:103AF400C4F80433134B0121C4F804631520C3F83C
:103B040080212A46FEF748FD1520FEF729FD0123F2
:103B14000D4AA360236013600C4B0D4A00932846A2
:103B24000023CDE90155FFF73BFF3046FFF76AFA62
:103B3400284604B070BD00BF0050015003000F00C0
:103B4400A031002000E100E06C350020CD380000F9
:103B5400FFFF7F002DE9F7432E4BD3F80423900792
:103B64000BD5D3F8042142B10022C3F804212A4A18
:103B7400D3F80431136801331360264AD2F80433AE
:103B8400D90326D5254BD3E8EF1F21F00100C3E864
:103B9400E40F002CF7D1CB0702D4D2F84031C3B1E3
:103BA40000251C4CC4F84051D4F84031FFF7D6FE30
:103BB400EFF31182202383F31288BFF36F8F184B26
:103BC400D3E90267B042B94106D282F31188BFF348
:103BD4006F8F03B0BDE8F0834FF0FF38D3E90010D6
:103BE4004FF0FF391D60C3E902894FF48033C4F8F4
:103BF4004833C4F84051D4F8403182F31188BFF3FC
:103C04006F8F0029E5D0009032463B46284688470E
:103C1400DFE700BF005001507035002068350020F8
:103C2400A031002030B5431C124C85B005D084422D
:103C3400A8BF0446012CB8BF0124FFF78FFE0E4B2A
:103C44000C4DD3E90013401AB0F5000F0FD222181F
:103C5400AA4228BF2A46002052180849CDE901008B
:103C6400009143F10003FFF79BFE05B030BD2A46E7
:103C7400F1E700BFFFFF7F00B0310020CD38000026
:103C840008B5FFF76BFE024B1B68C01A08BD00BFE6
:103C9400B03100204FF47F03D3F83021D3F834310E
:103CA400072A05D1023B032B02D8024AD05C704795
:103CB40000207047B596000008B5FFF7EBFF58B138
:103CC400644BD3F8202A3AB90D21C3F8201A0121F4
:103CD400C3F81C19C3F81C290022D30003F57F0381
:103CE400D3F80013013107D0D3F800130132D3F80D
:103CF4000433202A0B60F0D1FFF7CCFF002840F0FA
:103D0400A080FFF7C7FF40B1534B544AC3F8302596
:103D14004FF050230122C3F858254FF47F03D3F802
:103D24003021D3F83431072A09D1023B032B06D8BA
:103D34004B4AD35C1BB100224A4BC3F84C25FFF716
:103D4400A9FF50B14FF05023D3F80024D10742BF4C
:103D54000022C3F81421C3F818214FF47F03D3F8C9
:103D64003021D3F83431072A09D14FF05023D3F846
:103D74000024D20744BF6FF00102C3F80024FFF708
:103D840089FF18B16522334BC3F80C274FF47F0326
:103D9400D3F83021D3F83431072A16D1314BD3F874
:103DA4002034002B11DA4FF050230322C3F81825D6
:103DB40001229A60D3F80421002AFBD00022C3F820
:103DC40004210122DA60C3F818254FF47F03D3F8E5
:103DD4003021D3F83431072A23D1023B032B02D8F4
:103DE400214AD35CEBB17E221A4B1B49C3F80C2742
:103DF400C3F83C297F231D4AC2F818310023C1F8B7
:103E0400043EC1F8083E01F54821C1F81031C2F85A
:103E14002431C2F82C3102F5FF1202F58052C2F8A7
:103E2400A032134AD2F88C3043F44063C2F88C3089
:103E3400104A114B1168C3F84415D269C3F84C25D4
:103E440008BD2922034BC3F80C270322C3F83C27DF
:103E540057E700BF00400050009003504400EFBEFD
:103E6400B196000000200350AD96000000200050E1
:103E740000ED00E00080FF000060005030B50468F1
:103E8400ACB1B4FA84F30122C3F11F03DBB29A404C
:103E940024EA0202D0E8EF5FA54204D1C0E8EC2F87
:103EA400BCF1000FF6D1EAD102480B7030BD0248D4
:103EB400FCE700BF0000AD0B0200AD0B10B50368BA
:103EC400CB40DB0710D401238B40026843EA020194
:103ED400D0E8EF4F944204D1C0E8EC1FBCF1000FCE
:103EE400F6D1F2D1014810BD0148FCE70000AD0B4A
:103EF4000400AD0B014BC3F804057047007001507A
:103F04000146014800F044B9240000200328F7B515
:103F140006462ED84FF05021364B374A33F810005E
:103F2400925DC1F8080300250A44012142F210748D
:103F34004FF05027314B116033F816308E4203F1A5
:103F440050231D601B688DF8071008BF0DF107058D
:103F5400022E32D0032E40D0012E1CD0D7F81834B4
:103F640003F480333DB923B1012003F019FF013C70
:103F7400F0D103B0F0BDD7F8182402F003022A7080
:103F8400002BF6D09DF807000128F2D103F008FFBA
:103F9400013CDDD1EDE7D7F80C3403F480333DB9AF
:103FA400002BE6D0012003F0FBFE013CF3D1E0E757
:103FB400D7F80C2402F00102E1E7D7F85C3403F4EB
:103FC40080333DB9002BD4D0012003F0E9FE013C3D
:103FD400F3D1CEE7D7F85C24ECE7D7F85434DB030D
:103FE400C7D5002DCED1012003F0DAFE013CF4D177
:103FF400BFE700BFFC8C0000B9960000F48C000001
:10400400044B1A7922B9012218601A7102487047C8
:1040140002487047743500200000AD0B0C00AD0B56
:1040240008B50A4B1B6833B10520FEF7A7FA10B98F
:104034000520FEF795FA4FF050230122C3F8182506
:10404400C3F81425C3F8802508BD00BF74350020CB
:1040540010B5032845D8DFE800F01802554F0022B8
:104064004FF480730121002003F1502318601C6871
:10407400012402F150221460284A1268002A47D011
:104084004FF05023C3F804132BE04FF05023D3F820
:104094001814D3F81824C90312D502F00303022B11
:1040A40005D0012B02D00020FFF730FF01234FF091
:1040B40050220221C2F8183508224FF48273D2E745
:1040C400D3F81424D207F1D5D3F81C2402F0030248
:1040D400013A012AE7D8114A12681AB10222C3F838
:1040E400042310BDD3F80421002AFBD00022C3F816
:1040F4000421D3F80431F4E718224FF490734FF4F9
:104104008071B0E720224FF492734FF40071AAE754
:104114001A68002AFCD018601B68E2E77435002096
:10412400F8B54FF0502301250026D3F80443174F68
:1041340004B9F8BDB4FA84F0C0F11F00830003F59C
:1041440080739BB203F1502305FA00F2196892B20E
:1041540024EA02040029EBD01E601B684FF05023B0
:10416400022AC3F808230DD1D3F81814D3F818146D
:1041740001F00301012905D1C3F81825C3F804236C
:104184009960D5E73B68C0B29847D1E77435002001
:104194000079024B03EB0010FFF770BE2C000020E7
:1041A400036803F01F025B09026004D0012B03487B
:1041B40018BF002070470248704700BF0028845091
:1041C40000258450034A4309D35C00F01F001844BF
:1041D400C0B27047BD96000070B50546FFF7F2FF08
:1041E4000C4C083034F810300E46DA0508D5C3F309
:1041F400432304EBC302284654F8333052689847EB
:10420400A3682BB131462846E268BDE870401847E0
:1042140070BD00BF7C35002008B5FFF7D3FF034B0A
:10422400083033F81000400B08BD00BF7C35002077
:1042340008B5FFF7C7FF034B083033F81000C0F38D
:10424400400008BD7C35002008B5FFF7BBFF034BD9
:10425400083033F81000C0F3401008BD7C3500204E
:10426400034611F0010010B5CCB20BD1A207C4F380
:1042740040000DD5074A106A58601062003818BF14
:10428400012005E004490A6A1A600A62002AEDD096
:1042940010BD00BF002884500025845010B5FFF7DE
:1042A40091FF124A083032F81030D9051CD5C3F3F7
:1042B400432123F4F85322F81030002002F10E04B5
:1042C40034F8023F13F4807F03D0C3F343239942AD
:1042D4000AD001303028F3D1002342F831300448A9
:1042E400BDE81040FFF7EABD10BD00BF7C350020DB
:1042F400F4350020F0B5044600200125064601F1FE
:10430400A05101F55151104A89008A420BD10F4B3B
:10431400D3F87C2132B10022C3F87C21D3F87C315C
:1043240040F00040F0BD02F13043A3F551439B0837
:1043340005FA03F31C4204D0176817B11660176816
:1043440018430432E1E700BF00D1005000D0005010
:10435400F7B506460846FFF735FF1A4F00F1080582
:1043640037F815300C46DB072AD5304603F085FDB7
:104374002046FFF769FF58B12046FFF74DFF0022A2
:10438400316800B201EB8003C3F81025C3F810258F
:104394002046FFF783FF002301A827F81530019476
:1043A400FFF7FEFE019B00EB8300D0F80022064BD2
:1043B400134043F00203C0F80032044803B0F0BDD8
:1043C4000348FBE77C350020F0F0FCFF0000AD0B58
:1043D4000400AD0B2DE9F0431646804685B008462F
:1043E400FFF7F0FE0C463168054609B32046FFF797
:1043F4001FFF18B12046FFF727FF10BB00230DF164
:104404000F02CDE900338DF80E308DF80F302046C1
:104414000B460DF10E0103F0D8FC4A4A05F10801E0
:1044240032F8113023F0020343F0010322F8113073
:1044340073687BB320461F785968FFF7F9FE10B103
:10444400E9B1414829E03F4A05F1080032F810304B
:1044540023F02003DB04DB0C22F8103079B1032FA6
:10446400EFD87168D1F804E0D8F800109EF800C0C5
:1044740001EB8C01A7B9C1F81075C1F81075314A68
:1044840005F1080132F8113023F01C0343EA8703D5
:1044940022F81130B3685BBB2C4805B0BDE8F0834B
:1044A400D1F810E543EA4C332EF0030EC1F810E5C1
:1044B400D8F8001043F0200301EB8C0EDEF8101541
:1044C40022F8103021F44F3121F44071CEF8101548
:1044D4002102DEF8108501F47C5141EA074141EAEA
:1044E4000801CEF8101502EB4C01A1F87C40C6E798
:1044F4002046D3E90067FFF7D1FE002ECCD0114C43
:10450400D4E90023964203D19F4201D1002209E05D
:104514000F480DF10F01FFF7B1FC0C4B9842BCD1D1
:104524009DF80F2004EBC20308355F6034F81530A2
:1045340044F8326043EA422343F4807324F815308C
:10454400AAE700BF7C3500200400AD0B0000AD0BD2
:10455400F43500202DE9F0430C46804685B0204612
:1045640011461D46FFF72EFE064629B32046FFF7E7
:104574005FFE18B92046FFF767FE18BB334F06F1FC
:10458400080937F8193013F01C0F02D04B78012BAF
:1045940018D001238DF80F3000234A1CCDE90013F5
:1045A40020468B1C0DF10F0103F00FFC37F8193076
:1045B40043F0030327F81930002D44D02046FFF7B9
:1045C40037FE18B9224805B0BDE8F083002295F8FB
:1045D40000C0D8F800301D4F03EB8C03C3F810253E
:1045E400C3F8102506F1080237F812104FEA8C0EB2
:1045F40021F02001C904C90C27F812106E7816B3F3
:10460400D8F80000AD787044D0F81035360423F49F
:10461400991323F4F853C0F81035230203F47C53A0
:1046240006F440362D05D0F810E5334305F4801523
:104634002B4341EA4C3143EA0E0341F02001C0F818
:10464400103527F812100348BDE700BF7C35002061
:104654000400AD0B0000AD0B014BC3E9021270471F
:104664007C35002010B508461446FFF7EDFD50B127
:104674000846FFF7A7FD054B083033F8103004480F
:104684005B0B237010BD0348FCE700BF7C350020A2
:104694000000AD0B0400AD0B70B50E4C064694F84B
:1046A4008C50A5B96022294604F1100003F093FD53
:1046B4003068C0F87C51D0F87C3140F30730FDF706
:1046C4004FFF0123044884F88C30A36770BD03486E
:1046D400FCE700BF7C3500200000AD0B0C00AD0BE7
:1046E400034B93F88C00003818BF0120704700BFBB
:1046F4007C3500200079024B03EB8000FFF7DEBB22
:104704003C0000200079024B03EB8000FFF7B6BBAE
:104714003C000020F7B5054608461646FFF794FD11
:104724000C462968F0B12046FFF782FD0746C8B958
:104734002046FFF771FD04B2A40004F580728F5087
:104744008A5829682144D1F8102542F00102C1F8A1
:1047540010252EB10122296802FA00F3C1F80433AE
:1047640003B0F0BDD1F804332046002BA4BF4FF0B2
:104774000043C1F80433FFF725FD0F4B083033F82D
:104784001030C3F38203042B11D0052B11D001A8E0
:104794000194FFF705FD019A0369D34003F0010377
:1047A400991C204603B0BDE8F04003F057BB032139
:1047B400F7E70221F5E700BF7C3500202DE9F04F33
:1047C400634B0821D3F8040387B0C0B240F0004023
:1047D400FFF790FD051E2BDA0023032104A8CDE981
:1047E4000433FFF73DFD4FF000094FF0010BDFF8F4
:1047F40064A10DF110081AF8013B5749DA088A5CE4
:1048040003F0070322FA03F3DA071CD408F10408BF
:10481400B9F1000F14D000214FF00040FFF76AFDFA
:10482400032104A8FFF71CFD0028DCD125F0004576
:104834000124474E494F002D75D107B0BDE8F08FD4
:104844004FF00109D7E7464B4B440093D8F80010CA
:104854000029DBD091FAA1F1B1FA81F1009B1C7817
:1048640041EA44142046FFF7ADFC3C4B083033F8D2
:104874001070C80818F8002001F007010BFA01F1C4
:1048840022EA0102BB0808F8002003A8019303945C
:10489400FFF786FC039A019B803250F82220C7F36D
:1048A40082065B073746C2F3014221D520463946CA
:1048B400D6B2FFF791FC03A80394FFF771FC039BA6
:1048C400803350F82330C3F301439E4207D10021C3
:1048D400204603F0C3FA3146204603F0BFFA03A88A
:1048E4000394FFF75DFC039B0BFA03F30362ADE74C
:1048F400022A0CD10321204603F0B0FA06F0050386
:10490400012BECD139462046FFF766FCE7E702218C
:104914002046019203F0A2FA032EF3D0019A032A4F
:10492400DDD1022EEDE795FAA5F3B3FA83F304FA89
:1049340003F225EA020503F5A27256F8221007EBEA
:104944004303B3F87C00C1F30141FFF745FC72E770
:1049540000D00050CD9600001C8C00007C35002057
:10496400CD96000010B50446FCF750FC0820FCF777
:10497400D3FB48B1094B4361094B8361032303749F
:10498400002343748374C37400234FF4C252054953
:1049940002F044FF204603F0A8FA00BFCF960000BF
:1049A400BD970000E08700002DE9F04704460D465E
:1049B40000AFEFF31189202383F31288BFF36F8FC5
:1049C4000428324A98BF324BEA468CB09668117C70
:1049D40098BF53F820306A4688BF2E4BC2E908318D
:1049E40040F202432C481385DFF8B0802C4BC2E917
:1049F4000684506142F8103F00234FF45151294876
:104A0400FCF7D4FCD546B5B1EB69C3F3080393B105
:104A14000820FCF781FB40B1234BC0E90538032390
:104A24000374002343748374C37400234FF4C25289
:104A34001C4902F0F3FE2EB1304603F096FA08B199
:104A4400037803B91948EA468AB06A46184BC2E9A2
:104A54000760C2E9053840F202439384154B42F8DB
:104A6400103F00234FF431510E48FCF79FFC2946B8
:104A7400D5462046FFF776FF89F31188BFF36F8F81
:104A84003046FDF701FDBD46BDE8F0870C36002039
:104A9400208C0000E2960000F8960000AF9700001A
:104AA40006000001E087000024970000F096000053
:104AB400499700000500000138B50A4B53F820401F
:104AC400013053F82050A54200D838BD606830B199
:104AD400037FDB0701D403F010FA0834F3E72368FB
:104AE4009847FAE7348C0000012270B52A4B032062
:104AF40086B01A70FFF7E0FFFEF7E6F800F084FFD7
:104B04000420FFF7D9FF254C254D2646AE4204F17B
:104B1400300410D300F028FB204C224EAC4226D3A4
:104B240000F036FBFBF784FC1F4A137B23F00103E0
:104B3400137306B070BD54F80C3C059354F8103C44
:104B4400049354F8143C039354F8183C029354F817
:104B54001C3C019354F8203C009354E90A2354E983
:104B64000C0100F03DF954F8303C5E65CDE7D4E922
:104B74000A23B3F1FF3F08BFB2F1FF3F05D052EA69
:104B84000301206803D100F0BFFB3034C6E731468F
:104B9400183000F073FDF8E7443600206487000005
:104BA40064870000658000007032002008B5034867
:104BB400034A0021121A03F0B7F908BDA800002027
:104BC40048360020B02370B5144E86B003FB00664F
:104BD400134B012205930F23CDE903320023CDE9C2
:104BE400013314234FF4A0720E4D0F4903FB0055FB
:104BF400044602FB00110D4B3046009500F0F0F81E
:104C0400737B2C7423F004037373094B013403EB9B
:104C1400C423EE606B6006B070BD00BFC0310020DD
:104C2400D79700000C36002048410020357F000053
:104C340048390020BFB50020FFF73EFF2B4B03F59A
:104C4400006282F3088883F30A880024E023284D55
:104C5400284F85F82230EC772C766C76AC7685F884
:104C640020406B6A43F4E0236B6285F82340FDF730
:104C7400D1FBFDF711FD4FF0FF33AB62EB62FDF7A3
:104C8400E1FEFDF731FDFCF71FFA1B4800F03AF98D
:104C940003F01FF9FDF7E6FF0120FFF70DFF0220E7
:104CA400164DFFF709FF00F0A7FA154B15495D6192
:104CB400154B4FF48062059301232846CDE9034345
:104CC400CDE901443B46009400F08AF806466A7B2D
:104CD400284622F004026A7303F085F92046FFF7A0
:104CE40071FF3A4631462846FDF7B2FC48390020A8
:104CF40000ED00E0ED4A0000203300207032002077
:104D04000C36002088420020DC97000070B5EFF3D9
:104D14001186202383F31288BFF36F8F0468A042A7
:104D24001BD0D4B1D4E90032002513605A60637BF0
:104D3400C4E9005523F002036373A56004F118006D
:104D440003F0E6F92046C4F8AC5003F04CF93146C0
:104D5400BDE87040064800F0E1B9D0E902329A4259
:104D640018BF0133836086F31188BFF36F8F70BD62
:104D74004536002013B5EFF31181202484F3128803
:104D8400BFF36F8F846844B1013C846081F3118860
:104D9400BFF36F8F002002B010BD52EA030406D1A6
:104DA40081F31188BFF36F8F6FF00F00F3E7CDE944
:104DB40000230246014800F08FF9ECE74536002055
:104DC40010B5044608B9054B9C681F2204F1740011
:104DD40003F009FA002084F8930010BD0C3600207B
:104DE4002DE9F04F984685B000F15803C0E9163319
:104DF400129B002503730423D61D26F00706437374
:104E0400119B01EB060A0F46C0E906555146856021
:104E14008373C5730446DDF838B0DDF84C90FCF7B5
:104E2400A9FE109B073020F00700C4E92576C4F8DA
:104E34009C0002930F9BAAEB0006CDE900B3324617
:104E4400434639462046FDF7E7FB0F9BC4E9188B20
:104E5400A366109B6565E366EFF31183202282F35A
:104E64001288BFF36F8F104F3A6A3C62226783F354
:104E74001188BFF36F8FB9F1000F11D01F2249467B
:104E840004F1740003F0AFF984F89350BB680BB1DC
:104E9400D3F8A0303046C4F8A03005B0BDE8F08F98
:104EA40084F87490F2E700BF0C360020F0B50025BA
:104EB40087B00595109DDDE9127604950F9D044693
:104EC40003950E9D02950D9D01950C9D0095FFF790
:104ED40087FFB6F1FF3F08BFB7F1FF3F05D056EAA1
:104EE400070305D1204600F00FFA204607B0F0BDB5
:104EF4003A46334604F11800014900F0BFFBF4E7D9
:104F04006580000040F2011383810023C0E925334A
:104F1400C0F8A030014B9860704700BF0C360020E9
:104F24006FF00A01094A9368C3F8AC100849C3F842
:104F3400A8004B6843F080534B60002383F311882F
:104F4400BFF36F8F9368D3F8AC0070470C36002022
:104F540000ED00E070B590F90D20437B002A36DBAC
:104F6400D90634D11B4C63F07F032246437352F8B5
:104F7400183FE169934207D1C0E900210860E0616C
:104F840011E09942F8D01B68002BF5D090F90E502F
:104F940093F90E60B542F4D0AE42F2DD5968C0E92F
:104FA400003108605860A569954200D005B9E568EC
:104FB400A3685A7BD20604D1DA897F2A01D9AA6967
:104FC40032B1AB4202D0284600F098FA656170BD58
:104FD4006361FCE70C36002038B590F90D200146DA
:104FE400002A437B04DA03F07F03437302F0C1FF1A
:104FF4000D4D2A4652F8184FAB68944200D004B9BC
:10500400EC688B4207D05A7BD20604D1DA897F2A16
:1050140001D9A2692AB1A34202D0204600F06EFA57
:1050240023466B6138BD00BF0C360020B3F1FF3F4F
:1050340008BFB2F1FF3F03D00249183000F01EBB95
:10504400704700BF6580000070B590F90D200146DF
:10505400002A437B04DA03F07F03437302F089FFE1
:105064001C4C4B7B224663F07F034B7352F8183F72
:10507400E069934207D1C1E900200160E16111E0D8
:105084009842F8D01B68002BF5D091F90E5093F993
:105094000E60B542F4D0AE42F2DD5868C1E900308A
:1050A40001605960A569A368954200D005B9E56817
:1050B4008B4207D05A7BD20604D1DA897F2A01D9E0
:1050C400AA692AB1AB4202D0284600F017FA2B464F
:1050D400636170BD0C360020F8B5DDE906670D4B41
:1050E4000C46986811460C4A1060EFF31182202296
:1050F40082F31288BFF36F8F9D68284602F04BFF3E
:10510400284632463B46FFF791FF2046BDE8F8406B
:10511400FFF706BF0C3600203036002049B9EFF304
:10512400058030B9054B5A699B689A4201D0FFF754
:10513400F7BE81F31188BFF36F8F70470C360020E0
:10514400034648B9EFF3058232B9064A51699268B9
:10515400914201D0FFF7E4BE83F31188BFF36F8F50
:10516400704700BF0C360020EFF31181202383F336
:105174001288BFF36F8F054B9A68D37B013BD373BF
:1051840081F31188BFF36F8F704700BF0C36002086
:1051940070B5EFF31186202383F31288BFF36F8F6A
:1051A400144DAB68DA7B0132DA732A4652F8184F91
:1051B400944200D004B9EC685A7BD20604D1DA894F
:1051C4007F2A01D9A2692AB1A34202D0204600F065
:1051D40095F923466B6186F31188BFF36F8FEFF364
:1051E4001180202383F31288BFF36F8FBDE87040D2
:1051F400FFF7A6BF0C360020024B03F11802C3E9E7
:10520400062270470C36002070B5EFF31186202378
:1052140083F31288BFF36F8F1B4CA168E0690B689E
:10522400814214BF1A46002249680B605960A36882
:10523400E1692AB9154AC3E900210B60E3610CE076
:1052440093F90E0092F90E50A84218D0854216DD4B
:105254005168C3E900210B605360A5690B4B9D4263
:1052640000D005B9E568A3689D4202D0284600F045
:1052740045F965613046BDE87040FFF751BE8A428A
:10528400D8D01268D5E700BF0C36002024360020A1
:10529400F8B550EA010306460C4603D1FFF7B4FF04
:1052A4000020F8BDEFF31187202383F31288BFF3A6
:1052B4006F8F124D124BA8681860FFF78DFEA86817
:1052C400234632460F49183000F0D8F9AA6804463C
:1052D400537B384643F004035373FFF721FEAB6856
:1052E400D3E90A23B3F1004F08BF002AD8D102F052
:1052F40037FF201A20EAE070D3E700BF0C36002005
:10530400303600206580000038B50446EFF311857F
:10531400202383F31288BFF36F8F437B5B070FD582
:10532400183002F0F5FE637B204623F00403637318
:10533400FFF710FE2946BDE838400448FFF7EEBEEB
:1053440085F31188BFF36F8F38BD00BF4536002049
:10535400014B9868704700BF0C3600202DE9F843D4
:105364000446077BEFF31185202383F31288BFF3F0
:105374006F8F437B190705D585F31188BFF36F8FB2
:10538400BDE8F883D90943F0080260D14273A368E9
:1053940013B1204602F0F5FD04F1180002F0B8FE46
:1053A400A66D04F15808B04511D04FF0000976B14C
:1053B400304602F0E6FD06F1180002F0A9FE304680
:1053C400C6F8AC90FFF7C6FDA66DB045EFD1DFF887
:1053D400C480D8F808309C4241D1EFF30589B9F173
:1053E400000918BF4FF00109D8F818602A4A9642FC
:1053F40000D00EB9D8F80C60B34202D0304600F0A9
:105404007DF82046C8F8146002F0FDFA204600F04A
:10541400CDF8B9F1000F02D02048FFF773FDD8F89A
:1054240008309C4231D1EFF3058373BB227BD20752
:1054340018D42846FFF774FDFB07A1D5002383F396
:105444001188BFF36F8F0423184602DF98E703F037
:105454007F0343F00803437302F08BFD97E74FF09B
:105464000009C1E785F31188BFF36F8F83F31188B7
:10547400BFF36F8F0423184602DFEFF3118020235C
:1054840083F31288BFF36F8FD4E785F31188BFF3DA
:105494006F8FD1E70C360020243600202033002003
:1054A4000122044BC01A044BC0105843034B1A5436
:1054B400704700BFD0330020ABAAAAAA453600200B
:1054C400C3897F2B12D80A4B1B6863B1094B90F92F
:1054D4000E201B689A4209DB437BDB0606D1064B90
:1054E400C31A18BF012303F0010070470023FAE731
:1054F4004000002034360020C031002070B50E4B2F
:105504000E4C1E7C054606EB460304EBC304204602
:1055140002F0FEFD00220A4B28469A55FFF7D0FF01
:1055240048B1084B2046BDE870401A680649013A64
:10553400D31700F0A3B870BD0C360020D033002080
:105544004536002040000020A554000038B5EFF394
:105554001185202383F31288BFF36F8F104B114AF8
:105564009C681068A04206D1FFF7C8FF85F3118834
:10557400BFF36F8F38BD00211B7C11600A4AD35CD6
:10558400002BF3D02046FFF79BFF0028EED0637B6F
:10559400DB0602D12046FFF757FD2046E4E700BFB3
:1055A4000C3600203036002045360020EFF3118100
:1055B400202383F31288BFF36F8F0A4A136A83424E
:1055C40007D11B6F136281F31188BFF36F8F70478C
:1055D4001346002BF7D01A6F8242F9D1026F1A6773
:1055E400F1E700BF0C360020074808B5074A084910
:1055F400121A02F09BFCBDE808400648064A074917
:10560400121A02F093BC00BF00000020A800002082
:105614002C99000000000020000000202C990000BC
:10562400024B1868984208BF0020704744000020CD
:10563400034B1B680BB9FEF723BB0020704700BF68
:105644003836002030B570B10B4B5B6898420AD0F5
:10565400036843B1D3E90421D0E90445121941EBAD
:105664000501C3E90421D0E9003213605A60002324
:10567400C0E9003330BD00BF44000020B3F1FF3F58
:1056840008BFB2F1FF3F2DE9F84F0446994615468D
:105694001F467AD08160EFF31188202383F31288A8
:1056A400BFF36F8FB9F1000FDFF8E4A020DBFFF741
:1056B400BFFFDAE90027013549F100092D1849EB4C
:1056C400E07306464FF00109C4E90453AD1843EBF7
:1056D4000707FFF7A5FF0346DFF8B8E0DEF804A0EC
:1056E400EBB9C4E900EACAF80040CEF8044028E067
:1056F4006FF00103DAE900125B1A4FF0FF3161EB3E
:1057040002025B1B62EB0902012B72F10001BCBFB8
:10571400012300224FF00009C0E90432D9E7D3E99C
:10572400041CD4E904208A4270EB0C0B24DA891A95
:105734005A686CEB0000C3E90410C4E90032146039
:105744005C60FFF76DFF84420ED1134B1B685BB99D
:10575400B9F1000F02D1FFF76BFF0646304602F0A5
:10576400C0FC0021FEF75EFA88F31188BFF36F8F47
:1057740028463946BDE8F88F521A60EB0C009A456A
:10578400C4E90420ADD01B68AAE700252F46EFE743
:10579400E833002044000020383600202DE9F0478B
:1057A400EFF31185202383F31288BFF36F8FDFF8A3
:1057B400A0900026C9F800000027FFF731FFDFF8AA
:1057C4009480D9F80030D8E900ECD91750B1D0E969
:1057D4000442A34271EB020A1BDAE41A62EB0102EF
:1057E400C0E90442002413EB0E034CEB01012046F4
:1057F400C8E90031C9F8004002F073FC2146FEF705
:1058040011FA85F31188BFF36F8FBDE8F047FFF7F6
:105814009DBE14EB0E024CEBE473C0E90467C8E9C7
:105824000023FFF70FFF85F31188BFF36F8F8368A1
:105834009847EFF31185202383F31288BFF36F8F0A
:10584400D9F800301B1BC9F80030FFF7E9FEB8E7B0
:1058540038360020E833002010B5EFF311842023FC
:1058640083F31288BFF36F8FFFF7E2FE0346054A06
:10587400D2E90001181841EBE37184F31188BFF3F6
:105884006F8F10BDE8330020F8B50546EFF311879C
:10589400202383F31288BFF36F8F036823B187F348
:1058A4001188BFF36F8FF8BDD0E90A46611C46F139
:1058B4000002022972F1000236D3012C76F10002B3
:1058C400BCBF01241E46013C46F1FF3602F04CFCED
:1058D400013041F10001001946EB0101012871F189
:1058E400000130DB02F040FC6FF00203013041F1B3
:1058F4000001001946EB010183426FF000438B4124
:1059040026DB02F031FC013041F100016FF00102AD
:10591400001946EB01034FF0FF31121A61EB030348
:1059240028461C49FFF7AAFE2B6B01332B632B6A15
:1059340093B93C462B4653F8185F9D4200D0D5B925
:1059440084F31188ADE76FF001024FF0FF33E7E70E
:1059540000224FF00043E3E787F31188BFF36F8F12
:1059640028462B6A9847EFF31184202383F3128887
:10597400BFF36F8FDEE7284602F044FB0023C5F82F
:10598400AC3084F31188BFF36F8F2846BDE8F8402C
:1059940002F029BB8D5800002DE9F04105461C4654
:1059A40090461F46EFF31186202383F31288BFF33A
:1059B4006F8FB4F1FF3F08BFB2F1FF3F05D186F30B
:1059C4001188BFF36F8FBDE8F081002C09DB012A39
:1059D40074F10003BCBF0122002412F1FF3844F12A
:1059E400FF37284602F094FBDDE906010023C5E9F0
:1059F4000A012B6342463B4628460249FFF73EFE16
:105A0400DDE700BF8D580000014801F066BB00BF10
:105A1400E49700000FB407B504AA064B52F8041B20
:105A24001868019200F0CEF803B05DF804EB04B0FE
:105A3400704700BF5C8B00000CB430B589B00546DC
:105A44000C461C22002101A802F0C5FB0223059587
:105A54008DF806300D4B029323462CB1B4F1004F60
:105A640028BF4FF00043013B1D440DAA0C9901A827
:105A74000695009200F0A6F814B1059B00221A7056
:105A840009B0BDE8304002B0704700BF598400003F
:105A94002DE9F04101260746B24201DCBDE8F08160
:105AA4003B461F4613F8014B002CF7D0252CF8D1A8
:105AB4001C780237252CF3D00023DFF804819C46A0
:105AC4001D461F2D18D8A4F1200EBEF1100F09D9C0
:105AD400A4F1300EBEF1090F1ED80A24202504FBC0
