:1000000050460020312000007573000015200000CC
:10001000152000001520000015200000152000000C
:10002000000000000000000000000000112100009E
:1000300015200000000000009520000015200000A1
:100040009D2200009D2200009D2200009D220000B4
:100050009D2200009D2200009D2200009D220000A4
:100060009D2200009D2200009D2200009D22000094
:100070009D2200009D2200009D2200009D22000084
:100080009D2200009D2200009D2200009D22000074
:100090009D2200009D2200009D2200009D22000064
:1000A0009D2200009D2200009D2200009D22000054
:1000B0009D2200009D2200009D2200009D22000044
:1000C0009D2200009D2200009D2200009D22000034
:1000D0009D2200009D2200009D2200009D22000024
:1000E0009D2200009D2200009D2200009D22000014
:1000F0009D2200009D2200009D2200009D22000004
:100100009D2200009D2200009D2200009D220000F3
:100110009D2200009D2200009D2200009D220000E3
:100120009D2200009D2200009D2200009D220000D3
:100130009D2200009D2200009D2200009D220000C3
:100140009D2200009D2200009D2200009D220000B3
:040150009D220000EC
:1001540053B94AB9002908BF00281CBF4FF0FF312A
:100164004FF0FF3000F00CB8ADF1080C6DE904CE8F
:1001740000F010F8DDF804E0DDE9022304B0704774
:10018400704700BF034613F8012B002AFBD1181A4D
:10019400013870472DE9F04786468C460846089E8C
:1001A400154674461946002B40F0C1808542B2FAC8
:1001B40082F245D94AB1C2F1200300FA02FC95400B
:1001C40094402EFA03F343EA0C0C4FEA154EA8B2FE
:1001D400230CBCFBFEF80EFB18CC08FB00F943EA29
:1001E4000C43994528D9EB1808F1FF3704D29945F7
:1001F40002D9A8F102072B44A3EB0903A4B2B3FB71
:10020400FEFC0EFB1C330CFB00F044EA0344A0424A
:1002140014D92C190CF1FF3304D2A04202D9ACF149
:1002240002032C44241A43EA07401EB1D44000239D
:1002340034607360BDE8F0874746DDE76346F1E765
:1002440092BB431B01214FEA154EAFB2200CB3FB06
:10025400FEFC0EFB1C330CFB07F840EA03439845F5
:1002640061D9EB180CF1FF3004D2984502D9ACF1F6
:1002740002002B44A3EB0803A4B2B3FBFEFC0EFB69
:100284001C330CFB07F744EA0344A7424DD92C194D
:100294000CF1FF3304D2A74202D9ACF102032C447F
:1002A400E41B43EA0040C0E7C2F1200395409440B8
:1002B40020FA03F12EFA03F34FEA154E9040AFB241
:1002C4000343B1FBFEFC0EFB1C10190C0CFB07F8DE
:1002D40041EA0041884522D969180CF1FF3004D263
:1002E400884502D9ACF102002944A1EB08019BB274
:1002F400B1FBFEFC0EFB1C110CFB07F743EA0143A8
:100304009F420ED9EB180CF1FF3104D29F4202D95F
:10031400ACF102012B44DB1B41EA004193E7604648
:10032400E3E76146F7E76046A4E76346B8E783423C
:1003340006D916B9002108467CE7C6E900E0F9E7CA
:10034400B3FA83F78FB9834201D3724508D8BEEB61
:10035400020460EB030301209C461EB9002169E7F7
:100364003846FAE7C6E9004CF8E7C7F1200CBB4071
:100374000EFA07F522FA0CF42EFA0CF1BA401C43DB
:1003840020FA0CF3B8404FEA144901431FFA84FEE3
:10039400B3FBF9F809FB18300B0C08FB0EFA43EA1F
:1003A40000439A4540D9E31808F1FF3004D29A4536
:1003B40002D9A8F102002344A3EB0A0389B2B3FBD8
:1003C400F9F809FB183308FB0EFE41EA03418E4598
:1003D4002CD9611808F1FF3304D28E4502D9A8F153
:1003E4000203214443EA0040A1EB0E01A0FB029862
:1003F4004145CE46434602D306D14D4504D2013889
:10040400B9EB020E68EB0403002EA7D0B5EB0E0285
:1004140061EB030101FA0CFC22FA07F3F9404CEA00
:100424000303C6E9003199E74046C5E74346D9E7E7
:10043400F8B5174D284607F00CFA044628B32A6984
:10044400A9681368284643F0100313600B68114A27
:1004540004219847002818DB0F4F104EAB68102179
:1004640028465B69984700280FDB84F0010414F0E8
:10047400FF0414BF39463146094805F09DF80021B0
:100484004FF4004007F0C5FAE8E70020F8BD00BFCC
:100494006C7E000001000600E8850000EB8500008A
:1004A400EF8500002DE9F04F91B0009302F00403B2
:1004B4000293C2F3C2030133840705460E46DDF8F6
:1004C40068800392059340F0BB81041D30B1072975
:1004D40009D86FF01B0011B0BDE8F08F01F00706DA
:1004E4003444C6F10806009B4FF000094FF0040A9B
:1004F400591E4FF0FF334F460193CB465346CDF878
:1005040010900DB1009A22600598002800F3E8804D
:100514009848009A824203D397488242C0F0E08010
:10052400039AA4EB050E92074FEA9E0000F10381A3
:100534000F2F00F2B180002D00F0058107F1400279
:100544000DEB020C019A0CF8200C0CF8102C0498FA
:1005540001300490E7E07A285DD84B280ED847286C
:1005640059D829282DD8252852D054D820287AD0D3
:100574002338D0F1000B4BEB000B74E04C382E28E1
:1005840049D8DFE800F07048484848484848484897
:1005940048484B484848484848484859484B4B59AC
:1005A4005959704B6D487048184B184848827F4B16
:1005B40048484B487F0000204FF0000B4FF0040ADE
:1005C40038E001222A38C0B202FA00F010EA0E0F15
:1005D40049D110F0625C2FD110EA020B43D060467F
:1005E400013C5444B4FBFAF40AFB04F4002D61D03A
:1005F400A3EB050CA444B4453FF66BAF002868D1C7
:10060400042B47D158F8043B2360042304342AE024
:10061400019A013A01924FF0000B24E011F8010C09
:100624006C2834D1002011F8023C83466C2BC5D1D0
:100634004FF0080A5346D3E708F1070828F00708E3
:10064400073424F00704F8E802AB35B106982044D7
:10065400B0423FF63EAFC4E900AB4FF0000B0834A4
:100664004FF0080A534611F8010F002878D0BBF167
:10067400000F7FF470AF2528F5D14FF0010B019BDB
:10068400013301934FF0040AECE7584694E7002045
:100694008346A5E7082B02D06FF015001BE708F18D
:1006A400070828F00708F8E80223C4E90023082310
:1006B4000834D8E768B9042B02D108F10408A4E788
:1006C400082BE9D108F1070828F0070808F1080801
:1006D400EDE7059A013A059258F8042B009210E7C9
:1006E400039A900720D54FF0010CA4EB050E4FEAB6
:1006F4009E00BEF5007FCFD20F2FCDD8F5B107F104
:1007040040020DEB020E019AC0B20EF8200C0EF856
:10071400102CBCF1000F3FF41AAF60F07F000EF80C
:10072400200C09F101090137C5F108024FF6DA7E00
:100734000434069297E74FF0000CDAE7BCF1000F9F
:1007440001D00136EFE7029802360028EBD1009879
:10075400CDE90631FFF716FDDDE906310644E2E78F
:10076400631BB3F5806F97D245B9A6F10804E0186E
:10077400B1E600BFEC7D000060900000029A9B0887
:1007840028602B709DF81030C2B1EB7085F8029090
:10079400B9F1000F05D0002208A8C5F1010C974259
:1007A4000ED14FF0000AC5F101030DF120080193A9
:1007B4000DF1300B574512D1601B8CE66B70E5E7E9
:1007C40010F8013B190608D50CEB040EB64503F0EE
:1007D4007F033FF67EAE04F8013B0132DFE7B9F157
:1007E400000F03D098F90020002A17DB029BD3B135
:1007F4001AF80B2004F8012B0022019B181910444D
:10080400B0423FF666AE98F80000009904F8010B78
:100814002046039207F091F9039A14440AF1010A5D
:1008240008F10108C6E798F8002055F82230009333
:10083400029B009845F82230FFF7A4FC421CDCE739
:100844006FF00D0047E600BF2DE9F04F97B000AF01
:10085400D7F880B03B62CBF3C0030446894690F8D6
:1008640002A0FA62BB6141B9457800780AEB8000C6
:1008740020444D4517D8A0EB0409E378FB61BAF195
:10088400000F02D01BF0010F16D1FB6953BBFB6AAA
:100894001BB1494620463A6A98474D4628465C377C
:1008A400BD46BDE8F08F461C3046FFF76BFC0130B7
:1008B400304409F10109DCE7626823787A62FA6A54
:1008C4009900796104EB8301002A40F003810E460C
:1008D4004FF000084D4601EB0A094E454ED101EB9D
:1008E4000A0610E01BF0020FD1D023789A007A6137
:1008F400626804EB83017A62FA6A002A79D14D4670
:10090400904601EB0A061BF0050F0CBF02230123DE
:10091400FB62FB6906EB430A0BF00203BB6256451C
:10092400BCD016F8021B16F8013C54F823909A4BDD
:10093400994502D3994B994538D3BB69002B42D0D2
:10094400786A06F018F900283DD0E9468AB06A466C
:10095400934B5361934B93617B6AC2E9073140F235
:1009640001339384904B42F8103F00234FF43251EB
:100974008E4800F0F7FC023DCD46D0E716F8013B67
:10098400F96254F82300FFF7FDFBD7F88430F96AC5
:1009940001304BB1D7F8883098453EBFD7F8843042
:1009A40023F8180008F10108054496E7BB6923B150
:1009B400786A06F0E0F80028C7D11BF0010F05D1D2
:1009C400FB6AED1AABE7BB6A002BA8D04846FFF7D9
:1009D400D9FBD7F8843053B1D7F8883098453FBF56
:1009E400D7F88420431C22F8183008F10108054484
:1009F40095E7BAF1000F73D01BF0040873D0D0460A
:100A0400002607F1480052463B61B96207F095F8A9
:100A1400B96A3B6901EB0A02BA62FA69F9695200E0
:100A2400FA60BA6A02EB41023A610BF00202BA6060
:100A34003A69B96A8A4258D162781BF0020F18BF2A
:100A440000217A6208BF4FEA5801B2181BF0010F67
:100A5400D2B240F09F801BF0040F14BF4046002028
:100A6400BB616270A070E17020463A6A7969FB6AE2
:100A74009847051EFFF612AFBB69414623707B6A97
:100A84003A6A6370FB6984F802A0E37007F14800D6
:100A9400FB6A9847B0F10008C0F2BC807B69A9EBFF
:100AA4000A01C91AFB683A6AC91AD7E90A039847BE
:100AB4000028C0F2B1804FF0000BA84408EB0005F9
:100AC40007F1380AB34573D300213A6A0846FB6A32
:100AD4009847E3E656464FF0000807F1380092E7DE
:100AE400D046564696E7464694E7BA6A12F8021B81
:100AF40012F8015CBA6254F82500274A904202D3E6
:100B0400264A90421ED3BA6932B1786A7B6006F0F5
:100B140032F87B6800288BD1BA6802BB08F128023E
:100B240007F1300C08F10100944407F1580208F170
:100B3400020852FA80F00CF8101C5FFA88F800F8EA
:100B4400105C75E7BA693AB1786A7B6006F013F80D
:100B54007B6800287FF46CAF1BF0010F09D006F10D
:100B6400280207F13000711C161806F8205CCEB27A
:100B74005EE71BF0040F3FF45BAF08F1280207F1B6
:100B8400300008F1010102EB000808F8105C5FFA7C
:100B940081F84DE7002063E7EC7D000060900000E1
:100BA400FE850000A58600000500000120810000EC
:100BB4001BF80A3054F8239087F83730D7F884307C
:100BC4002BB3D7F888309B4521D2D7F8843033F83B
:100BD4001B8001213A6AFB6A07F137009847002815
:100BE4001ADB0544B8F1000F06D14846FFF7CAFAEC
:100BF40000F101081FFA88F8414648463A6AFB6A40
:100C04009847002808DB05440BF1010B5AE74FF025
:100C14000008DEE7454641E605463FE6014B18601D
:100C2400704700BF0000002080B505460E461746F9
:100C3400984604F05FF9034607F0CCF80446DFF861
:100C44001890424649F8003039463046A84754F8CF
:100C5400090001F007FA00BF080000002DE9F04781
:100C6400058B04462807904611D4022905F0070590
:100C740040F0CC80204606F01EFA78B10138218B72
:100C8400042811D8DFE800F0C2106D859500012911
:100C94000CBF45F0100545F02005258388F3118825
:100CA400BFF36F8FBDE8F08701F0070AAA4500F093
:100CB400A5800027B9463E46A368002B00F0BC80FF
:100CC40041F00801218388F31188BFF36F8FA16875
:100CD400002900F0BA800D68002900F0B680334680
:100CE40052462046D1F80480C047002D76D02B68A8
:100CF40029461D46F0E701F007035A1F012A1BD8B5
:100D0400002221F00701062B276889B2C4E90022DA
:100D140009D13B4603E0628B013262831B68002BDE
:100D2400F9D141F002012046218306F0C4F90028DC
:100D34007AD041F0200176E0042B0AD121F007019A
:100D440089B22046218306F0B6F910B141F02001A2
:100D54002183218B01F0070AAA454FD00027B94609
:100D6400AAE7236921F0070141F00601062DD3F813
:100D7400009021832DD1B9F1000F3FD041F008013B
:100D8400218388F31188BFF36F8F20463949C84700
:100D940029E021F00701236941F0040189B2042DFF
:100DA400D3F804902183E6D000274FF0040A3E468E
:100DB40082E721F00701236941F0050189B2052D7D
:100DC400D3F808902183D6D000274FF0050A3E4679
:100DD40072E700274FF0060A3E466DE72B4687E789
:100DE400B9F1000FD1D1EFF31188202383F31288D6
:100DF400BFF36F8F238B23F008032383258BEA062D
:100E04002ED525F01003238305F007056669218B91
:100E1400002EBFF670AF00232768C4E9003321F029
:100E2400070141F001012183218B4FF0000901F0FA
:100E3400070AAA457FF440AF002F9CD041F0080177
:100E4400218388F31188BFF36F8F002FC8D03D68CA
:100E5400394633465246204606F059F92F46F4E700
:100E6400AB067FF51BAF25F02003238305F00705B0
:100E740000E700BF3F7100002DE9F0470446074634
:100E84004FF00109DFF8508014B93846BDE8F08707
:100E940094FAA4F5B5FA85F509FA05F32E0108EBE1
:100EA40005156FEA030A24EA03042B7B002BEBD01D
:100EB40058F806301B694BB9464473680422284627
:100EC400196807EA0A0706F0FCF9DDE7284698479F
:100ED4000028D9D1F0E700BF6081000030B50022BE
:100EE40089B00F490F4806F000FE002200230024B9
:100EF400CDE906230E230C4DCDE903344FF44072A3
:100F04002846CDE90144094B0949009403F0A0FDAA
:100F14000849284603F026FD204609B030BD00BF2D
:100F24003D0F000058310020A000002029120000CD
:100F340010360020CF860000014803F0B9BC00BF82
:100F44008C0000202DE9F047804621480F4606F02A
:100F54009EF90646002833D000252846BDE8F087D0
:100F6400237B83B12368DB680BB120469847636811
:100F740083F8069023681B69D3B96368042220466A
:100F8400196806F09EF9013610345445E8D3B8F1D7
:100F9400000FE2D0002DDFD02846FFF76DFF054695
:100FA400002FF7D000214FF4A47006F032FDF1E7D2
:100FB400204698470028E0D009FA06F31D43E2E7EB
:100FC40005464FF00109034CDFF80CA0DDE700BF34
:100FD400F8330020608100006081000010B5044CEB
:100FE400237813B9034803F063FC0123237010BD75
:100FF400043600208C00002010B50446094806F091
:1010040046F93CB1084BD3E8EF1F0139C3E8E21FAE
:10101400002AF8D1054806F074FDBDE810400448E4
:1010240003F046BCF0330020F43300205831002094
:101034008C00002000200146034BD3E8EF0FC3E8E7
:10104400E21F002AF9D17047F033002070B5FFF792
:10105400F1FF0546074C084EB44200D370BD6368E7
:101064005B792BB123685B6813B129462046984706
:101074001034F1E7608100006081000010B5044C79
:101084000449204605F0B0FE034B1C6010BD00BFB0
:101094004C000020F8830000E833002000230C4AB1
:1010A40010B513700B4A13600B4A13600B4B0C4AB8
:1010B4001A60FFF7E3FF0B4B0B4918468B4200D332
:1010C40010BD1A1A5C681211013222711033F5E74F
:1010D40005360020F0330020F43300200400002003
:1010E4008F720000608100006081000001464FF4AF
:1010F40000420023014805F098BE00BF4C000020C8
:10110400014805F030BF00BF4C000020024B0146EF
:10111400186805F07CBF00BFE8330020014805F0E3
:10112400B1BF00BF4C00002070B5274B18780028D1
:1011340049D0FFF7E5FF0546002841D1234B244C55
:101144001B68002B19DD06F0CEFC4FF47A72A0FB6D
:10115400020302FB0131C30B43EA4143D4E90020FB
:101164009B1A40F2E9324FEAD13161EB000193421C
:1011740071F1000101D3FFF769FFD4E9003213F5DF
:101184007A7342F10002C4E90032BDE87040FFF70F
:10119400C5BF63685B7923B12368294620461B6871
:1011A40098471034B442F4D32846FFF7AFFF094BF5
:1011B400D3E8EF1F0139C3E8E21F002ABED0F7E7E6
:1011C400054C064EEEE770BD04360020F0330020D7
:1011D40050310020F4330020608100006081000061
:1011E40070B50D4D297861B90120FFF7ABFE0B4CAA
:1011F4000B4EB44206D3FFF797FF0028FBD101231F
:101204002B7070BD63685B791BB1236820469B68B3
:1012140098471034EDE700BF0536002060810000D8
:101224006081000000212DE9F0470846FFF78AFE9F
:10123400044658B340F267684FF0000906F0CAFD4F
:101244001B4B1C4A1B58136033B11B4B1B68092BE7
:1012540002DD1A4803F02CFB0025194FDFF85CA0CF
:1012640044B12046FFF708FE044618B94FF0FF3892
:101274004FF0FF39FFF758FF064628B9B5B9424683
:101284004B46504603F048FB3546E9E74FF0FF383C
:101294004FF0FF39D2E72B689B691BB10022284627
:1012A400114698471035BD42F5D3E8E7054DFAE7F6
:1012B40008000000EC330020F43300208C000020F0
:1012C400608100006081000013B5184805F0DFFF5D
:1012D400174B1B7873B1EFF31184202383F3128827
:1012E400BFF36F8FFFF720FF84F31188BFF36F8F75
:1012F40002B010BD0F4B1B68002BF9D050B900226F
:1013040000230D48CDE900234FF40042002304F0EC
:1013140015F9EDE70928EBD1074806F0F2FB074879
:1013240002B0BDE8104003F0C3BA00BFF43300209C
:1013340005360020EC330020583100208C000020BA
:1013440010B5064B04461B6898472146A060044824
:1013540005F0EAFDBDE81040FFF7B6BF0400002029
:101364004C0000202DE9F04F8FB0C1F34A2804AFA0
:101374000D469146B8607B600C0DB8F1000F65D046
:1013840000264FF0040B4FF00A0A07F11403C7F8C4
:101394000C80C7E907667E620193CDF808B0CDF8EA
:1013A40000A007F11C0332464846F968FFF74CFADF
:1013B400B0F5006F03461ED36C468AB0D9F804100A
:1013C40004AB27481A4658612648C3E9060140F28F
:1013D400FF71196240F201319984234B42F8103FA6
:1013E4004FF4325133462148FFF7BCFFA5462C3752
:1013F400BD46BDE8F08FC0F30A0804F11700184495
:1014040020F0070080083B60FFF770FE68F3532567
:10141400044690B13B6800F11001C7E9083607F1B2
:101424001403F961CDE900A3CDF808B04846104A89
:10143400F96807F11C03FFF707FA68F353252A46F6
:1014440020467B68B96805F05CFFD0E704F117001B
:1014540020F007008008FFF749FE0446EDE700BFCF
:10146400E48600007D870000050000013081000053
:10147400D97200002DE9F04F87B00446DDE9105A17
:10148400DDE912799346984603913FB33B465246B1
:1014940010210020CDF80090CDF81490FFF702F849
:1014A400B0F5006F06461AD30820FFF71FFE60B19F
:1014B4001C4B43611C4B836140F2FF73C3610423E3
:1014C4000374002343748374C37400234FF40252DF
:1014D400164907B0BDE8F04F05F013BF3E4605F1CD
:1014E4001700304420F007008008FFF7FFFD04F0E8
:1014F40007040BF0070BE40044EA8B1444EA462487
:1015040044EA0554054640B13FB13B465246314694
:10151400CDF800901030FEF7C5FF4346224628461A
:101524000399D6E727870000638700003081000015
:10153400014B0360002070470C8400002DE9F84340
:1015440005460C46002900F0C780D1E900870A202F
:101554008E68FFF7CBFD60B16F4BC0E9087643613D
:101564006E4BC0E906380623037400234374837466
:10157400C37400234FF44152694905F0C2FED4E913
:1015840003870A206669FFF7B1FD60B1654BC0E9C6
:1015940008764361614BC0E90638062303740023CF
:1015A40043748374C37400234FF441525C4905F0BF
:1015B400A8FE0820E669FFF799FD50B15A4B436134
:1015C400564BC0E906360423037400234374837422
:1015D400C37400234FF40152514905F092FE266A68
:1015E400002E4DD0D6E900980A20B768FFF77EFD9B
:1015F40060B14E4BC0E908874361484BC0E90639E6
:1016040006230374002343748374C37400234FF4C8
:101614004152434905F075FED6E903980A207769DB
:10162400FFF764FD60B1424BC0E9088743613B4B5F
:10163400C0E9063906230374002343748374C37416
:1016440000234FF44152364905F05BFED6E9068784
:101654000A20366AFFF74AFD60B1364BC0E90876C6
:1016640043612E4BC0E906380623037400234374F8
:101674008374C37400234FF44152294905F041FE99
:101684000820A66AFFF732FD50B12B4B4361234B70
:10169400C0E9063604230374002343748374C374BB
:1016A40000234FF401521E4905F02BFE0820A669C1
:1016B400FFF71CFD50B1214B4361184BC0E90636BE
:1016C40004230374002343748374C37400234FF40A
:1016D4000152134905F015FE012D17D1EFF30586CC
:1016E4000820FFF703FD58B1154B103E4361154B1D
:1016F400C661836104230374002343748374C37435
:1017040000234FF40152064905F0FBFD214628460B
:10171400BDE8F84302F01ABF9C8700000D89000061
:1017240048810000CF87000002880000158800006F
:10173400488800007B880000AE880000C488000050
:10174400F68800001689000030BFFFF7FDBF00BF18
:101754002DE9F04105460B4EDFF82C80324606EBAE
:101764000807CC1B2046094906F0E7F9A0194246B0
:101774000021083C06F0EEF9C5F8A44007F1080082
:10178400BDE8F0810000000004000000608100005A
:10179400054B5A699B689A421FBF044A536843F039
:1017A40080535360704700BFD435002000ED00E043
:1017B40008B50820FFF79AFC48B1654B4361654BB7
:1017C400836103230374002343748374C374002369
:1017D4004FF4C252604905F094FD604B9B6A980136
:1017E40040F1B3800820FFF781FC48B15C4B4361B2
:1017F400584B836103230374002343748374C374B9
:1018040000234FF4C252544905F07BFD1E20534B74
:101814009B6AD90114D50820FFF768FC48B1514BE5
:1018240043614C4B83610323037400234374837427
:10183400C37400234FF4C252474905F062FD1F20D0
:10184400464B9B6ADA0214D50820FFF74FFC48B1D7
:10185400454B43613F4B836103230374002343746B
:101864008374C37400234FF4C2523B4905F049FD0D
:1018740002203A4B9B6A1B0314D50820FFF736FC61
:1018840048B13A4B4361334B836103230374002310
:1018940043748374C37400234FF4C2522E4905F079
:1018A40030FD21202D4B9B6A590314D50820FFF7E6
:1018B4001DFC48B12E4B4361264B83610323037403
:1018C400002343748374C37400234FF4C252224927
:1018D40005F017FD2220214B9B6A9A0314D508209A
:1018E400FFF704FC48B1234B43611A4B8361032384
:1018F4000374002343748374C37400234FF4C252EB
:10190400154905F0FEFC2320144B9B6ADB0314D518
:101914000820FFF7EBFB48B1174B43610D4B836184
:1019240003230374002343748374C37400234FF4A8
:10193400C252094905F0E5FC2420084A936A6FEA7B
:1019440003436FEA1343936208BD1D205FE700BFA2
:1019540028890000258D00004881000000ED00E08A
:10196400448900005B89000079890000A789000090
:10197400C9890000F2890000108A000070B505468C
:1019840008200C46FFF7B2FB48B1684B4361684B33
:10199400836103230374002343748374C374002397
:1019A4004FF4C252634905F0ACFC634B9B6ADA0402
:1019B40040F1A2800820FFF799FB48B15F4B4361D7
:1019C4005B4B836103230374002343748374C374E4
:1019D40000234FF4C252574905F093FC1720564B8D
:1019E4009B6A1B0514D50820FFF780FB48B1544BB4
:1019F40043614F4B83610323037400234374837453
:101A0400C37400234FF4C2524A4905F07AFC1820EB
:101A1400494B9B6A9E0534D50820FFF767FB48B104
:101A2400484B4361424B8361032303740023437493
:101A34008374C37400233F494FF4C25205F061FC20
:101A44003D4B9E6B9B6A19041AD50820FFF74EFB89
:101A540050B13D4B4361364BC0E906360423037451
:101A6400002343748374C37400234FF40152314937
:101A740005F047FC25B1304A936A23F4004393628E
:101A840019202D4B9B6A5A0514D50820FFF72EFB0D
:101A940048B12E4B4361264B836103230374002317
:101AA40043748374C37400234FF4C252214905F074
:101AB40028FC1A20204B9D6A15F480751ED008203E
:101AC400FFF714FB48B1224B4361194B8361032395
:101AD4000374002343748374C37400234FF4C25209
:101AE400144905F00EFC1B20134A936A43F47F4308
:101AF40093620023237070BD162070E79B6A9B04D9
:101B0400F2D50820FFF7F2FA40B1124B4574436155
:101B1400074B857483610323C574037400234FF456
:101B2400C252044905F0EDFB1C20DDE73F8A0000AA
:101B3400318D00004881000000ED00E0598A00006A
:101B44006E8A0000858A0000A28A0000BB8A000019
:101B5400DA8A0000F68A000070B5054608200C46B3
:101B6400FFF7C4FA48B1614B4361614B83610323BE
:101B74000374002343748374C37400234FF4C25268
:101B84005C4905F0BEFB5C4B9B6AD80640F1AC8017
:101B94000820FFF7ABFA48B1584B4361544B8361BB
:101BA40003230374002343748374C37400234FF426
:101BB400C252504905F0A5FB11204F4B9B6A1907EF
:101BC40014D50820FFF792FA48B14D4B4361484BB6
:101BD400836103230374002343748374C374002355
:101BE4004FF4C252434905F08CFB1220424B9B6ACE
:101BF4009A0734D50820FFF779FA48B1414B43617D
:101C04003B4B836103230374002343748374C374C1
:101C140000234FF4C252374905F073FB364B5E6B19
:101C24009B6A1B061AD50820FFF760FA50B1364BA1
:101C340043612F4BC0E90636042303740023437425
:101C44008374C37400234FF401522A4905F059FBED
:101C540025B1294A936A23F0800393621320264B0B
:101C64009B6ADE0714D50820FFF740FA48B1274BDA
:101C740043611F4B83610323037400234374837400
:101C8400C37400234FF4C2521A4905F03AFB1420DE
:101C9400194B9B6A9D0614D50820FFF727FA48B113
:101CA4001B4B4361124B836103230374002343746E
:101CB4008374C37400234FF4C2520E4905F021FB10
:101CC40015200D4B9A6AD10658BF9A6A9A6A9206F1
:101CD40042BF5A6A22F400525A629A6A42F0FF02E0
:101CE4009A620023237070BD102066E7298B0000E0
:101CF4003B8D00004881000000ED00E0438B0000B4
:101D04006E8A00007A8B0000968B0000B08B000076
:101D1400F68A00002DE9F04F8DB09A46A34B814618
:101D2400D3F804B00D469046002600AFCBF3080468
:101D340086F31188BFF36F8F02F07F43B3F17F4FB7
:101D440015D102F00C00082825D1FFF7CFF940B1D6
:101D5400974B46744361974B867483610323C6741F
:101D6400037400234FF4C252934905F0CAFA0026C3
:101D740035460023FB70E31E092B00F2F480DFE8F4
:101D840013F01000DB00DE00D700F200F200F200D6
:101D9400F200F200E10012F0080F04BF4D460126E4
:101DA400E7E70820FFF7A2F948B1844B4361844B6D
:101DB400836103230374002343748374C3744FF057
:101DC400000B00234FF4C2527B4905F09AFA774B7B
:101DD40087F803B0DC6A14F0020417D00820FFF778
:101DE40085F958B1774B80F811B04361744B80F892
:101DF40012B08361032380F813B0037400234FF4FB
:101E0400C2526D4905F07DFA00245FE0DA6A002AC7
:101E14000EDA0820FFF76AF90028EFD06A4B447401
:101E24004361674B847483610323C4740374E5E7DB
:101E3400DB6A5B00E8D50820FFF758F940B1634B33
:101E4400447443615E4B847483610323C4740374D8
:101E540000234FF4C252584905F053FA534BA96971
:101E64005A6942F480725A61BFF34F8FBFF36F8F88
:101E74005A6931F8021C22F480725A61BFF34F8F01
:101E8400BFF36F8F4DF60272914208D09A6AD2B2B4
:101E9400002A3FD00120F91CFFF75EFE4AE008202B
:101EA4002C68FFF723F950B1494B4361444BC0E917
:101EB400063404230374002343748374C37400231B
:101EC4004FF401523C4905F01CFA2C68FB78EBB93D
:101ED4003A1D05F1200C134628686968083503C3C8
:101EE40065451A46F7D1C7E909A93B6AC7F82C80AA
:101EF400002E56D0C3F3080222B96FEA53236FEAC7
:101F040043233B622046391DFFF718FB3437BD4697
:101F1400BDE8F08F9A6A12F47F4F04D00120F91CB7
:101F2400FFF72CFD06E09B6AB3F5803FFFF46CAF2E
:101F3400FFF73EFC0446C9E70020F91CACE700208B
:101F4400F91CEDE70820FFF7D1F800283FF456AF5D
:101F5400204B4361204B83610323037400234374A8
:101F64008374C3744AE71D4A1BF4F87FEB468AB0B6
:101F74001B4B18BF13466A461A49103C51611A4953
:101F84001462C2E9061340F201339384174B42F8FA
:101F9400103F00234FF431510748FFF7E3F9DD46C2
:101FA40032E723F4FF7323F00103AAE700ED00E016
:101FB400018C0000578D000048810000308C000027
:101FC4004C8D00004B8C0000708C0000828C000053
:101FD400A58C0000C58C0000178D0000E88B000064
:101FE400D38B0000ED8C0000048D0000050000017F
:101FF400064B5A6942F010025A615A6942F48062EF
:102004005A615A6922F008025A61704700ED00E0F3
:10201400EFF30880EFF3098101B506B42DE9F00F61
:102024006B467246FFF776FE0AB001BD0B4880F39B
:10203400088801F013FC202080F3118808484FF42D
:102044000061401880F30988EFF3148002210843EB
:1020540080F31488BFF36F8F00F0B0F8504600206F
:1020640010390020084B9B6883420BD1EFF30583A2
:1020740043B1064B5A6842F080525A605A6A22F4BD
:1020840000425A6202F03CBFD435002000ED00E06B
:1020940001B505F02CFCBDE8014019498A684FF0F0
:1020A40030001044EFF3098C80E8F01F202080F307
:1020B4001288BFF36F8F134F4FF000664A698A602E
:1020C4003E60D2F8A400104C2060D2F8A80000238F
:1020D400C2F8A83080F3118802F1300090E8F01FB4
:1020E4008CF3098802F1000004B505F04CF9BDE851
:1020F400044001B505F0FAFBBDE80140704700005B
:10210400D435002004ED00E0FC3300201EF0040F61
:102114000CBFEFF30880EFF30980816911F8021C0A
:102124000229FFD001B5EFF3098106B42DE9F00FC0
:102134006946724605F002F90AB001BD40B20028B2
:1021440007DB01234109034A00F01F00834042F8E2
:102154002130704700E100E0054B420953F822208A
:10216400012300F01F0003FA00F01040704700BF85
:1021740000E100E040B2002801F10101ACBF00F130
:102184006040064B4FEA4111C9B2ABBF00F5614054
:1021940000F00F0080F800131954704714ED00E0AC
:1021A400044B054A23F07F039360BFF34F8FBFF3C3
:1021B4006F8F70470000000000ED00E008B5FFF7E6
:1021C400EFFF0B4AD2F8883023F47003C2F888304A
:1021D400EFF3148323F0040383F31488BFF36F8FA6
:1021E40002F0B6FA02F0D2FF00F04AF802F0F4FA74
:1021F40000ED00E042F8203C009B0B4942F81C3CF7
:10220400019B21F0010142F8183C029B42F8081C92
:1022140042F8143C4FF0807342F8043C0023203A07
:102224000265C0F8A83070472D0C0000044608B5BC
:102234000E4B15469860D0F8A4200D4B0E461A603C
:1022440005F054FBD4F8943083F30B882C4686F3C2
:1022540009880020034B98472046002100220023D0
:10226400014C20479B7300002D0C0000D435002046
:10227400FC3300201022014B1A61704700ED00E08E
:10228400002320210348C2180133452B82F8001390
:10229400F9D1704700E100E008B505F04BF8EFF321
:1022A4000583074A103B02EBC30152F83300496827
:1022B400884705F040F8BDE80840FFF769BA00BF59
:1022C400AC7E00001FB5094C094A23460121094888
:1022D40000F040F900230393074B0121E41A01A8FD
:1022E4000193029400F040F904B010BD00000720EF
:1022F400000000200C840000A000002010B50C7A1F
:102304000B6804F01F0223F01F031A43CB6864090F
:1023140023F01F03054943EA440343F00103C1F8D2
:102324009800C1F89C20C1F8A03010BD00ED00E079
:1023340010B504460820FEF7D9FE50B1094B43619D
:10234400094BC0E9063404230374002343748374E3
:10235400C37400234FF40152044904F0D2FF6FF018
:10236400150010BD638D0000DB8D0000408100006E
:1023740008B5074BD3F89030C3F30723013B9842C9
:1023840003D9BDE80840FFF7D3BFFFF7B7FF08BD87
:1023940000ED00E02DE9F04F8946144606464FF063
:1023A40000085C4D85B0C8453DDAD6F804A0BAF102
:1023B400000F5AD0BAF11F0F1ED91AF01F0F1BD1EC
:1023C400D6F800B01BF01F0F16D1584605F027F8B9
:1023D40007460AEB0B00013805F021F8874226D0A6
:1023E4006FF015070820FEF781FEA0B14A4B436148
:1023F4004A4BC0E9063708E00820FEF777FE50B1E3
:10240400474B4361454BC0E906380423037400235A
:1024140043748374C37400234FF40152414904F09C
:1024240070FF6FF01504204605B0BDE8F08F17F17A
:10243400160FD7D0BC42D5DDC5F89870D5F89C10DE
:10244400C5F89870D5F8A03021F01F0143F01F0B98
:10245400D6E900321A44994202F1FF3A1DD1D3451C
:1024640007D13146F8B204F0E3FF08F101080C3655
:1024740099E73146C5F89870D5F89C3022F01F02D0
:1024840003F01F031343C5F89C30E0B204F0D0FFFF
:1024940010F1160FC5D0441CE7E7C5F89870D5F8BD
:1024A400A020013B23F01F0302F01F021343D34576
:1024B4003146E0B2C5F8A030E8D004F0B9FF10F11D
:1024C400160FAED0C5F89870D5F89C209DF808304A
:1024D4000BF1FF3B62F304038DF80830D5F8A0300C
:1024E4009DF808205B0863F347128DF80820D6E9AD
:1024F40000321344009323F01F035B44A3EB0A034D
:10250400013023F01F036946C0B20393FFF730FF85
:10251400BEE700BF00ED00E0B48D0000F48D0000C4
:102524008D8D0000408100000522044BC3F89420E7
:10253400BFF34F8FBFF36F8F704700BF00ED00E014
:10254400BFF35F8F0022024BC3F89420704700BF93
:1025540000ED00E010B5034C2278FFF71BFF20705C
:1025640010BD00BF063600202DE9F74F294D8A46DD
:1025740006464FF00008AB46274FD0451BDAD6F885
:102584000490B9F1000F3FD031680846019104F07E
:1025940046FF0199044609EB0100013804F03FFFAE
:1025A40084424FF014021D4B08D002FB08F36FF075
:1025B40015024BF8032003B0BDE8F08F14F1160F99
:1025C4002C60F8D01978A142F5DD02FB08B0C7F8F9
:1025D4009840C7F89840D7F89C4000F10801007B68
:1025E40064F304000871D7F8A0000C79400860F384
:1025F40047140C71D7F89C1021F01F016960D7F8BB
:10260400A01021F01F01296108F1010814350C36CE
:10261400B3E700BF0034002000ED00E006360020E0
:10262400F0B54149414CD1F890302568C3F30723F4
:102634009D4287B075D80020FFF782FF3C4BC1F85C
:10264400C030854216D13B4C01A82570FEF770FFBF
:1026540000250646384FAE4213D100202378324974
:10266400D1F89020C2F30722934254DBFFF75CFFBA
:1026740000202FE0616801EB0011FFF73FFE0130FD
:10268400DFE70199280101EB0513DA683A40B2F556
:10269400001F21D0B2F5800F2BD0B2F5801F38D1A6
:1026A4005A689B680958013B22F01F00034401202B
:1026B400844623F01F0340EA4C10CDE902218DF833
:1026C400100002A920780593FFF752FE00281DDAB6
:1026D4006FF0150007B0F0BD5A689B680958013BBC
:1026E40022F01F0003444FF0020C012023F01F03CB
:1026F400E1E75A689B680958013B22F01F00034434
:102704004FF0000C062023F01F03D4E72378013395
:10271400237001359FE7C1F89830C1F8A000013358
:102724009EE74FF0FF30D5E700ED00E0188400008D
:10273400AAFF4400063600200000F0FF08B5024B53
:102744001B689847002008BD14340020034B044A3A
:102754001860937843F00203937070471434002098
:102764000800002008B50649064821F00701C1F118
:10277400005202F5E02204F0A6F9002008BD00BFD3
:102784005746002018340020054B03EB8000D0F896
:10279400003223F0E04343F04053C0F80032704766
:1027A40000258450052370B5144D154E2C78013442
:1027B400B4FBF3F303EB8303E41A04F0ABFF114A15
:1027C400137823B156F82430C01A072814D94FF0CF
:1027D4005023D3F8141141B10021C3F81411D3F8D4
:1027E40014312C700CB9012313702C7804F092FF6F
:1027F40046F82400012070BD0020FCE708360020C4
:10280400243400200736002010B50124154B164946
:10281400C3F8004502230020C1F8D036FFF7B4FF07
:102824002046FFF7B1FF4FF47F030D20D3F8202C8F
:10283400C2F3441302F01F021B0182F01002603B3A
:10284400283200FB02339B0943F48073C1F8C4357A
:10285400C1F80447C1F80449C1F8004BBDE8104071
:1028640000F078B8001000500040005007B50DF19A
:10287400070001F017F90F4B984218D14FF480620A
:102884000D4B0E49C3F8B8254FF40062C3F83C253C
:102894009DF8070004F04AFF9DF80700084904F07A
:1028A40040FF01209DF80730984001F0F5F803B08F
:1028B4005DF804FB0000AD0B00A002502CA00250F8
:1028C40028A1025048B1054B054A1B68B3FBF2F33B
:1028D4005843044B43F00103184770471800002085
:1028E40040420F00608100004FF47F032DE9F04166
:1028F400D3F830210646072A0D46D3F8343120D1C7
:10290400023B032B02D8124AD35CD3B14FF05024BC
:102914004FF0010800270520C4F81886C4F814767F
:1029240004F0FDFE4046C4F8148604F0F8FEC4F832
:102934001476C4F8187630462B46BDE8F0410021E1
:1029440018474FF050230022C3F81426F3E700BFC2
:102954002B8E00000149024804F0FCBB44840000B3
:1029640038340020084B70B5C31A0D4607499B1034
:10297400044659434022064804F089FD2B4601468B
:102984002046BDE87040184768340020B76DDBB6B8
:102994002C7E0000402373B50B4C0093041B0B46A4
:1029A4000D460A49A41061430646094A094804F041
:1029B40099FD011E05DA30462B4602B0BDE8704091
:1029C400184702B070BD00BF68340020B76DDBB695
:1029D400517500002C7E00002DE9F84300220121EE
:1029E40006460520FFF7C6FB144801F0DBF8144B3C
:1029F40098421FD14FF0502349F6A532C3F85C2505
:102A040001F0E0F800244FF01C090C27DFF83480B3
:102A14003569414609FB045004F09CFB002807DBA0
:102A2400012307FB04551C44042CAB67F0D10020A0
:102A3400BDE8F8836FF00400FAE700BF792B0000CB
:102A44000000AD0B508400007FB500230393059371
:102A540001ABCDE901330123074A049301AB04F030
:102A64006EFD002805DB4FF48042002301A801F02D
:102A740053FF07B05DF804FB8775000010B5EFF352
:102A84001184202383F31288BFF36F8F074A1368DE
:102A940023F00201DB07116002D4012004F052FE8E
:102AA40084F31188BFF36F8F10BD00BF0835002079
:102AB4000C22104B014602FB0033002030B4D3E952
:102AC4001C521867EFF31180202484F31288BFF39B
:102AD4006F8F9C6F04F0C00444F002049C6780F381
:102AE4001188BFF36F8F1DB12B4630BC02481847C5
:102AF40030BC7047683400202C7E000010B4EFF323
:102B04001182202383F31288BFF36F8F1748016863
:102B140041F002040460C80707D482F31188BFF3AC
:102B24006F8F012010BC01F065B84FF05021D1F82F
:102B34000C04D1F80C14C907EFD5EFF3118083F31B
:102B44001288BFF36F8F0A498B6F03F0C00343F001
:102B540002038B6780F31188BFF36F8F82F31188B0
:102B6400BFF36F8F002010BCFFF7A2BF0835002011
:102B740068340020092813D8DFE800F00510121289
:102B8400121212120E0C074B986F10F0070007D1A7
:102B9400FFF78EBF0220FBE70320F9E70120F7E7E8
:102BA400704700BF683400202DE9F0410122074638
:102BB4003649D1E8EF3FC1E8E02F0028F9D133B915
:102BC400334934484B60CB608A6004F0D6FA7B1EEC
:102BD400012B2BD8012F07D14FF05023D3F81C34ED
:102BE40003F00303022B21D004F078FE0546F8B964
:102BF400294B1B78E3B14FF0502302220646C3F859
:102C040008234FF05024DFF89480D4F81824D4F823
:102C14001834D20315D503F00303022B01D0012F7E
:102C24000FD16DB386F31188BFF36F8FBDE8F081C8
:102C3400EFF31186202383F31288BFF36F8F0125EE
:102C4400DFE7C5B1304604F0CAFBD4F81835DBB26F
:102C5400012BDAD1D4F80421002AD6D00022C4F8FA
:102C64000421D4F804210222C4F818252022C8F82B
:102C74008021A360C9E70021212004F0CAFEE4E713
:102C84004FF050230222C3F80423CFE7643400201A
:102C940054340020843400200B36002000E100E08E
:102CA40008B5074804F0D5FD38B10648FFF74EFDD6
:102CB4000448FDF7B3FF002008BD6FF01200FBE7E6
:102CC4008C7E0000CD2C00000A2838B50446074D40
:102CD40004D1AB680D2128465B689847AB6803486C
:102CE4005B68E1B29847204638BD00BF8C7E000087
:102CF400F0B51646426801F01F04107B87B044EA21
:102D040040141069002871D0B6F5001F02F11005B7
:102D140006D12146284604F095FD002007B0F0BDF9
:102D24000027B6F5800F01A80197476039D1B3F1A8
:102D3400007F14BF052304238DF804300023CDE95C
:102D44000403039393680DF1030723FA01F111F0CF
:102D540001013DD1B6F1A07F3AD104F01F0362090D
:102D640003F1800328D0012A46D1254A52F82330A2
:102D7400DB072DD43A462146284601F045FA214B7B
:102D840098421BD002972146284603AA01F0F4F882
:102D94001D4B98422DD101222146284601F08CFA80
:102DA400BBE7B3F1C06F05D0B3F1007F14BF0123BB
:102DB4000223C1E70323BFE7144AD7E7394628466D
:102DC40001F072FA104B9842DCD06FF00B00A5E7CB
:102DD4003A462146284601F017FA0B4B9842D2D1C5
:102DE40028469DF8031001F057FACCE76FF08500F0
:102DF40094E76FF0150091E751F82330FFDE00BF30
:102E0400002884500400AD0B0000AD0B0025845055
:102E14004209034670B502D0012A17D070BD0D4E89
:102E2400326951680029F9D0012503F01F030C68A9
:102E34009D400029F2D08A682A4002D030464B686F
:102E440098472CB1236821461C46F2E7024EE7E777
:102E54002346F8E76C7E00004C7E000038B54568D8
:102E64002B69B3B11035284601F00CFA044680B939
:102E74000146284601F0E2F9084B98420BD122465C
:102E84002846074901F0BAF9224605210D20FFF72B
:102E940071F9002038BD6FF00400FBE70000AD0BB2
:102EA400152E00002DE9F04340F206354668D006A1
:102EB40048BF0320337B02EA050558BFC2F3401024
:102EC40087B001F01F07B5F5837F144647EA43171F
:102ED4008DF8030043D00FD8062D18D007D8B5B10C
:102EE400022D3ED06FF0150007B0BDE8F083B5F5B4
:102EF400807FF7D101250AE040F20222954232D0C8
:102F0400B5F5407F31D0B5F5007FEBD10225220322
:102F14002DD5012372688B409360326982BB07F020
:102F24001F037F092AD0012F77D13E4A02EB830287
:102F340084F48033D2F80012C3F30043C4F3404452
:102F440044EA430421F4706144EA800421F00F014F
:102F540044EA05230B43C2F800320020C4E70725E6
:102F6400D5E70425D3E70525D1E70325CFE7630398
:102F740041BF012372688B40D360CEE72A4AD5E76C
:102F84001036394630460DF1020201F03DF914F4D1
:102F9400403F80460CD13946304604F051FC234B67
:102FA4009845DAD130469DF8021001F075F9D4E75E
:102FB4004FF0000901AB3946304603AACDE9043984
:102FC400CDE90199CDF80C9000F0D6FF174B98424B
:102FD40088D114F4003315D09DF8033084F4803480
:102FE400C4F300448DF80E3039464B46304603AAEC
:102FF4008DF80C508DF80D4001F07EF80B4B984283
:10300400CDD06FE7CDE9043339460DF103033046E3
:1030140003AA039300F0B0FFF0E7803352F82330A3
:10302400FFDE00BF00288450002584500000AD0B53
:10303400036803F01F025B09026004D0012B0348FC
:1030440018BF002070470248704700BF0028845012
:10305400002584502DE9F04F1546834640F2FF18B1
:10306400DFF8CC91DFF8CCA185B000EB81015945A4
:1030740003D1002005B0BDE8F08FDBF80030C3F3C6
:10308400C322082AC3F3080400F2CC801B0E444573
:1030940008BF4FF0FF3419F80270222B00F2C580EC
:1030A400DFE803F0122129412C3241C3C3C3C348D2
:1030B40075787B7E8184878A8D90939FA2A5C3C3F4
:1030C400C3A8AFB2B5B8BB00C5F80C45621C0FD09D
:1030D400012603A80394FFF7ABFF039B06FA03F34F
:1030E400836032462FE0661CC5F8144540F0988092
:1030F4000BF1040BBBE7C5F80845E7E7601CC5F80E
:103104000845F5D0002604E0C5F80C45621CEFD054
:10311400012603A80394FFF78BFF0122039B02FA05
:1031240003F3C3600FE0C5F81045631CE0D000262C
:10313400002208E0C5F80845002FF6D1631CD7D05B
:10314400002606273246DBF80030039403F40040DF
:10315400002818BF002203A818BF0126019300927B
:10316400FFF766FF039C019B00EB8400D0F800424C
:10317400C3F3412C009A3B0243EA8C03134304EA51
:103184000A04234343EA4603C0F80032B0E7C5F813
:103194000C45D1E7C5F86445B8E7C5F86445C4E70C
:1031A400C5F86845B2E7C5F86845BEE7C5F86C459B
:1031B400BBE7C5F87045A9E7C5F86045A6E7C5F8BB
:1031C4004045A3E7C5F84445AFE7C5F86045661C2C
:1031D400DBF800308CD0C3F30043002B7FF478AFCE
:1031E40096E7C5F86445F2E7C5F86845EFE7C5F822
:1031F4006C45ECE7C5F82445601C3FF479AF012623
:1032040096E7C5F8284561E7C5F83045F4E7C5F801
:103214003445F1E7C5F83845EEE7C5F83C4555E7D0
:1032240000265EE76FF0150024E76FF0850021E7C4
:10323400818E0000F0F0FCFF2DE9F04104460D46BC
:10324400476804F04BFB4FF0200888B9264B1B78E5
:1032540073B16426606804F011FAF0B9012004F037
:103264005EFA013EF6D10021212004F0D2FBF0E702
:10327400EFF31186314688F31288BFF36F8F6068CD
:1032840004F0FCF9A8B986F31188BFF36F8FEFE758
:1032940086F31188BFF36F8FE5E7EFF311863146AC
:1032A40088F31288BFF36F8F606804F0E7F9002891
:1032B400EED0FB6900201D706368FA691B68C3F8CF
:1032C40044250122C3F84825C3F82001D3F820413E
:1032D400C3F85801D3F858019A6081F31188BFF3F9
:1032E4006F8FBDE8F08100BF0B360020F8B50546AE
:1032F400002201210820FEF73DFF0820FEF71EFFF3
:103304006C680121E06804F0EAF96B6819682369C4
:10331400C1F82435A27D637D207D1343228B0243B3
:103324001343C1F86C356E68D6E9004313F001030A
:1033340059D02F6907F1080000F0B4FB374B9842CD
:1033440016D00820FDF7D2FE48B1354B4361354B0A
:10335400836103230374002343748374C3740023BD
:103364004FF4C252304903F0CCFF6FF00400F8BDB3
:10337400387A04F10C0204F5907104F0DCF9387A1F
:10338400012707FA00F000F087FB0823C4F8003592
:10339400F369C4F844350023C4F84835A760D4F869
:1033A4005831002BFBD00026C4F800656B68314609
:1033B400D86804F094F96D683146E8682C6804F024
:1033C4008EF90823C4F800352A7A52B92B6AC4F856
:1033D40034350123C4F83835C4F81021D4F8102149
:1033E40023600020C3E70822C4F80025F269C4F86A
:1033F4004425C4F848350123A360D4F82031002BB8
:10340400FBD00023C4F82031D4F820310123E36039
:103414004FF48073C4F80433C1E700BF0000AD0B60
:103424008A8E0000AD8E0000588100000123834085
:1034340070B5DC430B4AD2E8EF1F01EA0405C2E889
:10344400E65F002EF7D14FF4803282400648C0F880
:103454000823BFF35F8FBFF36F8F0B4214BF0120AC
:10346400002070BD343500200050015070B40E4966
:1034740022F07F46D1E90034D01AC31844F1000485
:10348400C1E90034A6F50013B3F5400F09D2074B88
:103494001B681A0A1B069C19054B42F10005C3E977
:1034A400004570BC01F04CBFA83100203835002025
:1034B400B0310020D9B101230D4A8340D2E8EFCFC7
:1034C4004CEA030CC2E8E1CF0029F7D14FF4803372
:1034D400084A8340C2F80433074BD3E8AF3FC340E4
:1034E400DB0742BF4FF40012044BC3F800217047BE
:1034F40034350020005001503035002000E100E058
:103504000D4B1868010A0006BFF35F8F0B4BD3F80D
:103514000435181841F10001B3F5801F0AD2084B95
:10352400D3E90023904271EB030303D210F18070BE
:1035340041F10001704700BF3835002000500150B0
:10354400B03100202DE9F04F85B016461F460446E1
:103554009DF840A0FFF76AFF0190FFF7D1FFB0424A
:1035640071EB070352D23B4B301A67EB01019842CF
:1035740071F100014DD2384B03EB0413D3E902235C
:103584009F4208BF964258D04FF48038334908FA16
:1035940004F8204626F07F4BC1F8488304F0AEF8C7
:1035A4004FF00309584604F15005AD00ADB205F1E2
:1035B400502504F5A87305F580350293029A20F08E
:1035C4007F4341F82230C1F84483D1F80435244ABA
:1035D400C01A033820F07F4090422ED9286868B181
:1035E400D1F80435A3EB0B0020F07F40B0F5000FB9
:1035F400039322D9204604F081F8039BBAF1000F0B
:1036040007D109EB030009F10109D7E7BAF1000F6B
:1036140009D06FF0150520460199FFF74BFF2846A6
:1036240005B0BDE8F08F01230E4AA340D2E8EF0FA6
:103634001843C2E8E10F0029F8D107490E98230185
:10364400C8500F9B01EB04120025C2E902675360C6
:10365400E1E700BF010080009831002000500150D4
:10366400FDFF7F00303500207FB500254FF0FF308F
:103674004FF0FF31194C1A4B0226C4F80833C4F832
:103684004833184BC4F80855C3E902014FF480339A
:103694004FF40012C4F80433134B0121C4F804633B
:1036A4001520C3F880212A46FEF764FD1520FEF795
:1036B40045FD01230D4AA360236013600C4B0D4AA2
:1036C400009328460023CDE90155FFF73BFF304620
:1036D400FFF76AFA284604B070BD00BF00500150DD
:1036E40003000F009831002000E100E03435002091
:1036F40071340000FFFF7F002DE9F7432E4BD3F810
:10370400042390070BD5D3F8042142B10022C3F857
:1037140004212A4AD3F80431136801331360264A7A
:10372400D2F80433D90326D5254BD3E8EF1F21F073
:103734000100C3E8E40F002CF7D1CB0702D4D2F880
:103744004031C3B100251C4CC4F84051D4F8403179
:10375400FFF7D6FEEFF31182202383F31288BFF321
:103764006F8F184BD3E90267B042B94106D282F396
:103774001188BFF36F8F03B0BDE8F0834FF0FF38BB
:10378400D3E900104FF0FF391D60C3E902894FF4FB
:103794008033C4F84833C4F84051D4F8403182F33C
:1037A4001188BFF36F8F0029E5D0009032463B4665
:1037B40028468847DFE700BF005001503835002015
:1037C400303500209831002030B5431C124C85B0B0
:1037D40005D08442A8BF0446012CB8BF0124FFF7DA
:1037E4008FFE0E4B0C4DD3E90013401AB0F5000FB9
:1037F4000FD22218AA4228BF2A460020521808498C
:10380400CDE90100009143F10003FFF79BFE05B0F1
:1038140030BD2A46F1E700BFFFFF7F00A83100203A
:103824007134000008B5FFF76BFE024B1B68C01A29
:1038340008BD00BFA83100204FF47F03D3F8302126
:10384400D3F83431072A05D1023B032B02D8024AAC
:10385400D05C704700207047E58E000008B5FFF784
:10386400EBFF58B1644BD3F8202A3AB90D21C3F8C1
:10387400201A0121C3F81C19C3F81C290022D30003
:1038840003F57F03D3F80013013107D0D3F80013F5
:103894000132D3F80433202A0B60F0D1FFF7CCFFB8
:1038A400002840F0A080FFF7C7FF40B1534B544AB3
:1038B400C3F830254FF050230122C3F858254FF4A4
:1038C4007F03D3F83021D3F83431072A09D1023BDE
:1038D400032B06D84B4AD35C1BB100224A4BC3F8D6
:1038E4004C25FFF7A9FF50B14FF05023D3F8002423
:1038F400D10742BF0022C3F81421C3F818214FF4A2
:103904007F03D3F83021D3F83431072A09D14FF09B
:103914005023D3F80024D20744BF6FF00102C3F848
:103924000024FFF789FF18B16522334BC3F80C2735
:103934004FF47F03D3F83021D3F83431072A16D15A
:10394400314BD3F82034002B11DA4FF050230322EB
:10395400C3F8182501229A60D3F80421002AFBD069
:103964000022C3F804210122DA60C3F818254FF4B9
:103974007F03D3F83021D3F83431072A23D1023B13
:10398400032B02D8214AD35CEBB17E221A4B1B498C
:10399400C3F80C27C3F83C297F231D4AC2F8183109
:1039A4000023C1F8043EC1F8083E01F54821C1F8DE
:1039B4001031C2F82431C2F82C3102F5FF1202F59D
:1039C4008052C2F8A032134AD2F88C3043F44063D8
:1039D400C2F88C30104A114B1168C3F84415D269EF
:1039E400C3F84C2508BD2922034BC3F80C27032236
:1039F400C3F83C2757E700BF004000500090035035
:103A04004400EFBEE18E000000200350DD8E000074
:103A14000020005000ED00E00080FF000060005036
:103A240030B50468ACB1B4FA84F30122C3F11F03C6
:103A3400DBB29A4024EA0202D0E8EF5FA54204D147
:103A4400C0E8EC2FBCF1000FF6D1EAD102480B70AC
:103A540030BD0248FCE700BF0000AD0B0200AD0B17
:103A640010B50368CB40DB0710D401238B400268F8
:103A740043EA0201D0E8EF4F944204D1C0E8EC1FBE
:103A8400BCF1000FF6D1F2D1014810BD0148FCE7AA
:103A94000000AD0B0400AD0B014BC3F804057047E7
:103AA400007001500146014800F044B91C00002098
:103AB4000328F7B506462ED84FF05021364B374A27
:103AC40033F81000925DC1F8080300250A4401216F
:103AD40042F210744FF05027314B116033F8163016
:103AE4008E4203F150231D601B688DF8071008BF38
:103AF4000DF10705022E32D0032E40D0012E1CD02A
:103B0400D7F8183403F480333DB923B1012003F00E
:103B140006FE013CF0D103B0F0BDD7F8182402F042
:103B240003022A70002BF6D09DF807000128F2D179
:103B340003F0F5FD013CDDD1EDE7D7F80C3403F4D7
:103B440080333DB9002BE6D0012003F0E8FD013CB1
:103B5400F3D1E0E7D7F80C2402F00102E1E7D7F84B
:103B64005C3403F480333DB9002BD4D0012003F03E
:103B7400D6FD013CF3D1CEE7D7F85C24ECE7D7F8C7
:103B84005434DB03C7D5002DCED1012003F0C7FD8B
:103B9400013CF4D1BFE700BFE0850000E98E0000DE
:103BA400D8850000044B1A7922B9012218601A71D1
:103BB40002487047024870473C3500200000AD0BB6
:103BC4000C00AD0B08B50A4B1B6833B10520FEF79A
:103BD400C3FA10B90520FEF7B1FA4FF050230122C1
:103BE400C3F81825C3F81425C3F8802508BD00BF01
:103BF4003C35002010B5032845D8DFE800F0180252
:103C0400554F00224FF480730121002003F150230B
:103C140018601C68012402F150221460284A1268BA
:103C2400002A47D04FF05023C3F804132BE04FF081
:103C34005023D3F81814D3F81824C90312D502F06A
:103C44000303022B05D0012B02D00020FFF730FF25
:103C540001234FF050220221C2F8183508224FF4F4
:103C64008273D2E7D3F81424D207F1D5D3F81C24F5
:103C740002F00302013A012AE7D8114A12681AB184
:103C84000222C3F8042310BDD3F80421002AFBD078
:103C94000022C3F80421D3F80431F4E718224FF4C6
:103CA40090734FF48071B0E720224FF492734FF475
:103CB4000071AAE71A68002AFCD018601B68E2E7C2
:103CC4003C350020F8B54FF0502301250026D3F8E9
:103CD4000443174F04B9F8BDB4FA84F0C0F11F00CF
:103CE400830003F580739BB203F1502305FA00F2BD
:103CF400196892B224EA02040029EBD01E601B6802
:103D04004FF05023022AC3F808230DD1D3F8181416
:103D1400D3F8181401F00301012905D1C3F81825BB
:103D2400C3F804239960D5E73B68C0B29847D1E74C
:103D34003C3500200079024B03EB0010FFF770BE06
:103D440024000020036803F01F025B09026004D012
:103D5400012B034818BF002070470248704700BF7A
:103D64000028845000258450034A4309D35C00F0A2
:103D74001F001844C0B27047ED8E000070B50546B0
:103D8400FFF7F2FF0C4C083034F810300E46DA0519
:103D940008D5C3F3432304EBC302284654F8333055
:103DA40052689847A3682BB131462846E268BDE8BB
:103DB4007040184770BD00BF4435002008B5FFF7B8
:103DC400D3FF034B083033F81000400B08BD00BF8D
:103DD4004435002008B5FFF7C7FF034B083033F81C
:103DE4001000C0F3400008BD4435002008B5FFF7BB
:103DF400BBFF034B083033F81000C0F3401008BD7C
:103E040044350020034611F0010010B5CCB20BD1AB
:103E1400A207C4F340000DD5074A106A5860106227
:103E2400003818BF012005E004490A6A1A600A62D2
:103E3400002AEDD010BD00BF002884500025845016
:103E440010B5FFF791FF124A083032F81030D90547
:103E54001CD5C3F3432123F4F85322F81030002077
:103E640002F10E0434F8023F13F4807F03D0C3F34D
:103E7400432399420AD001303028F3D1002342F879
:103E840031300448BDE81040FFF7EABD10BD00BF63
:103E940044350020BC350020F0B50446002001253F
:103EA400064601F1A05101F55151104A89008A4298
:103EB4000BD10F4BD3F87C2132B10022C3F87C2103
:103EC400D3F87C3140F00040F0BD02F13043A3F55B
:103ED40051439B0805FA03F31C4204D0176817B139
:103EE4001660176818430432E1E700BF00D10050A0
:103EF40000D00050F7B506460846FFF735FF1A4FC5
:103F040000F1080537F815300C46DB072AD5304692
:103F140003F072FC2046FFF769FF58B12046FFF713
:103F24004DFF0022316800B201EB8003C3F8102575
:103F3400C3F810252046FFF783FF002301A827F8C4
:103F440015300194FFF7FEFE019B00EB8300D0F8CF
:103F54000022064B134043F00203C0F80032044829
:103F640003B0F0BD0348FBE744350020F0F0FCFF4C
:103F74000000AD0B0400AD0B2DE9F043164680465E
:103F840085B00846FFF7F0FE0C463168054609B3D4
:103F94002046FFF71FFF18B12046FFF727FF10BB8D
:103FA40000230DF10F02CDE900338DF80E308DF8AA
:103FB4000F3020460B460DF10E0103F0C5FB4A4AB3
:103FC40005F1080132F8113023F0020343F0010334
:103FD40022F8113073687BB320461F785968FFF7C5
:103FE400F9FE10B1E9B1414829E03F4A05F1080062
:103FF40032F8103023F02003DB04DB0C22F81030FD
:1040040079B1032FEFD87168D1F804E0D8F8001023
:104014009EF800C001EB8C01A7B9C1F81075C1F876
:104024001075314A05F1080132F8113023F01C03F0
:1040340043EA870322F81130B3685BBB2C4805B010
:10404400BDE8F083D1F810E543EA4C332EF0030EBB
:10405400C1F810E5D8F8001043F0200301EB8C0EF2
:10406400DEF8101522F8103021F44F3121F440719C
:10407400CEF810152102DEF8108501F47C5141EAD6
:10408400074141EA0801CEF8101502EB4C01A1F8F2
:104094007C40C6E72046D3E90067FFF7D1FE002E37
:1040A400CCD0114CD4E90023964203D19F4201D1D4
:1040B400002209E00F480DF10F01FFF7B1FC0C4B92
:1040C4009842BCD19DF80F2004EBC20308355F6011
:1040D40034F8153044F8326043EA422343F48073E1
:1040E40024F81530AAE700BF443500200400AD0BC6
:1040F4000000AD0BBC3500202DE9F0430C46804692
:1041040085B0204611461D46FFF72EFE064629B30C
:104114002046FFF75FFE18B92046FFF767FE18BB7D
:10412400334F06F1080937F8193013F01C0F02D089
:104134004B78012B18D001238DF80F3000234A1C33
:10414400CDE9001320468B1C0DF10F0103F0FCFA9E
:1041540037F8193043F0030327F81930002D44D001
:104164002046FFF737FE18B9224805B0BDE8F083B2
:10417400002295F800C0D8F800301D4F03EB8C03E3
:10418400C3F81025C3F8102506F1080237F81210F9
:104194004FEA8C0E21F02001C904C90C27F8121033
:1041A4006E7816B3D8F80000AD787044D0F81035A6
:1041B400360423F4991323F4F853C0F8103523027A
:1041C40003F47C5306F440362D05D0F810E5334350
:1041D40005F480152B4341EA4C3143EA0E0341F0C8
:1041E4002001C0F8103527F812100348BDE700BFBE
:1041F400443500200400AD0B0000AD0B014BC3E9B6
:10420400021270474435002010B508461446FFF7E3
:10421400EDFD50B10846FFF7A7FD054B083033F814
:10422400103004485B0B237010BD0348FCE700BF4B
:10423400443500200000AD0B0400AD0B70B50E4CEE
:10424400064694F88C50A5B96022294604F1100062
:1042540003F080FC3068C0F87C51D0F87C3140F326
:104264000730FDF76BFF0123044884F88C30A36703
:1042740070BD0348FCE700BF443500200000AD0BCF
:104284000C00AD0B034B93F88C00003818BF0120D1
:10429400704700BF443500200079024B03EB8000D7
:1042A400FFF7DEBB340000200079024B03EB8000F3
:1042B400FFF7B6BB34000020F7B50546084616469E
:1042C400FFF794FD0C462968F0B12046FFF782FD04
:1042D4000746C8B92046FFF771FD04B2A40004F5EF
:1042E40080728F508A5829682144D1F8102542F0F1
:1042F4000102C1F810252EB10122296802FA00F347
:10430400C1F8043303B0F0BDD1F804332046002BC8
:10431400A4BF4FF00043C1F80433FFF725FD0F4B52
:10432400083033F81030C3F38203042B11D0052B6B
:1043340011D001A80194FFF705FD019A0369D34048
:1043440003F00103991C204603B0BDE8F04003F0DC
:1043540044BA0321F7E70221F5E700BF4435002002
:104364002DE9F04F634B0821D3F8040387B0C0B2A2
:1043740040F00040FFF790FD051E2BDA00230321D7
:1043840004A8CDE90433FFF73DFD4FF000094FF0D9
:10439400010BDFF864A10DF110081AF8013B57492D
:1043A400DA088A5C03F0070322FA03F3DA071CD461
:1043B40008F10408B9F1000F14D000214FF00040B7
:1043C400FFF76AFD032104A8FFF71CFD0028DCD1D8
:1043D40025F000450124474E494F002D75D107B003
:1043E400BDE8F08F4FF00109D7E7464B4B440093EB
:1043F400D8F800100029DBD091FAA1F1B1FA81F1CB
:10440400009B1C7841EA44142046FFF7ADFC3C4B6A
:10441400083033F81070C80818F8002001F00701BC
:104424000BFA01F122EA0102BB0808F8002003A8F4
:1044340001930394FFF786FC039A019B803250F8A2
:104444002220C7F382065B073746C2F3014221D517
:1044540020463946D6B2FFF791FC03A80394FFF730
:1044640071FC039B803350F82330C3F301439E4215
:1044740007D10021204603F0B0F93146204603F06D
:10448400ACF903A80394FFF75DFC039B0BFA03F359
:104494000362ADE7022A0CD10321204603F09DF903
:1044A40006F00503012BECD139462046FFF766FCE4
:1044B400E7E702212046019203F08FF9032EF3D09F
:1044C400019A032ADDD1022EEDE795FAA5F3B3FA9A
:1044D40083F304FA03F225EA020503F5A27256F8FF
:1044E400221007EB4303B3F87C00C1F30141FFF74B
:1044F40045FC72E700D00050FD8E000000850000EE
:1045040044350020FD8E000010B50446FCF768FE1B
:104514000820FCF7EBFD48B1094B4361094B83616B
:1045240003230374002343748374C37400234FF47C
:10453400C252054902F0E5FE204603F095F900BF9A
:10454400FF8E0000ED8F0000488100002DE9F04748
:1045540004460D4600AFEFF31189202383F312883C
:10456400BFF36F8F0428324A98BF324BEA468CB0AF
:104574009668117C98BF53F820306A4688BF2E4B4A
:10458400C2E9083140F202432C481385DFF8B080B9
:104594002C4BC2E90684506142F8103F00234FF4CB
:1045A40051512948FCF7DEFED546B5B1EB69C3F39A
:1045B400080393B10820FCF799FD40B1234BC0E9EF
:1045C400053803230374002343748374C3740023E2
:1045D4004FF4C2521C4902F094FE2EB1304603F04F
:1045E40083F908B1037803B91948EA468AB06A46E0
:1045F400184BC2E90760C2E9053840F202439384CC
:10460400154B42F8103F00234FF431510E48FCF78C
:10461400A9FE2946D5462046FFF776FF89F311887F
:10462400BFF36F8F3046FDF71DFDBD46BDE8F08733
:10463400D435002004850000128F0000288F00006C
:10464400DF8F00000600000148810000548F000045
:10465400208F0000798F00000500000138B50A4B57
:1046640053F82040013053F82050A54200D838BDFB
:10467400606830B1037FDB0701D403F0FDF8083430
:10468400F3E723689847FAE718850000012270B51C
:104694002A4B032086B01A70FFF7E0FFFEF7E6F816
:1046A40000F084FF0420FFF7D9FF254C254D264652
:1046B400AE4204F1300410D300F028FB204C224E0B
:1046C400AC4226D300F036FBFBF7B2FE1F4A137B45
:1046D40023F00103137306B070BD54F80C3C05932A
:1046E40054F8103C049354F8143C039354F8183CC5
:1046F400029354F81C3C019354F8203C009354E971
:104704000A2354E90C0100F03DF954F8303C5E658D
:10471400CDE7D4E90A23B3F1FF3F08BFB2F1FF3F6D
:1047240005D052EA0301206803D100F0BFFB303406
:10473400C6E73146183000F073FDF8E70B36002069
:10474400D4800000D4800000E379000068320020A7
:1047540008B50348034A0021121A03F0A4F808BD5F
:10476400A000002010360020B02370B5144E86B08F
:1047740003FB0066134B012205930F23CDE903329B
:104784000023CDE9013314234FF4A0720E4D0F49D9
:1047940003FB0055044602FB00110D4B3046009507
:1047A40000F0F0F8737B2C7423F004037373094B4B
:1047B400013403EBC423EE606B6006B070BD00BF30
:1047C400B831002007900000D435002010410020AB
:1047D400B378000010390020BFB50020FFF73EFF7A
:1047E4002B4B03F5006282F3088883F30A880024C4
:1047F400E023284D284F85F82230EC772C766C7610
:10480400AC7685F820406B6A43F4E0236B6285F84C
:104814002340FDF7EDFBFDF72DFD4FF0FF33AB62B9
:10482400EB62FDF7FDFEFDF74DFDFCF737FC1B4881
:1048340000F03AF903F00CF8FDF7E6FF0120FFF76A
:104844000DFF0220164DFFF709FF00F0A7FA154BE4
:1048540015495D61154B4FF4806205930123284689
:10486400CDE90343CDE901443B46009400F08AF8C6
:1048740006466A7B284622F004026A7303F072F843
:104884002046FFF771FF3A4631462846FDF7CEFC35
:104894001039002000ED00E091460000183300209C
:1048A40068320020D4350020504200200C900000D3
:1048B40070B5EFF31186202383F31288BFF36F8F53
:1048C4000468A0421BD0D4B1D4E90032002513609F
:1048D4005A60637BC4E9005523F002036373A56047
:1048E40004F1180003F0D3F82046C4F8AC5003F0E8
:1048F40039F83146BDE87040064800F0E1B9D0E926
:1049040002329A4218BF0133836086F31188BFF3E1
:104914006F8F70BD0C36002013B5EFF31181202486
:1049240084F31288BFF36F8F846844B1013C8460C0
:1049340081F31188BFF36F8F002002B010BD52EADB
:10494400030406D181F31188BFF36F8F6FF00F005A
:10495400F3E7CDE900230246014800F08FF9ECE7C4
:104964000C36002010B5044608B9054B9C681F227C
:1049740004F1740003F0F6F8002084F8930010BDED
:10498400D43500202DE9F04F984685B000F1580346
:10499400C0E91633129B002503730423D61D26F0A9
:1049A40007064373119B01EB060A0F46C0E906553F
:1049B400514685608373C5730446DDF838B0DDF86D
:1049C4004C90FCF7C5FE109B073020F00700C4E9AB
:1049D4002576C4F89C0002930F9BAAEB0006CDE950
:1049E40000B33246434639462046FDF703FC0F9B8D
:1049F400C4E9188BA366109B6565E366EFF3118326
:104A0400202282F31288BFF36F8F104F3A6A3C6200
:104A1400226783F31188BFF36F8FB9F1000F11D0B0
:104A24001F22494604F1740003F09CF884F8935063
:104A3400BB680BB1D3F8A0303046C4F8A03005B041
:104A4400BDE8F08F84F87490F2E700BFD4350020FD
:104A5400F0B5002587B00595109DDDE91276049523
:104A64000F9D044603950E9D02950D9D01950C9D89
:104A74000095FFF787FFB6F1FF3F08BFB7F1FF3F8F
:104A840005D056EA070305D1204600F00FFA204668
:104A940007B0F0BD3A46334604F11800014900F06E
:104AA400BFFBF4E7E379000040F2011383810023A4
:104AB400C0E92533C0F8A030014B9860704700BFAF
:104AC400D43500206FF00A01094A9368C3F8AC108A
:104AD4000849C3F8A8004B6843F080534B60002397
:104AE40083F31188BFF36F8F9368D3F8AC007047DA
:104AF400D435002000ED00E070B590F90D20437B23
:104B0400002A36DBD90634D11B4C63F07F032246DE
:104B1400437352F8183FE169934207D1C0E9002179
:104B24000860E06111E09942F8D01B68002BF5D0D1
:104B340090F90E5093F90E60B542F4D0AE42F2DD16
:104B44005968C0E9003108605860A569954200D0F1
:104B540005B9E568A3685A7BD20604D1DA897F2AAD
:104B640001D9AA6932B1AB4202D0284600F098FAC2
:104B7400656170BD6361FCE7D435002038B590F9F8
:104B84000D200146002A437B04DA03F07F034373BC
:104B940002F0AEFE0D4D2A4652F8184FAB6894420F
:104BA40000D004B9EC688B4207D05A7BD20604D1FA
:104BB400DA897F2A01D9A2692AB1A34202D0204608
:104BC40000F06EFA23466B6138BD00BFD435002077
:104BD400B3F1FF3F08BFB2F1FF3F03D002491830E1
:104BE40000F01EBB704700BFE379000070B590F978
:104BF4000D200146002A437B04DA03F07F0343734C
:104C040002F076FE1C4C4B7B224663F07F034B7311
:104C140052F8183FE069934207D1C1E900200160CE
:104C2400E16111E09842F8D01B68002BF5D091F9AE
:104C34000E5093F90E60B542F4D0AE42F2DD5868DE
:104C4400C1E9003001605960A569A368954200D0AC
:104C540005B9E5688B4207D05A7BD20604D1DA89BC
:104C64007F2A01D9AA692AB1AB4202D0284600F0B2
:104C740017FA2B46636170BDD4350020F8B5DDE921
:104C840006670D4B0C46986811460C4A1060EFF30A
:104C94001182202282F31288BFF36F8F9D68284609
:104CA40002F038FE284632463B46FFF791FF204685
:104CB400BDE8F840FFF706BFD4350020F8350020E2
:104CC40049B9EFF3058030B9054B5A699B689A429C
:104CD40001D0FFF7F7BE81F31188BFF36F8F7047E0
:104CE400D4350020034648B9EFF3058232B9064AA9
:104CF40051699268914201D0FFF7E4BE83F31188B1
:104D0400BFF36F8F704700BFD4350020EFF31181DC
:104D1400202383F31288BFF36F8F054B9A68D37BEC
:104D2400013BD37381F31188BFF36F8F704700BFCA
:104D3400D435002070B5EFF31186202383F3128855
:104D4400BFF36F8F144DAB68DA7B0132DA732A46F6
:104D540052F8184F944200D004B9EC685A7BD2063A
:104D640004D1DA897F2A01D9A2692AB1A34202D0E7
:104D7400204600F095F923466B6186F31188BFF352
:104D84006F8FEFF31180202383F31288BFF36F8FAB
:104D9400BDE87040FFF7A6BFD4350020024B03F1F5
:104DA4001802C3E906227047D435002070B5EFF32A
:104DB4001186202383F31288BFF36F8F1B4CA168E5
:104DC400E0690B68814214BF1A46002249680B60EF
:104DD4005960A368E1692AB9154AC3E900210B6047
:104DE400E3610CE093F90E0092F90E50A84218D03A
:104DF400854216DD5168C3E900210B605360A56943
:104E04000B4B9D4200D005B9E568A3689D4202D0D2
:104E1400284600F045F965613046BDE87040FFF76B
:104E240051BE8A42D8D01268D5E700BFD4350020DD
:104E3400EC350020F8B550EA010306460C4603D1D0
:104E4400FFF7B4FF0020F8BDEFF31187202383F3AD
:104E54001288BFF36F8F124D124BA8681860FFF7CA
:104E64008DFEA868234632460F49183000F0D8F961
:104E7400AA680446537B384643F004035373FFF790
:104E840021FEAB68D3E90A23B3F1004F08BF002A1F
:104E9400D8D102F024FE201A20EAE070D3E700BF44
:104EA400D4350020F8350020E379000038B50446F5
:104EB400EFF31185202383F31288BFF36F8F437BB5
:104EC4005B070FD5183002F0E2FD637B204623F028
:104ED40004036373FFF710FE2946BDE83840044815
:104EE400FFF7EEBE85F31188BFF36F8F38BD00BFA7
:104EF4000C360020014B9868704700BFD435002061
:104F04002DE9F8430446077BEFF31185202383F34F
:104F14001288BFF36F8F437B190705D585F311887A
:104F2400BFF36F8FBDE8F883D90943F0080260D15D
:104F34004273A36813B1204602F0E2FC04F11800A6
:104F440002F0A5FDA66D04F15808B04511D04FF04C
:104F5400000976B1304602F0D3FC06F1180002F0E5
:104F640096FD3046C6F8AC90FFF7C6FDA66DB04579
:104F7400EFD1DFF8C480D8F808309C4241D1EFF378
:104F84000589B9F1000918BF4FF00109D8F8186074
:104F94002A4A964200D00EB9D8F80C60B34202D027
:104FA400304600F07DF82046C8F8146002F0F0F9AD
:104FB400204600F0CDF8B9F1000F02D02048FFF7E9
:104FC40073FDD8F808309C4231D1EFF3058373BBED
:104FD400227BD20718D42846FFF774FDFB07A1D51E
:104FE400002383F31188BFF36F8F0423184602DF75
:104FF40098E703F07F0343F00803437302F078FC5F
:1050040097E74FF00009C1E785F31188BFF36F8F6D
:1050140083F31188BFF36F8F0423184602DFEFF385
:105024001180202383F31288BFF36F8FD4E785F3B5
:105034001188BFF36F8FD1E7D4350020EC35002001
:10504400183300200122044BC01A044BC0105843EB
:10505400034B1A54704700BFC8330020ABAAAAAA56
:105064000C360020C3897F2B12D80A4B1B6863B10E
:10507400094B90F90E201B689A4209DB437BDB063F
:1050840006D1064BC31A18BF012303F00100704771
:105094000023FAE738000020FC350020B831002056
:1050A40070B50E4B0E4C1E7C054606EB460304EB16
:1050B400C304204602F0EBFC00220A4B28469A5512
:1050C400FFF7D0FF48B1084B2046BDE870401A688E
:1050D4000649013AD31700F0A3B870BDD4350020B7
:1050E400C83300200C36002038000020495000004E
:1050F40038B5EFF31185202383F31288BFF36F8F44
:10510400104B114A9C681068A04206D1FFF7C8FFF3
:1051140085F31188BFF36F8F38BD00211B7C1160AC
:105124000A4AD35C002BF3D02046FFF79BFF0028EC
:10513400EED0637BDB0602D12046FFF757FD204605
:10514400E4E700BFD4350020F83500200C360020F9
:10515400EFF31181202383F31288BFF36F8F0A4A80
:10516400136A834207D11B6F136281F31188BFF363
:105174006F8F70471346002BF7D01A6F8242F9D114
:10518400026F1A67F1E700BFD4350020074808B55D
:10519400074A0849121A02F088FBBDE8084006488D
:1051A400064A0749121A02F080BB00BF0000002023
:1051B400A0000020609000000000002000000020FB
:1051C40060900000024B1868984208BF00207047A6
:1051D4003C000020034B1B680BB9FEF723BB0020E7
:1051E400704700BF0036002030B570B10B4B5B68D0
:1051F40098420AD0036843B1D3E90421D0E90445B5
:10520400121941EB0501C3E90421D0E9003213600E
:105214005A600023C0E9003330BD00BF3C000020C9
:10522400B3F1FF3F08BFB2F1FF3F2DE9F84F044649
:10523400994615461F467AD08160EFF311882023E2
:1052440083F31288BFF36F8FB9F1000FDFF8E4A086
:1052540020DBFFF7BFFFDAE90027013549F1000938
:105264002D1849EBE07306464FF00109C4E90453D5
:10527400AD1843EB0707FFF7A5FF0346DFF8B8E0D7
:10528400DEF804A0EBB9C4E900EACAF80040CEF89D
:10529400044028E06FF00103DAE900125B1A4FF0D2
:1052A400FF3161EB02025B1B62EB0902012B72F11D
:1052B4000001BCBF012300224FF00009C0E9043201
:1052C400D9E7D3E9041CD4E904208A4270EB0C0B1F
:1052D40024DA891A5A686CEB0000C3E90410C4E9A3
:1052E400003214605C60FFF76DFF84420ED1134BF3
:1052F4001B685BB9B9F1000F02D1FFF76BFF0646DB
:10530400304602F0ADFB0021FEF75EFA88F3118807
:10531400BFF36F8F28463946BDE8F88F521A60EB09
:105324000C009A45C4E90420ADD01B68AAE7002507
:105334002F46EFE7E03300203C0000200036002039
:105344002DE9F047EFF31185202383F31288BFF38F
:105354006F8FDFF8A0900026C9F800000027FFF740
:1053640031FFDFF89480D9F80030D8E900ECD91780
:1053740050B1D0E90442A34271EB020A1BDAE41AE9
:1053840062EB0102C0E90442002413EB0E034CEB70
:1053940001012046C8E90031C9F8004002F060FB71
:1053A4002146FEF711FA85F31188BFF36F8FBDE82C
:1053B400F047FFF79DBE14EB0E024CEBE473C0E91B
:1053C4000467C8E90023FFF70FFF85F31188BFF3D3
:1053D4006F8F83689847EFF31185202383F3128836
:1053E400BFF36F8FD9F800301B1BC9F80030FFF7EB
:1053F400E9FEB8E700360020E033002010B5EFF3F3
:105404001184202383F31288BFF36F8FFFF7E2FE2A
:105414000346054AD2E90001181841EBE37184F30D
:105424001188BFF36F8F10BDE0330020F8B5054637
:10543400EFF31187202383F31288BFF36F8F036880
:1054440023B187F31188BFF36F8FF8BDD0E90A4603
:10545400611C46F10002022972F1000236D3012CCC
:1054640076F10002BCBF01241E46013C46F1FF3622
:1054740002F039FB013041F10001001946EB010152
:10548400012871F1000130DB02F02DFB6FF0020303
:10549400013041F10001001946EB010183426FF034
:1054A40000438B4126DB02F01EFB013041F1000179
:1054B4006FF00102001946EB01034FF0FF31121A9D
:1054C40061EB030328461C49FFF7AAFE2B6B01334B
:1054D4002B632B6A93B93C462B4653F8185F9D42C5
:1054E40000D0D5B984F31188ADE76FF001024FF015
:1054F400FF33E7E700224FF00043E3E787F3118827
:10550400BFF36F8F28462B6A9847EFF3118420234B
:1055140083F31288BFF36F8FDEE7284602F031FA77
:105524000023C5F8AC3084F31188BFF36F8F28468D
:10553400BDE8F84002F016BA315400002DE9F041FC
:1055440005461C4690461F46EFF31186202383F33D
:105554001288BFF36F8FB4F1FF3F08BFB2F1FF3F72
:1055640005D186F31188BFF36F8FBDE8F081002C5D
:1055740009DB012A74F10003BCBF0122002412F1EB
:10558400FF3844F1FF37284602F081FADDE90601CD
:105594000023C5E90A012B6342463B4628460249DB
:1055A400FFF73EFEDDE700BF31540000014801F083
:1055B40009BB00BF149000000FB407B504AA064B42
:1055C40052F8041B1868019200F0A2F803B05DF8C9
:1055D40004EB04B0704700BF408400002DE9F041A3
:1055E40001260746B24201DCBDE8F0813B461F4676
:1055F40013F8014B002CF7D0252CF8D11C78023776
:10560400252CF3D00023DFF804819C461D461F2D72
:1056140018D8A4F1200EBEF1100F09D9A4F1300E50
:10562400BEF1090F1ED80A24202504FB03E304E07D
:1056340028FA0EFE1EF0010F06D017F8014B002CBD
:10564400E5D128E07F2D1CD8A4F1300EBEF1090F5E
:10565400E9D9242C10D1BCF1000F46D0B34246D076
:105664000023EAE724F0040EBEF12A0FF8D06C2CD4
:1056740009D145F08005E0E724F0040EBEF12A0FBD
:10568400EED06C2C22D06C2C1BD8682C23D06A2C26
:1056940028D04C2C26D0BCF1000FA5D0B445A1D104
:1056A40044F020070B68A7F1650CBCF1020F01D987
:1056B400612F1ED1073323F00703083301360B6033
:1056C4008FE7742CB9D07A2CB7D0E4E72C0648BF06
:1056D40045F40075CDE7EC0548BF45F4007545F485
:1056E4008075AAE745F42075A7E79C46B8E76324CC
:1056F400D6E7692C02D007D8632C03D02F0601D536
:10570400AC05D7D40433D9E7732CF6E78928010014
:105714002DE9F04F436895B08046039383789B0747
:10572400CDE90A1210D50B4600260D921F786FB1F1
:10573400252F0FD00133099341463846039B013688
:105744009847002880F226854FF0FF36304615B082
:10575400BDE8F08F5F789A1C252F0992ECD00024C5
:105764002546A246A346BBF11F0F32D8A7F120035A
:10577400102B0AD8DFE803F02409092A0909091BB8
:1057840009090922092709091900A7F13003092B7E
:105794002DD92A2F39D154B90D9B1BF0400F53F842
:1057A400042B0D9329D0154601E04BF0010B099B06
:1057B40013F8017B0993002FD5D156E04BF0020B6F
:1057C4004BF0040BF3E74BF0080BF0E74BF0100B36
:1057D400EDE7BBF17F0F3FD8A7F13003092BD8D8F1
:1057E4001BF0400F03D00A2202FB0535DFE70A2233
:1057F40002FB0A3A4BF0200BD9E7B2F1000AF9DABE
:10580400CAF1000A4BF0280BD1E72E2F05D11BF06B
:10581400400F9BD14BF0400BC9E7242F1CD1002C27
:1058240000F089800B9B1BF0400F0D930AD1524668
:105834000DA90A98FFF7D2FE0D9B1A1DD3F800A0FC
:105844000D92B4E72A460DA90A98FFF7C7FE0D9BEF
:105854001A1D1D680D92AAE76C2F59D051D8682FD4
:105864005ED06A2F64D04C2F62D034B10B9B224699
:105874000DA90A980D93FFF7B1FE002D47F0200300
:10588400B8BF2BF0400B0793A3F16503BCBF002501
:105894001FFA8BFB022B53D947F02003612B40F0F6
:1058A4005B83FF4307F0200308930D9B073323F02A
:1058B400070303F108020D924BF4C05204921A68D4
:1058C40005925A68DDF814C0C2F30A57C2F31300F4
:1058D400D20F47EA0C03014653EA00040BF04004DC
:1058E40059D13027D2B28DF83D70A7B28DF83C2043
:1058F400002C00F0BE810C2D4FF000075DDD0D255E
:10590400B3E0742F3FF453AF7A2F3FF450AFACE7BA
:105914001BF0800F18BF4BF4007B4BF0800B46E765
:105924001BF4807F18BF4BF4007B4BF4807B3EE775
:105934004BF4207B3BE725465446AB46AA4636E764
:10594400FF431BF0400F07F0200308BF0625089310
:105954000D9B073323F0070303F10802D3E9000189
:10596400079B0D92652B40F098816B1C00224BF431
:10597400805BDBB21446112BCDE9002428BF112330
:105984000EAA00F0A7FC0E9FC3B2CDF810B0059389
:105994000223069381E0002F00F03A813123D2B232
:1059A4008DF83D30A7F2FF37A3B28DF83C20002CD0
:1059B40000F056810C2D00F35581C5F10D01012332
:1059C400890001F1FF39A1F12104C1F1210E03FA8B
:1059D40004F423FA0EFE03FA09F344EA0E0413EB6B
:1059E400030E44EB0409DEF1000BCDF818B069EBAB
:1059F400490B1EF1FF3ECDF81CB0DDF814B049F19F
:105A0400FF390EEA0B0E09EA0009734574EB090924
:105A140013DBC1F12009B1F1200E2BFA01F100FAD8
:105A240009F958BF40FA0EFE41EA090158BF41EA9C
:105A34000E0111F0010F00F0EE800599CB1840EB38
:105A440004009C46B0F5801FC0F2E5809DF83D102F
:105A5400B7F5806F01F101018DF83D1000F0E7808A
:105A6400069A07991A4001401346089A0D20C2F17C
:105A7400570403F00F021B0943EA01730911002ABA
:105A840040F0FC80854280F2FB800138F1D10E2386
:105A94000120CDE905307023079307F109023B4645
:105AA400122A00F2CF809DF83CB00BF00C091BF0D9
:105AB400010B40F02881049B9A0700F11E8113F02A
:105AC400040400F0FE80B9F1000F40F022814FF091
:105AD4002009049B13F4405F24D1059B002D03F19E
