:1000000058110020250900005D4200001109000080
:100010001109000011090000110900001109000078
:10002000000000000000000000000000E9090000DE
:1000300011090000000000008909000011090000FA
:10004000610B0000610B0000610B0000610B000000
:10005000610B0000610B0000610B0000610B0000F0
:10006000610B0000610B0000610B0000610B0000E0
:10007000610B0000610B0000610B0000610B0000D0
:10008000610B0000610B0000610B0000610B0000C0
:10009000610B0000610B0000610B0000610B0000B0
:1000A000610B0000610B0000610B0000610B0000A0
:1000B000610B0000610B0000610B0000610B000090
:1000C000610B0000610B0000610B0000610B000080
:1000D000610B0000610B0000610B0000610B000070
:1000E000610B0000610B0000610B0000610B000060
:1000F000610B0000610B0000610B0000610B000050
:10010000610B0000610B0000610B0000610B00003F
:10011000610B0000610B0000610B0000610B00002F
:10012000610B0000610B0000610B0000610B00001F
:10013000610B0000610B0000610B0000610B00000F
:10014000610B0000610B0000610B0000610B0000FF
:04015000610B00003F
:10015400F8B5174D284604F0E9FA044628B32A698D
:10016400A9681368284643F0100313600B68114A0A
:1001740004219847002818DB0F4F104EAB6810215C
:1001840028465B69984700280FDB84F0010414F0CB
:10019400FF0414BF39463146094803F02BFC002103
:1001A4004FF4004004F06EFBE8E70020F8BD00BF08
:1001B400D04A000001000600A84E0000AB4E00002B
:1001C400AF4E0000014B1B68184700BF0000002021
:1001D400014B1860704700BF0000002030B585B0A7
:1001E40004460D4610220021684604F0C2FB022397
:1001F4008DF80230044B2A4621466846019303F0E9
:100204000BFC05B030BD00BFC901000080B5054638
:100214000E461746984603F06BF9034604F014FCA7
:100224000446DFF81890424649F800303946304613
:10023400A84754F8090000F08FFB00BF0800000035
:100244002DE9F047058B04462807904611D402296E
:1002540005F0070540F0CC80204603F021FF78B17B
:100264000138218B042811D8DFE800F0C2106D8515
:10027400950001290CBF45F0100545F020052583A4
:1002840088F31188BFF36F8FBDE8F08701F0070A88
:10029400AA4500F0A5800027B9463E46A368002B76
:1002A40000F0BC8041F00801218388F31188BFF37A
:1002B4006F8FA168002900F0BA800D68002900F052
:1002C400B680334652462046D1F80480C047002DFC
:1002D40076D02B6829461D46F0E701F007035A1F24
:1002E400012A1BD8002221F00701062B276889B2B6
:1002F400C4E9002209D13B4603E0628B01326283E8
:100304001B68002BF9D141F002012046218303F040
:10031400C7FE00287AD041F0200176E0042B0AD1F0
:1003240021F0070189B22046218303F0B9FE10B100
:1003340041F020012183218B01F0070AAA454FD007
:100344000027B946AAE7236921F0070141F0060115
:10035400062DD3F8009021832DD1B9F1000F3FD0A1
:1003640041F00801218388F31188BFF36F8F204681
:100374003949C84729E021F00701236941F0040104
:1003840089B2042DD3F804902183E6D000274FF0DE
:10039400040A3E4682E721F00701236941F0050182
:1003A40089B2052DD3F808902183D6D000274FF0C9
:1003B400050A3E4672E700274FF0060A3E466DE7FF
:1003C4002B4687E7B9F1000FD1D1EFF31188202331
:1003D40083F31288BFF36F8F238B23F008032383E7
:1003E400258BEA062ED525F01003238305F0070597
:1003F4006669218B002EBFF670AF00232768C4E91D
:10040400003321F0070141F001012183218B4FF0DA
:10041400000901F0070AAA457FF440AF002F9CD0E1
:1004240041F00801218388F31188BFF36F8F002FF7
:10043400C8D03D68394633465246204603F05CFE38
:100444002F46F4E7AB067FF51BAF25F0200323838B
:1004540005F0070500E700BF29410000014B0360D8
:1004640000207047984D000038B505460C4699B1F8
:10047400D1E901230F48096803F005FED4E90423F8
:10048400E1680D4803F0FFFDE1690C4803F0FBFD52
:10049400A1690B4803F0F7FD012D05D1EFF30581A8
:1004A4000848103903F0EFFD21462846BDE83840DE
:1004B40002F028BCBE4E0000EE4E00001E4F0000AD
:1004C4002E4F00005D4F000030BFFFF7FDBF00BF9F
:1004D4002DE9F04105460B4EDFF82C80324606EB41
:1004E4000807CC1B2046094904F036FAA0194246F5
:1004F4000021083C04F03DFA2C6707F10800BDE830
:10050400F08100BF0000000004000000844D0000E2
:10051400054B5A699B689A421FBF044A536843F0CB
:1005240080535360704700BFE003002000ED00E0FB
:1005340010B5204C204803F0A6FDA36A990137D5D5
:100544001E4803F0A0FD1E20A36ADA0103D51C484F
:1005540003F099FD1F20174CA36ADB0203D5194849
:1005640003F091FD0220A36A1C0303D5164803F08F
:100574008AFD21200F4CA36A590303D5134803F0C5
:1005840082FD2220A36A9A0303D5114803F07BFD60
:100594002320084CA36ADB0303D50E4803F073FD44
:1005A4002420A36A6FEA03436FEA1343A36210BDD6
:1005B4001D20C9E700ED00E0714F00008A4F0000E4
:1005C4009E4F0000B94F0000E44F000003500000AC
:1005D400295000004450000070B5244C06462448BD
:1005E4000D4603F050FDA36AD90435D5214803F024
:1005F4004AFD1720A36A1A0503D51F4803F043FDDB
:1006040018201A4CA36A9B050FD51C4803F03BFD28
:10061400A16BA36A180407D5194803F034FD1EB171
:10062400A36A23F40043A3621920104CA36A59055A
:1006340003D5144803F027FD1A20A36ADA050DD563
:10064400114803F020FD1B20084A936A43F47F43BA
:10065400936200232B7070BD1620CBE7A36A9B0422
:10066400F2D50A4803F00FFD1C20EDE700ED00E091
:10067400705000008750000099500000AD500000F9
:10068400C7500000DD500000F95000001251000076
:1006940070B5264C064626480D4603F0F4FCA36AC2
:1006A400D80640D5234803F0EEFC1120A36A1907AD
:1006B40003D5214803F0E7FC12201C4CA36A9A07D7
:1006C4000FD51E4803F0DFFC616BA36A1B0607D538
:1006D4001B4803F0D8FC1EB1A36A23F08003A36275
:1006E4001320124CA36ADE0703D5164803F0CBFC93
:1006F4001420A36A9C0603D5134803F0C4FC1520F8
:100704000A4B9A6AD10658BF9A6A9A6A920642BFFD
:100714005A6A22F400525A629A6A42F0FF029A62BA
:1007240000232B7070BD1020C0E700BF00ED00E077
:100734004251000059510000995000008D510000B1
:10074400A6510000BD510000125100002DE9F041F6
:100754005B4B04465F6800258AB0C7F3080685F33F
:100764001188BFF36F8F02F07F43B3F17F4F06D13F
:1007740002F00C03082B13D1524803F084FC00252B
:100784002C464FF00008F31E8DF80780092B00F269
:100794008580DFE803F00A797D7583838383838111
:1007A40010074CBF0C460125EBE74748444E03F0C5
:1007B4006AFC8DF80780F36A9A0704D5434803F06E
:1007C40062FC00232FE0F36A002B01DA4048F6E7CD
:1007D400F36A5B00F5D53F4803F055FC7369A269E1
:1007E40043F480737361BFF34F8FBFF36F8F7369EB
:1007F40032F8022C23F480737361BFF34F8FBFF37D
:100804006F8F4DF602739A4208D0B36ADBB24BB3D2
:1008140001200DF10701FFF73BFF33E021682E486B
:1008240003F031FC23689DF80720C2B902AE04F13D
:100834002007324620686168083403C2BC42164669
:10084400F7D1099AB5B3C2F3080121B96FEA52226C
:100854006FEA42220992184602A9FFF705FE0AB080
:10086400BDE8F081B36A13F47F4F05D001200DF188
:100874000701FFF7B1FE05E0B36AB3F5803FA0D3EB
:10088400FFF756FE0346CEE700200DF10701C2E74D
:1008940000200DF10701ECE7104890E7104B17F426
:1008A400F87F1049104818BF1946A6F1100203F04A
:1008B400EAFB86E722F4FF7222F00102CAE700BFD6
:1008C40000ED00E00B520000375200004F520000D0
:1008D4007152000080520000A0520000BD5200007E
:1008E400F2510000DD510000E2520000064B5A694B
:1008F40042F010025A615A6942F480625A615A699C
:1009040022F008025A61704700ED00E0EFF308801E
:10091400EFF3098101B57246FFF718FF01BD00BF6F
:100924000B4880F3088801F097FB202080F311889E
:1009340008484FF40061401880F30988EFF31480ED
:100944000221084380F31488BFF36F8F00F09CF8F2
:100954005811002018040020084B9B6883420BD1D7
:10096400EFF3058343B1064B5A6842F080525A6054
:100974005A6A22F400425A6202F0C0BDE003002029
:1009840000ED00E014498A684FF030001044EFF3A2
:10099400098C80E8F01F202080F31288BFF36F8F4A
:1009A4000E4F4FF000664A698A603E60106F0C4C2F
:1009B4002060506F0023536780F3118802F13000E8
:1009C40090E8F01F8CF3098802F1000004B503F0ED
:1009D4004EFCBDE804407047E003002004ED00E055
:1009E400080200201EF0040F0CBFEFF30880EFF3A1
:1009F4000980816911F8021C0229FFD001B57246F1
:100A040003F026FC01BD00BF40B2002807DB012330
:100A14004109034A00F01F00834042F82130704727
:100A240000E100E0054B420953F82220012300F0C5
:100A34001F0003FA00F01040704700BF00E100E01F
:100A440040B2002801F10101ACBF00F16040064B47
:100A54004FEA4111C9B2ABBF00F5614000F00F008D
:100A640080F800131954704714ED00E0044B054A54
:100A740023F07F039360BFF34F8FBFF36F8F7047F3
:100A84000000000000ED00E008B5FFF7EFFF0B4A9F
:100A9400D2F8883023F47003C2F88830EFF314835B
:100AA40023F0040383F31488BFF36F8F02F0BCF9BF
:100AB40002F04AFE00F046F802F0F6F900ED00E01C
:100AC40042F8203C009B0B4942F81C3C019B21F05E
:100AD400010142F8183C029B42F8081C42F8143CFD
:100AE4004FF0807342F8043C0023203A02654367C8
:100AF400704700BF1102000000B50D4B1546986009
:100B0400026F0C4B0E461A60036E83F30B882C465F
:100B140086F309880020044B9847204600210022D0
:100B24000023024C20470000814200001102000013
:100B3400E0030020080200201022014B1A617047D4
:100B440000ED00E0002320210348C2180133452BA7
:100B540082F80013F9D1704700E100E008B5EFF323
:100B64000583064A103B02EBC30152F8330049687F
:100B74008847BDE80840FFF7CBBC00BF104B00001E
:100B84001FB5094C094A23460121094800F0FAF827
:100B940000230393074B0121E41A01A80193029453
:100BA40000F0FAF804B010BD000007200000002097
:100BB400984D00004800002010B50C7A0B6804F032
:100BC4001F0223F01F031A43CB68640923F01F0399
:100BD400054943EA440343F00103C1F89800C1F80E
:100BE4009C20C1F8A03010BD00ED00E010B5074B0B
:100BF400D3F89030C3F30723013B984202D8FFF7A0
:100C0400DBFF10BD6FF01500FBE700BF00ED00E057
:100C14002DE9F04F0F46144606464FF000084D4D9F
:100C240085B0B84580F29280D6F80490B9F1000FEF
:100C340036D0B9F11F0F40F2878019F01F0F40F032
:100C44008380D6F800A01AF01F0F7DD1504603F020
:100C540051FB834609EB0A00013803F04BFB834543
:100C640072D11BF1160F6FD05C456DDDC5F898B0DD
:100C7400D5F89C10C5F898B0D5F8A03021F01F0124
:100C840043F01F0AD6E900321A44994202F1FF39AF
:100C94001ED1CA4508D131465FFA8BF003F033FB0D
:100CA40008F101080C36BCE73146C5F898B0D5F810
:100CB4009C3022F01F0203F01F031343C5F89C303D
:100CC400E0B203F020FB10F1160F3DD0441CE7E71F
:100CD400C5F898B0D5F8A020013B23F01F0302F01B
:100CE4001F021343CA453146E0B2C5F8A030E8D02C
:100CF40003F009FB10F1160F26D0C5F898B0D5F80B
:100D04009C209DF808300AF1FF3A62F304038DF841
:100D14000830D5F8A0309DF808205B0863F347122B
:100D24008DF80820D6E900321344009323F01F0302
:100D34005344A3EB0903013023F01F036946C0B2F7
:100D44000393FFF753FFBEE76FF01504204605B089
:100D5400BDE8F08F00ED00E00522044BC3F89420B9
:100D6400BFF34F8FBFF36F8F704700BF00ED00E0FC
:100D7400BFF35F8F0022024BC3F89420704700BF7B
:100D840000ED00E010B5034C2278FFF741FF20701E
:100D940010BD00BF0C0400202DE9F74F294D8A46F1
:100DA40006464FF00008AB46274FD0451BDAD6F86D
:100DB4000490B9F1000F3FD031680846019103F067
:100DC40099FA0199044609EB0100013803F092FAFB
:100DD40084424FF014021D4B08D002FB08F36FF05D
:100DE40015024BF8032003B0BDE8F08F14F1160F81
:100DF4002C60F8D01978A142F5DD02FB08B0C7F8E1
:100E04009840C7F89840D7F89C4000F10801007B4F
:100E140064F304000871D7F8A0000C79400860F36B
:100E240047140C71D7F89C1021F01F016960D7F8A2
:100E3400A01021F01F01296108F1010814350C36B6
:100E4400B3E700BF0C02002000ED00E00C0400201A
:100E5400F0B54149414CD1F890302568C3F30723DC
:100E64009D4287B075D80020FFF782FF3C4BC1F844
:100E7400C030854216D13B4C01A82570FFF7EEFA2D
:100E840000250646384FAE4213D10020237832495C
:100E9400D1F89020C2F30722934254DBFFF75CFFA2
:100EA40000202FE0616801EB0011FFF785FE01309F
:100EB400DFE70199280101EB0513DA683A40B2F53E
:100EC400001F21D0B2F5800F2BD0B2F5801F38D18E
:100ED4005A689B680958013B22F01F000344012013
:100EE400844623F01F0340EA4C10CDE902218DF81B
:100EF400100002A920780593FFF778FE00281DDA78
:100F04006FF0150007B0F0BD5A689B680958013BA3
:100F140022F01F0003444FF0020C012023F01F03B2
:100F2400E1E75A689B680958013B22F01F0003441B
:100F34004FF0000C062023F01F03D4E7237801337D
:100F4400237001359FE7C1F89830C1F8A000013340
:100F54009EE74FF0FF30D5E700ED00E0A44D000020
:100F6400AAFF44000C0400200000F0FF08B5024B67
:100F74001B689847002008BD20020020034B044A48
:100F84001860937843F002039370704720020020A6
:100F94000400002008B50649064821F00701C1F104
:100FA400005202F5E02203F014F8002008BD00BF4F
:100FB4005F11002024020020054B03EB8000D0F8D1
:100FC400003223F0E04343F04053C0F8003270474E
:100FD40000258450052370B5144D154E2C7801342A
:100FE400B4FBF3F303EB8303E41A03F000FB114AAD
:100FF400137823B156F82430C01A072814D94FF0B7
:101004005023D3F8141141B10021C3F81411D3F8BB
:1010140014312C700CB9012313702C7803F0E7FA07
:1010240046F82400012070BD0020FCE70E040020D7
:10103400300200200D04002010B50124154B164980
:10104400C3F8004502230020C1F8D036FFF7B4FFEF
:101054002046FFF7B1FF4FF47F030D20D3F8202C77
:10106400C2F3441302F01F021B0182F01002603B22
:10107400283200FB02339B0943F48073C1F8C43562
:10108400C1F80447C1F80449C1F8004BBDE8104059
:1010940000F078B8001000500040005007B50DF182
:1010A400070001F0FDF80F4B984218D14FF480620D
:1010B4000D4B0E49C3F8B8254FF40062C3F83C2524
:1010C4009DF8070003F09FFA9DF80700084903F014
:1010D40095FA01209DF80730984001F0DBF803B041
:1010E4005DF804FB0000AD0B00A002502CA00250E0
:1010F40028A1025048B1054B054A1B68B3FBF2F323
:101104005843044B43F00103184770471400002070
:1011140040420F00904D00004FF47F032DE9F04151
:10112400D3F830210646072A0D46D3F8343120D1AE
:10113400023B032B02D8124AD35CD3B14FF05024A4
:101144004FF0010800270520C4F81886C4F8147667
:1011540003F052FA4046C4F8148603F04DFAC4F87A
:101164001476C4F8187630462B46BDE8F0410021C9
:1011740018474FF050230022C3F81426F3E700BFAA
:10118400055300000149024802F0D9BFD04D0000C8
:1011940044020020084B70B5C31A0D4607499B1042
:1011A400044659434022064803F0DCF82B46014626
:1011B4002046BDE87040184774020020B76DDBB6C6
:1011C400904A0000402373B50B4C0093041B0B465C
:1011D4000D460A49A41061430646094A094803F02A
:1011E400EDF8011E05DA30462B4602B0BDE870402A
:1011F400184702B070BD00BF74020020B76DDBB6A3
:101204002B440000904A00002DE9F84300220121FC
:1012140006460520FFF714FC144801F0C1F8144BEE
:1012240098421FD14FF0502349F6A532C3F85C25EC
:1012340001F0C6F800244FF01C090C27DFF83480B5
:101244003569414609FB045002F079FF002807DBA9
:10125400012307FB04551C44042CAB67F0D1002088
:10126400BDE8F8836FF00400FAE700BFA91300009B
:101274000000AD0BDC4D00001FB500220123CDE9B9
:1012840002236B46084ACDF800D0CDF804D003F011
:10129400C3F8002805DB4FF480420023684601F0C0
:1012A400A1FE05B05DF804FB6144000010B5EFF346
:1012B4001184202383F31288BFF36F8F074A1368C6
:1012C40023F00201DB07116002D4012003F0A7F927
:1012D40084F31188BFF36F8F10BD00BF1403002087
:1012E4000C22104B014602FB0033002030B4D3E93A
:1012F4001C521867EFF31180202484F31288BFF383
:101304006F8F9C6F04F0C00444F002049C6780F368
:101314001188BFF36F8F1DB12B4630BC02481847AC
:1013240030BC704774020020904A000010B4EFF300
:101334001182202383F31288BFF36F8F174801684B
:1013440041F002040460C80707D482F31188BFF394
:101354006F8F012010BC01F04BB84FF05021D1F831
:101364000C04D1F80C14C907EFD5EFF3118083F303
:101374001288BFF36F8F0A498B6F03F0C00343F0E9
:1013840002038B6780F31188BFF36F8F82F3118898
:10139400BFF36F8F002010BCFFF7A2BF140300201F
:1013A40074020020092813D8DFE800F00510121297
:1013B400121212120E0C074B986F10F0070007D18F
:1013C400FFF78EBF0220FBE70320F9E70120F7E7D0
:1013D400704700BF740200202DE9F0410122074646
:1013E4003649D1E8EF3FC1E8E02F0028F9D133B9FD
:1013F400334934484B60CB608A6002F0B3FE7B1EF5
:10140400012B2BD8012F07D14FF05023D3F81C34D4
:1014140003F00303022B21D003F0C4F90546F8B905
:10142400294B1B78E3B14FF0502302220646C3F840
:1014340008234FF05024DFF89480D4F81824D4F80B
:101444001834D20315D503F00303022B01D0012F66
:101454000FD16DB386F31188BFF36F8FBDE8F081B0
:10146400EFF31186202383F31288BFF36F8F0125D6
:10147400DFE7C5B1304602F021FFD4F81835DBB2FE
:10148400012BDAD1D4F80421002AD6D00022C4F8E2
:101494000421D4F804210222C4F818252022C8F813
:1014A4008021A360C9E70021212003F0EBF9E4E7E0
:1014B4004FF050230222C3F80423CFE77002002028
:1014C40060020020900200201104002000E100E0EE
:1014D40008B5074803F02AF938B10648FFF74EFD6E
:1014E4000448FEF775FE002008BD6FF01200FBE70C
:1014F400F04A0000FD1400000A2838B50446074DE0
:1015040004D1AB680D2128465B689847AB68034853
:101514005B68E1B29847204638BD00BFF04A00003E
:10152400F0B51646426801F01F04107B87B044EA08
:1015340040141069002871D0B6F5001F02F110059F
:1015440006D12146284603F0EAF8002007B0F0BD92
:101554000027B6F5800F01A80197476039D1B3F190
:10156400007F14BF052304238DF804300023CDE944
:101574000403039393680DF1030723FA01F111F0B7
:1015840001013DD1B6F1A07F3AD104F01F036209F5
:1015940003F1800328D0012A46D1254A52F823308A
:1015A400DB072DD43A462146284601F02BFA214B7D
:1015B40098421BD002972146284603AA01F0DAF884
:1015C4001D4B98422DD101222146284601F072FA82
:1015D400BBE7B3F1C06F05D0B3F1007F14BF0123A3
:1015E4000223C1E70323BFE7144AD7E73946284655
:1015F40001F058FA104B9842DCD06FF00B00A5E7CD
:101604003A462146284601F0FDF90B4B9842D2D1C7
:1016140028469DF8031001F03DFACCE76FF08500F1
:1016240094E76FF0150091E751F82330FFDE00BF17
:10163400002884500400AD0B0000AD0B002584503D
:101644004209034670B502D0012A17D070BD0D4E71
:10165400326951680029F9D0012503F01F030C6891
:101664009D400029F2D08A682A4002D030464B6857
:1016740098472CB1236821461C46F2E7024EE7E75F
:101684002346F8E7D04A0000B04A000038B5456860
:101694002B69B3B11035284601F0F2F9044680B93C
:1016A4000146284601F0C8F9084B98420BD122465E
:1016B4002846074901F0A0F9224605210D20FFF72D
:1016C400BFF9002038BD6FF00400FBE70000AD0B4C
:1016D400451600002DE9F04340F206354668D00671
:1016E40048BF0320337B02EA050558BFC2F340100C
:1016F40087B001F01F07B5F5837F144647EA431707
:101704008DF8030043D00FD8062D18D007D8B5B1F3
:10171400022D3ED06FF0150007B0BDE8F083B5F59B
:10172400807FF7D101250AE040F20222954232D0AF
:10173400B5F5407F31D0B5F5007FEBD1022522030A
:101744002DD5012372688B409360326982BB07F008
:101754001F037F092AD0012F77D13E4A02EB83026F
:1017640084F48033D2F80012C3F30043C4F340443A
:1017740044EA430421F4706144EA800421F00F0137
:1017840044EA05230B43C2F800320020C4E70725CE
:10179400D5E70425D3E70525D1E70325CFE7630380
:1017A40041BF012372688B40D360CEE72A4AD5E754
:1017B4001036394630460DF1020201F023F914F4D3
:1017C400403F80460CD13946304602F0A6FF234BF9
:1017D4009845DAD130469DF8021001F05BF9D4E760
:1017E4004FF0000901AB3946304603AACDE904396C
:1017F400CDE90199CDF80C9000F0BCFF174B98424D
:1018040088D114F4003315D09DF8033084F4803467
:10181400C4F300448DF80E3039464B46304603AAD3
:101824008DF80C508DF80D4001F064F80B4B984284
:10183400CDD06FE7CDE9043339460DF103033046CB
:1018440003AA039300F096FFF0E7803352F82330A5
:10185400FFDE00BF00288450002584500000AD0B3B
:10186400036803F01F025B09026004D0012B0348E4
:1018740018BF002070470248704700BF00288450FA
:10188400002584502DE9F04F1546834640F2FF1899
:10189400DFF8CC91DFF8CCA185B000EB810159458C
:1018A40003D1002005B0BDE8F08FDBF80030C3F3AE
:1018B400C322082AC3F3080400F2CC801B0E44455B
:1018C40008BF4FF0FF3419F80270222B00F2C580D4
:1018D400DFE803F0122129412C3241C3C3C3C348BA
:1018E40075787B7E8184878A8D90939FA2A5C3C3DC
:1018F400C3A8AFB2B5B8BB00C5F80C45621C0FD085
:10190400012603A80394FFF7ABFF039B06FA03F336
:10191400836032462FE0661CC5F8144540F0988079
:101924000BF1040BBBE7C5F80845E7E7601CC5F8F5
:101934000845F5D0002604E0C5F80C45621CEFD03C
:10194400012603A80394FFF78BFF0122039B02FAED
:1019540003F3C3600FE0C5F81045631CE0D0002614
:10196400002208E0C5F80845002FF6D1631CD7D043
:10197400002606273246DBF80030039403F40040C7
:10198400002818BF002203A818BF01260193009263
:10199400FFF766FF039C019B00EB8400D0F8004234
:1019A400C3F3412C009A3B0243EA8C03134304EA39
:1019B4000A04234343EA4603C0F80032B0E7C5F8FB
:1019C4000C45D1E7C5F86445B8E7C5F86445C4E7F4
:1019D400C5F86845B2E7C5F86845BEE7C5F86C4583
:1019E400BBE7C5F87045A9E7C5F86045A6E7C5F8A3
:1019F4004045A3E7C5F84445AFE7C5F86045661C14
:101A0400DBF800308CD0C3F30043002B7FF478AFB5
:101A140096E7C5F86445F2E7C5F86845EFE7C5F809
:101A24006C45ECE7C5F82445601C3FF479AF01260A
:101A340096E7C5F8284561E7C5F83045F4E7C5F8E9
:101A44003445F1E7C5F83845EEE7C5F83C4555E7B8
:101A540000265EE76FF0150024E76FF0850021E7AC
:101A64002C530000F0F0FCFF2DE9F04104460D4634
:101A7400476802F097FE4FF0200888B9264B1B7880
:101A840073B16426606802F066FDF0B9012002F0CB
:101A9400B3FD013EF6D10021212002F0F3FEF0E770
:101AA400EFF31186314688F31288BFF36F8F6068B5
:101AB40002F051FDA8B986F31188BFF36F8FEFE7E9
:101AC40086F31188BFF36F8FE5E7EFF31186314694
:101AD40088F31288BFF36F8F606802F03CFD002822
:101AE400EED0FB6900201D706368FA691B68C3F8B7
:101AF40044250122C3F84825C3F82001D3F8204126
:101B0400C3F85801D3F858019A6081F31188BFF3E0
:101B14006F8FBDE8F08100BF11040020F8B50546C1
:101B2400002201210820FEF78BFF0820FEF76CFF3E
:101B34006C680121E06802F03FFD6B681968236955
:101B4400C1F82435A27D637D207D1343228B02439B
:101B54001343C1F86C356E68D6E9004313F00103F2
:101B640042D02F6907F1080000F09AFB2D4B9842F0
:101B740054D1387A04F10C0204F5907102F048FD56
:101B8400387A012707FA00F000F084FB0823C4F830
:101B94000035F369C4F844350023C4F84835A76018
:101BA400D4F85831002BFBD00026C4F800656B68CC
:101BB4003146D86802F000FD6D683146E8682C684B
:101BC40002F0FAFC0823C4F800352A7A52B92B6AC9
:101BD400C4F834350123C4F83835C4F81021D4F8D6
:101BE400102123600020F8BD0822C4F80025F26902
:101BF400C4F84425C4F848350123A360D4F820313F
:101C0400002BFBD00023C4F82031D4F82031012369
:101C1400E3604FF48073C4F80433C1E76FF0040049
:101C2400E1E700BF0000AD0B0123834070B5DC4346
:101C34000B4AD2E8EF1F01EA0405C2E8E65F002E72
:101C4400F7D14FF4803282400648C0F80823BFF32E
:101C54005F8FBFF36F8F0B4214BF0120002070BD54
:101C6400400300200050015070B40E4922F07F461A
:101C7400D1E90034D01AC31844F10004C1E9003496
:101C8400A6F50013B3F5400F09D2074B1B681A0AD7
:101C94001B069C19054B42F10005C3E9004570BCC5
:101CA40001F02CBE580000204403002060000020F6
:101CB400D9B101230D4A8340D2E8EFCF4CEA030C9B
:101CC400C2E8E1CF0029F7D14FF48033084A8340BA
:101CD400C2F80433074BD3E8AF3FC340DB0742BF2E
:101CE4004FF40012044BC3F8002170474003002056
:101CF400005001503C03002000E100E00D4B186847
:101D0400010A0006BFF35F8F0B4BD3F80435181894
:101D140041F10001B3F5801F0AD2084BD3E9002337
:101D2400904271EB030303D210F1807041F1000182
:101D3400704700BF440300200050015060000020A1
:101D44002DE9F04F85B016461F4604469DF840A085
:101D5400FFF76AFF0190FFF7D1FFB04271EB070371
:101D640052D23B4B301A67EB0101984271F10001EA
:101D74004DD2384B03EB0413D3E902239F4208BF2F
:101D8400964258D04FF48038334908FA04F8204674
:101D940026F07F4BC1F8488302F01DFC4FF0030985
:101DA400584604F15005AD00ADB205F1502504F5D7
:101DB400A87305F580350293029A20F07F4341F819
:101DC4002230C1F84483D1F80435244AC01A0338B8
:101DD40020F07F4090422ED9286868B1D1F80435AC
:101DE400A3EB0B0020F07F40B0F5000F039322D942
:101DF400204602F0F0FB039BBAF1000F07D109EB78
:101E0400030009F10109D7E7BAF1000F09D06FF017
:101E1400150520460199FFF74BFF284605B0BDE89C
:101E2400F08F01230E4AA340D2E8EF0F1843C2E813
:101E3400E10F0029F8D107490E982301C8500F9BE0
:101E440001EB04120025C2E902675360E1E700BF19
:101E5400010080004800002000500150FDFF7F0079
:101E64003C0300207FB500254FF0FF304FF0FF31D9
:101E7400194C1A4B0226C4F80833C4F84833184BDB
:101E8400C4F80855C3E902014FF480334FF400123B
:101E9400C4F80433134B0121C4F804631520C3F8B8
:101EA40080212A46FEF7CCFD1520FEF7ADFD012367
:101EB4000D4AA360236013600C4B0D4A009328461F
:101EC4000023CDE90155FFF73BFF3046FFF784FAC5
:101ED400284604B070BD00BF0050015003000F003D
:101EE4004800002000E100E0400300206D1C0000D9
:101EF400FFFF7F002DE9F7432E4BD3F8042390070F
:101F04000BD5D3F8042142B10022C3F804212A4A94
:101F1400D3F80431136801331360264AD2F804332A
:101F2400D90326D5254BD3E8EF1F21F00100C3E8E0
:101F3400E40F002CF7D1CB0702D4D2F84031C3B15F
:101F440000251C4CC4F84051D4F84031FFF7D6FEAC
:101F5400EFF31182202383F31288BFF36F8F184BA2
:101F6400D3E90267B042B94106D282F31188BFF3C4
:101F74006F8F03B0BDE8F0834FF0FF38D3E9001052
:101F84004FF0FF391D60C3E902894FF48033C4F870
:101F94004833C4F84051D4F8403182F31188BFF378
:101FA4006F8F0029E5D0009032463B46284688478B
:101FB400DFE700BF00500150440300203C03002031
:101FC4004800002030B5431C124C85B005D0844233
:101FD400A8BF0446012CB8BF0124FFF78FFE0E4BA7
:101FE4000C4DD3E90013401AB0F5000F0FD222189C
:101FF400AA4228BF2A46002052180849CDE9010008
:10200400009143F10003FFF79BFE05B030BD2A4663
:10201400F1E700BFFFFF7F00580000206D1C0000A7
:1020240008B5FFF76BFE024B1B68C01A08BD00BF62
:10203400580000204FF47F03D3F83021D3F8343113
:10204400072A05D1023B032B02D8024AD05C704711
:10205400002070474753000008B5FFF7EBFF58B165
:10206400644BD3F8202A3AB90D21C3F8201A012170
:10207400C3F81C19C3F81C290022D30003F57F03FD
:10208400D3F80013013107D0D3F800130132D3F889
:102094000433202A0B60F0D1FFF7CCFF002840F076
:1020A400A080FFF7C7FF40B1534B544AC3F8302513
:1020B4004FF050230122C3F858254FF47F03D3F87F
:1020C4003021D3F83431072A09D1023B032B06D837
:1020D4004B4AD35C1BB100224A4BC3F84C25FFF793
:1020E400A9FF50B14FF05023D3F80024D10742BFC9
:1020F4000022C3F81421C3F818214FF47F03D3F846
:102104003021D3F83431072A09D14FF05023D3F8C2
:102114000024D20744BF6FF00102C3F80024FFF784
:1021240089FF18B16522334BC3F80C274FF47F03A2
:10213400D3F83021D3F83431072A16D1314BD3F8F0
:102144002034002B11DA4FF050230322C3F8182552
:1021540001229A60D3F80421002AFBD00022C3F89C
:1021640004210122DA60C3F818254FF47F03D3F861
:102174003021D3F83431072A23D1023B032B02D870
:10218400214AD35CEBB17E221A4B1B49C3F80C27BE
:10219400C3F83C297F231D4AC2F818310023C1F833
:1021A400043EC1F8083E01F54821C1F81031C2F8D7
:1021B4002431C2F82C3102F5FF1202F58052C2F824
:1021C400A032134AD2F88C3043F44063C2F88C3006
:1021D400104A114B1168C3F84415D269C3F84C2551
:1021E40008BD2922034BC3F80C270322C3F83C275C
:1021F40057E700BF00400050009003504400EFBE7A
:1022040043530000002003503F53000000200050BF
:1022140000ED00E00080FF000060005030B504686D
:10222400ACB1B4FA84F30122C3F11F03DBB29A40C8
:1022340024EA0202D0E8EF5FA54204D1C0E8EC2F03
:10224400BCF1000FF6D1EAD102480B7030BD024850
:10225400FCE700BF0000AD0B0200AD0B10B5036836
:10226400CB40DB0710D401238B40026843EA020110
:10227400D0E8EF4F944204D1C0E8EC1FBCF1000F4A
:10228400F6D1F2D1014810BD0148FCE70000AD0BC6
:102294000400AD0B014BC3F80405704700700150F6
:1022A4000146014800F044B9180000200328F7B59E
:1022B40006462ED84FF05021364B374A33F81000DB
:1022C400925DC1F8080300250A44012142F210740A
:1022D4004FF05027314B116033F816308E4203F122
:1022E40050231D601B688DF8071008BF0DF107050A
:1022F400022E32D0032E40D0012E1CD0D7F8183431
:1023040003F480333DB923B1012002F075F9013C97
:10231400F0D103B0F0BDD7F8182402F003022A70FC
:10232400002BF6D09DF807000128F2D102F064F9E1
:10233400013CDDD1EDE7D7F80C3403F480333DB92B
:10234400002BE6D0012002F057F9013CF3D1E0E77D
:10235400D7F80C2402F00102E1E7D7F85C3403F467
:1023640080333DB9002BD4D0012002F045F9013C63
:10237400F3D1CEE7D7F85C24ECE7D7F85434DB0389
:10238400C7D5002DCED1012002F036F9013CF4D19D
:10239400BFE700BFA04E00004B530000984E000062
:1023A400044B1A7922B9012218601A710248704745
:1023B40002487047480300200000AD0B0C00AD0B31
:1023C40008B50A4B1B6833B10520FEF72BFB10B987
:1023D4000520FEF719FB4FF050230122C3F81825FE
:1023E400C3F81425C3F8802508BD00BF48030020A6
:1023F40010B5032845D8DFE800F01802554F002235
:102404004FF480730121002003F1502318601C68ED
:10241400012402F150221460284A1268002A47D08D
:102424004FF05023C3F804132BE04FF05023D3F89C
:102434001814D3F81824C90312D502F00303022B8D
:1024440005D0012B02D00020FFF730FF01234FF00D
:1024540050220221C2F8183508224FF48273D2E7C1
:10246400D3F81424D207F1D5D3F81C2402F00302C4
:10247400013A012AE7D8114A12681AB10222C3F8B4
:10248400042310BDD3F80421002AFBD00022C3F892
:102494000421D3F80431F4E718224FF490734FF475
:1024A4008071B0E720224FF492734FF40071AAE7D1
:1024B4001A68002AFCD018601B68E2E74803002071
:1024C400F8B54FF0502301250026D3F80443174FE5
:1024D40004B9F8BDB4FA84F0C0F11F00830003F519
:1024E40080739BB203F1502305FA00F2196892B28B
:1024F40024EA02040029EBD01E601B684FF050232D
:10250400022AC3F808230DD1D3F81814D3F81814E9
:1025140001F00301012905D1C3F81825C3F80423E8
:102524009960D5E73B68C0B29847D1E748030020DB
:102534000079024B03EB0010FFF770BE200000206F
:10254400036803F01F025B09026004D0012B0348F7
:1025540018BF002070470248704700BF002884500D
:1025640000258450034A4309D35C00F01F0018443B
:10257400C0B270474F53000070B50546FFF7F2FF35
:102584000C4C083034F810300E46DA0508D5C3F385
:10259400432304EBC302284654F833305268984767
:1025A400A3682BB131462846E268BDE8704018475D
:1025B40070BD00BF5003002008B5FFF7D3FF034BE5
:1025C400083033F81000400B08BD00BF5003002052
:1025D40008B5FFF7C7FF034B083033F81000C0F30A
:1025E400400008BD5003002008B5FFF7BBFF034BB4
:1025F400083033F81000C0F3401008BD5003002029
:10260400034611F0010010B5CCB20BD1A207C4F3FC
:1026140040000DD5074A106A58601062003818BF90
:10262400012005E004490A6A1A600A62002AEDD012
:1026340010BD00BF002884500025845010B5FFF75A
:1026440091FF124A083032F81030D9051CD5C3F373
:10265400432123F4F85322F81030002002F10E0431
:1026640034F8023F13F4807F03D0C3F34323994229
:102674000AD001303028F3D1002342F83130044825
:10268400BDE81040FFF7EABD10BD00BF50030020B5
:10269400C8030020F0B5044600200125064601F1D8
:1026A400A05101F55151104A89008A420BD10F4BB8
:1026B400D3F87C2132B10022C3F87C21D3F87C31D9
:1026C40040F00040F0BD02F13043A3F551439B08B4
:1026D40005FA03F31C4204D0176817B11660176893
:1026E40018430432E1E700BF00D1005000D000508D
:1026F400F7B506460846FFF735FF1A4F00F10805FF
:1027040037F815300C46DB072AD5304601F0E1FFD7
:102714002046FFF769FF58B12046FFF74DFF00221E
:10272400316800B201EB8003C3F81025C3F810250B
:102734002046FFF783FF002301A827F815300194F2
:10274400FFF7FEFE019B00EB8300D0F80022064B4E
:10275400134043F00203C0F80032044803B0F0BD54
:102764000348FBE750030020F0F0FCFF0000AD0B32
:102774000400AD0B2DE9F0431646804685B00846AB
:10278400FFF7F0FE0C463168054609B32046FFF713
:102794001FFF18B12046FFF727FF10BB00230DF1E0
:1027A4000F02CDE900338DF80E308DF80F3020463E
:1027B4000B460DF10E0101F034FF4A4A05F1080100
:1027C40032F8113023F0020343F0010322F81130F0
:1027D40073687BB320461F785968FFF7F9FE10B180
:1027E400E9B1414829E03F4A05F1080032F81030C8
:1027F40023F02003DB04DB0C22F8103079B1032F23
:10280400EFD87168D1F804E0D8F800109EF800C041
:1028140001EB8C01A7B9C1F81075C1F81075314AE4
:1028240005F1080132F8113023F01C0343EA870351
:1028340022F81130B3685BBB2C4805B0BDE8F083C7
:10284400D1F810E543EA4C332EF0030EC1F810E53D
:10285400D8F8001043F0200301EB8C0EDEF81015BD
:1028640022F8103021F44F3121F44071CEF81015C4
:102874002102DEF8108501F47C5141EA074141EA66
:102884000801CEF8101502EB4C01A1F87C40C6E714
:102894002046D3E90067FFF7D1FE002ECCD0114CBF
:1028A400D4E90023964203D19F4201D1002209E0DA
:1028B4000F480DF10F01FFF7B1FC0C4B9842BCD14E
:1028C4009DF80F2004EBC20308355F6034F815301F
:1028D40044F8326043EA422343F4807324F8153009
:1028E400AAE700BF500300200400AD0B0000AD0BAD
:1028F400C80300202DE9F0430C46804685B02046ED
:1029040011461D46FFF72EFE064629B32046FFF763
:102914005FFE18B92046FFF767FE18BB334F06F178
:10292400080937F8193013F01C0F02D04B78012B2B
:1029340018D001238DF80F3000234A1CCDE9001371
:1029440020468B1C0DF10F0101F06BFE37F8193096
:1029540043F0030327F81930002D44D02046FFF735
:1029640037FE18B9224805B0BDE8F083002295F877
:1029740000C0D8F800301D4F03EB8C03C3F81025BA
:10298400C3F8102506F1080237F812104FEA8C0E2E
:1029940021F02001C904C90C27F812106E7816B36F
:1029A400D8F80000AD787044D0F81035360423F41C
:1029B400991323F4F853C0F81035230203F47C531D
:1029C40006F440362D05D0F810E5334305F48015A0
:1029D4002B4341EA4C3143EA0E0341F02001C0F895
:1029E400103527F812100348BDE700BF500300203C
:1029F4000400AD0B0000AD0B014BC3E9021270479C
:102A04005003002010B508461446FFF7EDFD50B101
:102A14000846FFF7A7FD054B083033F8103004488B
:102A24005B0B237010BD0348FCE700BF500300207C
:102A34000000AD0B0400AD0B70B50E4C064694F8C7
:102A44008C50A5B96022294604F1100001F091FFD1
:102A54003068C0F87C51D0F87C3140F30730FDF782
:102A6400D3FF0123044884F88C30A36770BD034866
:102A7400FCE700BF500300200000AD0B0C00AD0BC1
:102A8400034B93F88C00003818BF0120704700BF37
:102A9400500300200079024B03EB8000FFF7DEBBFC
:102AA400300000200079024B03EB8000FFF7B6BB37
:102AB40030000020F7B5054608461646FFF794FD9A
:102AC4000C462968F0B12046FFF782FD0746C8B9D5
:102AD4002046FFF771FD04B2A40004F580728F5004
:102AE4008A5829682144D1F8102542F00102C1F81E
:102AF40010252EB10122296802FA00F3C1F804332B
:102B040003B0F0BDD1F804332046002BA4BF4FF02E
:102B14000043C1F80433FFF725FD0F4B083033F8A9
:102B24001030C3F38203042B11D0052B11D001A85C
:102B34000194FFF705FD019A0369D34003F00103F3
:102B4400991C204603B0BDE8F04001F0B3BD032159
:102B5400F7E70221F5E700BF500300202DE9F04F0D
:102B6400634B0821D3F8040387B0C0B240F000409F
:102B7400FFF790FD051E2BDA0023032104A8CDE9FD
:102B84000433FFF73DFD4FF000094FF0010BDFF870
:102B940064A10DF110081AF8013B5749DA088A5C60
:102BA40003F0070322FA03F3DA071CD408F104083C
:102BB400B9F1000F14D000214FF00040FFF76AFD77
:102BC400032104A8FFF71CFD0028DCD125F00045F3
:102BD4000124474E494F002D75D107B0BDE8F08F51
:102BE4004FF00109D7E7464B4B440093D8F8001047
:102BF4000029DBD091FAA1F1B1FA81F1009B1C7894
:102C040041EA44142046FFF7ADFC3C4B083033F84E
:102C14001070C80818F8002001F007010BFA01F140
:102C240022EA0102BB0808F8002003A801930394D8
:102C3400FFF786FC039A019B803250F82220C7F3E9
:102C440082065B073746C2F3014221D52046394646
:102C5400D6B2FFF791FC03A80394FFF771FC039B22
:102C6400803350F82330C3F301439E4207D100213F
:102C7400204601F01FFD3146204601F01BFD03A84C
:102C84000394FFF75DFC039B0BFA03F30362ADE7C8
:102C9400022A0CD10321204601F00CFD06F00503A5
:102CA400012BECD139462046FFF766FCE7E7022109
:102CB4002046019201F0FEFC032EF3D0019A032A70
:102CC400DDD1022EEDE795FAA5F3B3FA83F304FA06
:102CD40003F225EA020503F5A27256F8221007EB67
:102CE4004303B3F87C00C1F30141FFF745FC72E7ED
:102CF40000D000505F5300007C4E000050030020C1
:102D04005F53000038B5EFF31185202383F3128855
:102D1400BFF36F8F064B9C6801F01BFD85F3118890
:102D2400BFF36F8F2046BDE83840FDF715BE00BFE6
:102D3400E003002038B50A4B53F82040013053F823
:102D44002050A54200D838BD606830B1037FDB074E
:102D540001D401F001FD0834F3E723689847FAE74A
:102D6400804E0000012270B52A4B032086B01A70F1
:102D7400FFF7E0FFFEF792F900F036FE0420FFF7BC
:102D8400D9FF254C254D2646AE4204F1300410D31C
:102D940000F0BAFA204C224EAC4226D300F0C8FA16
:102DA400FDF7D6F91F4A137B23F00103137306B012
:102DB40070BD54F80C3C059354F8103C049354F83B
:102DC400143C039354F8183C029354F81C3C0193AC
:102DD40054F8203C009354E90A2354E90C0100F010
:102DE40027F954F8303C5E65CDE7D4E90A23B3F102
:102DF400FF3F08BFB2F1FF3F05D052EA030120684C
:102E040003D100F051FB3034C6E73146183000F0EE
:102E1400E5FCF8E711040020384D0000384D0000AF
:102E240081480000E800002008B50348034A002157
:102E3400121A01F0A8FC08BD480000201404002068
:102E44000023012270B586B0CDE904230F2201933B
:102E5400CDE9023214234FF4A0720E4D0E4E03FB43
:102E640000550E4906EBC016044602FB00110C4B3C
:102E74003046009500F0DCF8737B2C7423F00403D7
:102E84007373084B013403EBC423EE606B6006B02C
:102E940070BD00BFE003002068000020180C002073
:102EA4009347000018040020BFB50020FFF742FF3D
:102EB4002A4B03F5006282F3088883F30A8800240E
:102EC400E023274D274F85F82230EC772C766C765B
:102ED400AC7685F820406B6A43F4E0236B6285F896
:102EE4002340FDF703FDFDF727FE4FF0FF33AB62F0
:102EF400EB62FDF7ADFFFDF743FE1B4800F0D6F88B
:102F040001F013FCFEF798F80120FFF713FF0220ED
:102F1400164DFFF70FFF00F03FFA154B15495D61A1
:102F2400154B4FF48062059301232846CDE90343F2
:102F3400CDE901443B46009400F07AF806466A7BEA
:102F4400284622F004026A7301F06CFC2046FFF765
:102F540077FF3A4631462846FDF7CEFD1804002097
:102F640000ED00E0692D000068010020E800002069
:102F7400E0030020580D00206153000070B5EFF30A
:102F84001186202383F31288BFF36F8F0468A04255
:102F94001AD0CCB1D4E90032002513605A60637BA7
:102FA400C4E9005523F002036373A56004F118001B
:102FB40001F0A6FC2046A56701F034FC3146BDE8CB
:102FC4007040074800F07AB9D0E902329A4218BF3B
:102FD4000133836086F31188BFF36F8F70BD00BF28
:102FE4001204002013B5EFF31181202484F3128816
:102FF400BFF36F8F846844B1013C846081F311880E
:10300400BFF36F8F002002B010BD52EA030406D153
:1030140081F31188BFF36F8F6FF00F00F3E7CDE9F1
:1030240000230246014800F027F9ECE712040020CF
:103034002DE9F043984685B000F15803C0E91633F2
:10304400109B002603730423073222F00705437301
:103054000F9B01EB05090F4683734946C0E90666D9
:103064008660C6730446FDF733FA0E9B073020F0E2
:103074000700A066C4E9187502930D9BA9EB00092B
:1030840001930C9B4A460093394643462046FDF77C
:1030940017FD054B66659B6803B1DB6E4846E36626
:1030A40005B0BDE8F08300BFE003002040F2011347
:1030B40083810023C0E91833C366014B98607047CD
:1030C400E00300206FF00A01084A936899670849F1
:1030D40058674B6843F080534B60002383F3118897
:1030E400BFF36F8F9368986F704700BFE0030020B1
:1030F40000ED00E070B590F90D20437B002A36DB2B
:10310400D90634D11B4C63F07F032246437352F833
:10311400183FE169934207D1C0E900210860E061EA
:1031240011E09942F8D01B68002BF5D090F90E50AD
:1031340093F90E60B542F4D0AE42F2DD5968C0E9AD
:10314400003108605860A569954200D005B9E5686A
:10315400A3685A7BD20604D1DA897F2A01D9AA69E5
:1031640032B1AB4202D0284600F096FA656170BDD8
:103174006361FCE7E003002038B590F90D200146B7
:10318400002A437B04DA03F07F03437301F010FB4E
:103194000D4D2A4652F8184FAB68944200D004B93A
:1031A400EC688B4207D05A7BD20604D1DA897F2A95
:1031B40001D9A2692AB1A34202D0204600F06CFAD8
:1031C40023466B6138BD00BFE0030020B3F1FF3F2D
:1031D40008BFB2F1FF3F03D00249183000F0FEBA35
:1031E400704700BF8148000070B590F90D2001467A
:1031F400002A437B04DA03F07F03437301F0D8FA17
:103204001C4C4B7B224663F07F034B7352F8183FF0
:10321400E069934207D1C1E900200160E16111E056
:103224009842F8D01B68002BF5D091F90E5093F911
:103234000E60B542F4D0AE42F2DD5868C1E9003008
:1032440001605960A569A368954200D005B9E56895
:103254008B4207D05A7BD20604D1DA897F2A01D95E
:10326400AA692AB1AB4202D0284600F015FA2B46CF
:10327400636170BDE0030020F8B5DDE906670D4B1E
:103284000C46986811460C4A1060EFF31182202214
:1032940082F31288BFF36F8F9D68284601F09AFA73
:1032A400284632463B46FFF791FF2046BDE8F840EA
:1032B400FFF708BFE00300200004002049B9EFF342
:1032C400058030B9054B5A699B689A4201D0FFF7D3
:1032D400F9BE81F31188BFF36F8F7047E0030020BC
:1032E400034648B9EFF3058232B9064A5169926838
:1032F400914201D0FFF7E6BE83F31188BFF36F8FCD
:10330400704700BFE0030020EFF31181202383F313
:103314001288BFF36F8F054B9A68D37B013BD3733D
:1033240081F31188BFF36F8F704700BFE003002063
:1033340070B5EFF31186202383F31288BFF36F8FE8
:10334400144DAB68DA7B0132DA732A4652F8184F0F
:10335400944200D004B9EC685A7BD20604D1DA89CD
:103364007F2A01D9A2692AB1A34202D0204600F0E3
:1033740093F923466B6186F31188BFF36F8FEFF3E4
:103384001180202383F31288BFF36F8FBDE8704050
:10339400FFF7A6BFE0030020024B03F11802C3E9C4
:1033A40006227047E003002070B5EFF31186202356
:1033B40083F31288BFF36F8F1B4CA168E0690B681D
:1033C400814214BF1A46002249680B605960A36801
:1033D400E1692AB9154AC3E900210B60E3610CE0F5
:1033E40093F90E0092F90E50A84218D0854216DDCA
:1033F4005168C3E900210B605360A5690B4B9D42E2
:1034040000D005B9E568A3689D4202D0284600F0C3
:1034140043F965613046BDE87040FFF753BE8A4208
:10342400D8D01268D5E700BFE0030020F8030020DD
:10343400F8B550EA010306460C4603D1FFF7B4FF82
:103444000020F8BDEFF31187202383F31288BFF324
:103454006F8F124D124BA8681860FFF78DFEA86895
:10346400234632460F49183000F0B8F9AA680446DA
:10347400537B384643F004035373FFF723FEAB68D2
:10348400D3E90A23B3F1004F08BF002AD8D101F0D1
:103494005FFA201A20EAE070D3E700BFE0030020BF
:1034A400000400208148000038B50446EFF311857C
:1034B400202383F31288BFF36F8F437B5B070FD501
:1034C400183001F01DFA637B204623F00403637374
:1034D400FFF710FE2946BDE838400448FFF7EEBE6A
:1034E40085F31188BFF36F8F38BD00BF120400202D
:1034F400014B9868704700BFE00300202DE9F843B2
:103504000446077BEFF31185202383F31288BFF36E
:103514006F8F437B190705D585F31188BFF36F8F30
:10352400BDE8F883D90943F008025DD14273A3686A
:1035340013B1204601F044F904F1180001F0E0F958
:10354400A66D04F15808B04511D04FF0000976B1CA
:10355400304601F035F906F1180001F0D1F9304692
:10356400C6F87890FFF7C6FDA66DB045EFD1DFF839
:10357400C080D8F808309C423ED1EFF30589B9F1F8
:10358400000918BF4FF00109D8F81860294A96427B
:1035940000D00EB9D8F80C60B34202D0304600F027
:1035A4007BF82046C8F8146000F065FEB9F1000FFE
:1035B40002D02148FFF77AFDD8F808309C4231D177
:1035C400EFF3058373BB227BD20718D42846FFF799
:1035D40079FDFB07A4D5002383F31188BFF36F8F14
:1035E4000423184602DF9BE703F07F0343F008033C
:1035F400437301F0DDF89AE74FF00009C4E785F35F
:103604001188BFF36F8F83F31188BFF36F8F042387
:10361400184602DFEFF31180202383F31288BFF3EF
:103624006F8FD4E785F31188BFF36F8FD1E700BFA5
:10363400E0030020F8030020680100200122044B6D
:10364400C01A044BC0105843034B1A54704700BFB0
:10365400E8010020ABAAAAAA12040020C3897F2B88
:1036640012D80A4B1B6863B1094B90F90E201B68F2
:103674009A4209DB437BDB0606D1064BC31A18BF0B
:10368400012303F0010070470023FAE7340000200F
:10369400040400206800002070B50E4B0E4C1E7C04
:1036A400054606EB460304EBC304204601F028F963
:1036B40000220A4B28469A55FFF7D0FF48B1084B21
:1036C4002046BDE870401A680649013AD31700F055
:1036D40085B870BDE0030020E8010020120400203A
:1036E400340000204136000038B5EFF31185202363
:1036F40083F31288BFF36F8F104B114A9C681068D4
:10370400A04206D1FFF7C8FF85F31188BFF36F8F7E
:1037140038BD00211B7C11600A4AD35C002BF3D016
:103724002046FFF79BFF0028EED0637BDB0602D127
:103734002046FFF759FD2046E4E700BFE0030020E0
:103744000004002012040020074808B5074A08496D
:10375400121A01F01AF8BDE808400648064A07495B
:10376400121A01F012B800BF000000204800002027
:10377400B05300000000002000000020B0530000FF
:10378400024B1868984208BF002070473800002098
:10379400034B1B680BB9FEF743BC0020704700BF06
:1037A4000804002030B570B10B4B5B6898420AD016
:1037B400036843B1D3E90421D0E90445121941EB6C
:1037C4000501C3E90421D0E9003213605A600023E3
:1037D400C0E9003330BD00BF38000020B3F1FF3F23
:1037E40008BFB2F1FF3F2DE9F84F0446994615464C
:1037F4001F467AD08160EFF31188202383F3128867
:10380400BFF36F8FB9F1000FDFF8E4A020DBFFF7FF
:10381400BFFFDAE90027013549F100092D1849EB0A
:10382400E07306464FF00109C4E90453AD1843EBB5
:103834000707FFF7A5FF0346DFF8B8E0DEF804A0AA
:10384400EBB9C4E900EACAF80040CEF8044028E025
:103854006FF00103DAE900125B1A4FF0FF3161EBFC
:1038640002025B1B62EB0902012B72F10001BCBF77
:10387400012300224FF00009C0E90432D9E7D3E95B
:10388400041CD4E904208A4270EB0C0B24DA891A54
:103894005A686CEB0000C3E90410C4E900321460F8
:1038A4005C60FFF76DFF84420ED1134B1B685BB95C
:1038B400B9F1000F02D1FFF76BFF0646304601F065
:1038C40008F80021FEF77EFB88F31188BFF36F8FA1
:1038D40028463946BDE8F88F521A60EB0C009A4529
:1038E400C4E90420ADD01B68AAE700252F46EFE702
:1038F4000002002038000020080400202DE9F047D1
:10390400EFF31185202383F31288BFF36F8FDFF861
:10391400A0900026C9F800000027FFF731FFDFF868
:103924009480D9F80030D8E900ECD91750B1D0E927
:103934000442A34271EB020A1BDAE41A62EB0102AD
:10394400C0E90442002413EB0E034CEB01012046B2
:10395400C8E90031C9F8004000F0BBFF2146FEF77A
:1039640031FB85F31188BFF36F8FBDE8F047FFF794
:10397400BBBE14EB0E024CEBE473C0E90467C8E968
:103984000023FFF70FFF85F31188BFF36F8F836860
:103994009847EFF31185202383F31288BFF36F8FC9
:1039A400D9F800301B1BC9F80030FFF7E9FEB8E76F
:1039B400080400200002002010B5EFF31184202336
:1039C40083F31288BFF36F8FFFF7E2FE0346054AC5
:1039D400D2E90001181841EBE37184F31188BFF3B5
:1039E4006F8F10BD00020020014800F04CBB00BFE7
:1039F400665300000FB407B504AA064B52F8041B23
:103A04001868019200F008F803B05DF804EB04B004
:103A1400704700BFCC4D00002DE9F04F43688DB0D6
:103A240015468246029383789A0740F10781002461
:103A34000E78002E00F00481252E0BD04B1C03932E
:103A4400013451463046029B98470028C0F2F68064
:103A54000399EDE74E788B1C252E0393F0D00027B5
:103A6400B846BB46BBF11F0F38D8A6F12003102B74
:103A74000AD8DFE803F02A090930090909210909EC
:103A84000928092D09091F00A6F13003092B33D990
:103A94002A2E37D11BF0400F55F8043B40F08280AA
:103AA400002BA7BF4BF0200B9846C3F100084BF046
:103AB400280B01E04BF0010B039B13F8016B0393FC
:103AC400002ECFD130E04BF0020B4BF0040BF3E7A8
:103AD4004BF0080BF0E74BF0100BEDE7BBF17F0F59
:103AE40019D8A6F13003092BD2D81BF0400F03D00C
:103AF4000A2101FB0737DFE70A214BF0200B01FB0A
:103B04000838D9E72E2E06D11BF0400F40F09880DC
:103B14004BF0400BD0E76C2E31D02BD8682E36D02A
:103B24006A2E3CD04C2E3AD0002F46F02003B8BF6A
:103B34002BF04002A3F16501BCBF00271FFA82FBF2
:103B4400022901D9612B2FD107350727DFF8A0926D
:103B540025F0070508351BF0080F66D009EB070BA5
:103B64004E465E4563D1A4EB0909A8EB070806EBB2
:103B7400090269E1742E9FD07A2E9DD0D4E71BF000
:103B8400800F18BF4BF4007B4BF0800B94E71BF4C1
:103B9400807F18BF4BF4007B4BF4807B8CE74BF4A5
:103BA400207B89E71F4687E7A6F16301122900F20B
:103BB400EA80DFE811F013004900E800E800E800BB
:103BC400E8004900E800E800E800E800E800F80040
:103BD400E300E800E8001B00E800A90055F8043BF6
:103BE40001270DF118098DF81830B4E755F8049B36
:103BF400804BB9F1000F08BF99461BF0400F4846AF
:103C040014BF39464FF0FF3100F0BBFE0746A2E770
:103C140051462020029B984700280FDB013EB74203
:103C2400F6D34444B046A41B98E74646F7E751460A
:103C340016F8010B029B9847002892DA4FF0FF34E4
:103C440020460DB0BDE8F08F1BF0800F34D01BF47C
:103C5400007F2CD0073525F00705A946696859F877
:103C6400080B2BF010050029ADB237DA404245F4B9
:103C7400806561EB41010DF1180B0A235A4600F0EF
:103C84008CFEA0EB0B0301936B0662D5019B25F020
:103C940001019F4289B240F3A180002E00F0998077
:103CA40015F0100240F09C80BB460D4623E0A94667
:103CB40059F8040BC117D4E7A9461BF4807F59F8BF
:103CC400041B01D10846F5E71BF4007F19BF48B275
:103CD40041F3C01108B241F3C031C2E750EA010315
:103CE400C9D11BF0400FC6D0002FC4D12BF0110254
:103CF400BB46019795B240F2064115EA01021CBF8A
:103D04000BF1010B00222CE02BF010020A231FFA06
:103D140082FB1BF0800C49D01BF4007115BF0735E2
:103D2400A94625F0070559F8040B1EBFA946696882
:103D340059F8080B50EA010545D12BF016051BF084
:103D4400400FADB242D0002F40D12BF017020197A3
:103D540095B215F0100248D0019B002E42D103F118
:103D6400010B29075AD4EB0706D5D8456FDDA8EB1C
:103D74000B030199C3465F185B4649E04BF0100BF7
:103D840010237826C5E7782B04D1C6F1780343F0D5
:103D94001003BEE751462520029B98470028FFF6F2
:103DA4004DAF02344DE608230026B2E7A9461BF4C2
:103DB400807159F8040BBDD01BF400711ABFC0B256
:103DC400614680B2B6E72BF0060295B20DF1180BEE
:103DD40054E725F01105BB46ADB28CE70D46B8E7B4
:103DE4003B460D4603F1020BBBE7DDF804B082E766
:103DF400A8530000A1530000CDE90432514620200D
:103E0400029B98470028FFF619AF049B059A0133DB
:103E14009845F1DCA4EB0B019B46CC180AB3514640
:103E24003020029B98470028FFF608AF8EB9013472
:103E34002744391B019B8B4224DB1D4655BB019A49
:103E4400A8EB0B084D4622441446904433E0019FEE
:103E540092E7023451463046029B98470028E7DA3D
:103E6400ECE640F206410D42E2D015F0020F04F1F7
:103E74000104514614BF2B20202015F4806F18BF75
:103E84002D20E9E751463020029B01349847002851
:103E9400CFDAD3E606AB013D5146585D029B984705
:103EA4000028CBDACAE651462020029B0134984709
:103EB4000028FFF6C3AEA8EB0403002BF3DCC7E530
:103EC4007047836800EBC101B3F5004F2CBF51F874
:103ED400220031F81200704700EBC1018068B0F590
:103EE400004F2CBF41F8223021F8123070470122D4
:103EF40008B5FFF7E6FFD04008BD836800EBC101B9
:103F0400B3F5004F08D34B681AB143F001034B607B
:103F1400704723F00103FAE74B881AB143F0010319
:103F24004B80704723F00103FAE753000122FFF7A7
:103F3400D3BFB0F5004F34BF04230823481C083313
:103F4400A0EBD300B0FA80F0C0F11F0070472DE958
:103F5400F0410D4686680446FFF7C9FFB6F5004FE9
:103F6400014601D3012832D03046FFF7E2FF04EBCB
:103F740080010E6996B90122E36882401343E3602D
:103F840002220D612B4629462046FFF7A5FF032296
:103F940029462046BDE8F041FFF79EBF0222314684
:103FA4002046FFF78EFF0746034629462046FFF7C3
:103FB40093FF0322334629462046FFF78DFF3946F7
:103FC4002B462046FFF788FF02223146E1E7BDE891
:103FD400F081B2F5802F2CBF082304232DE9F04192
:103FE4000026D21A8C18CD1D25F0070524F00704ED
:103FF400641BE408056021462046AC60EE60FFF7D0
:1040040098FF421D9200013002F107074FEAD707DB
:104014003146A2F1100205F11000B8BF324600F09B
:10402400A8FC3A4631462846FFF77FFF334632461E
:1040340031462846FFF750FFA4EB070828463146CF
:104044000122FFF75AFF42463946FFF76EFF3B460F
:10405400324639462846FFF73FFF21462846FFF7F8
:1040640064FF4346324621462846FFF735FF214682
:1040740028460122FFF741FF3946BDE8F041FFF72A
:1040840066BF002070470FB407B504A951F8040BAC
:104094000191FCF7A3F803B05DF804EB04B070479A
:1040A400038B13F0070305D10368002B0CBF00201A
:1040B40003207047022B05D1408BB0FA80F04009F1
:1040C40080007047012B05D10368002B0CBF002032
:1040D400052070470020704710B50C4600B111B997
:1040E4006FF0150010BD081D00F093F80028F9D1F9
:1040F400A368032BF6D9F3E72DE9F0410D460746F3
:104104001946281D90461E4600F094F8044638B11E
:104114003346424629463846A446BDE8F041604746
:10412400BDE8F08110B4EFF31182202484F31288E7
:10413400BFF36F8F416110BC0121FCF781B838B522
:104144000C46054658B151B10B6843B14B6833B1C5
:104154001C22002100F00DFC00202C6138BD6FF002
:104164001500FBE770B505460E46FFF7B5FF041EC4
:1041740014DBEFF31182202383F31288BFF36F8FD4
:104184004FF6FF716B8B2C8B8B4204F0070407D125
:1041940082F31188BFF36F8F6FF00A04204670BD5D
:1041A400022C0CD101336B8382F31188BFF36F8F20
:1041B4000023224631462846FFF79EFFEEE7062CF1
:1041C40014D8DFE804F004131313041A04000023C2
:1041D40033606B683BB9C5E90066ACB90221284677
:1041E400FCF72EF8DAE71E606E60F6E782F31188BA
:1041F400BFF36F8F6FF00404D0E782F31188BFF32D
:104204006F8F6FF08504C9E782F31188BFF36F8F56
:10421400C4E7034658B1426802F00302012A03D0FE
:10422400032A04D1026812B10020986070476FF02D
:10423400150070474268034602F00302032A4FF058
:104244000002816014BF104600685A6070477047CE
:1042540001460068FCF708B908B5FCF735F9BDE874
:104264000840FCF755B900210120FCF7FDB8036EA6
:1042740083F30B8870476FF08500704761B662B6B0
:1042840080F31188BFF36F8F704708B572B60023AF
:1042940083F31188BFF36F8FFCF79CFE50B1BFF31B
:1042A4004F8F30BF00BF00BF00BF00BF00BF00BFC3
:1042B40000BF00BF62B6BFF36F8F08BD10B50446E0
:1042C40072B6002383F31188BFF36F8FFCF782FE6D
:1042D40050B1BFF34F8F20BF00BF00BF00BF00BF6E
:1042E40000BF00BF00BF00BF84F31188BFF36F8F0E
:1042F40062B610BD40E800F313F4803FD8B208BFA3
:104304006FF01500704730B50C684B6885B00A89AA
:104314004D890094013B24F01F04234402F01F0242
:1043240042EA451223F01F0369468DF808200393DF
:10433400FCF75CFC05B030BD08B5FCF717FE0020A7
:1043440008BD0B464FF050220121C2F8141600217B
:1043540018470C220369C9B201FB0233986F00F0BD
:104364000700704770B5C9B20369EFF311852024C3
:1043740084F31288BFF36F8F0C2606FB0134A46FFD
:1043840014F0C00408D0A24206D085F31188BFF30C
:104394006F8F4FF0FF3070BD012206FB01339A6727
:1043A40085F31188BFF36F8F436803EBC1035B6828
:1043B40098470020EFE78022FFF7D4BFF8B5069FA7
:1043C4000469C9B2EFF31186202585F31288BFF37F
:1043D4006F8F0C2505FB0144A56F05F0070CBCF19C
:1043E400010F0CD1A76786F31188BFF36F8FC4E95F
:1043F4001C23436853F8313098470020F8BD05F07A
:10440400C005AF4286F31188BFF36F8F0CBF6FF006
:1044140077004FF0FF30F1E713B580240094FFF7E5
:10442400CDFF02B010BD10B41C240069CBB203FB55
:104434000400002110BC10470320FDF7D9BF02205F
:10444400FDF7D6BF0020FDF7D3BF032000F0E7B887
:10445400022000F0E4B8002000F0E1B81046FEF7B6
:104464008DBD436800205B681B690B60704743681F
:1044740002EA01005B6821EA020198600020D96029
:104484007047436800205B68996070474368002068
:104494005B68D960704743685A68536821EA03002F
:1044A4000B4090600020D360704710B503695868D2
:1044B400F8B1884219D19C680868A142586000D1BB
:1044C4009860002008602AB15A680A609A685960A6
:1044D40002B99960002010E0814206D1086820608A
:1044E40098688142EDD19C60EBE70446006800289F
:1044F400F2D1002AE8D16FF0150010BD30B5436841
:104504001360057A446804EBC504A34202D36FF038
:10451400010030BD5C798C4201D00833F0E7002003
:10452400F7E743681B68D3F88004C3F88004704736
:1045340042681368D3F8100150B10020126A12784F
:104544000A70C3F81001D3F8102101221A607047D1
:104554004FF0FF30704702680346D2F8580140B963
:104564005B68DB0706D4D2F82001003818BF0120AD
:1045740070470120704743681B68D3F80423D205B1
:1045840017D5D3F82021A2B1EFF31182202181F3B2
:104594001288BFF36F8FD3F8201131B10021C3F813
:1045A4002011D3F820110121D96082F31188BFF3BF
:1045B4006F8FD3F85831704713B501AA0446FFF73B
:1045C4009DFF002805DB019B226819791868FDF717
:1045D40059F902B010BD002200F150039B009BB2B8
:1045E40003F1502303F580331A601B68704708B544
:1045F400FDF784FB08BD004700F093B840F000408D
:10460400C1F88000704740F00040C1F88000704756
:1046140040F00040C1F88000C2F880007047FDF708
:1046240045BEF7B51646DDE90847019001A81D46C9
:10463400FDF786FF019BB6F1000C18BF4FF0010C8B
:1046440000EB83000B1E18BF0123002D43EA4C032B
:1046540014BF4FF00C0C4FF0000C002C43EA0C0379
:1046640014BF4FF4706C4FF0000C002F43EA0C039E
:1046740014BF4FF4403C4FF0000CD0F8002243EA42
:104684000C0322EA030301B109780EB136787600EF
:1046940019430DB12D78AD0031430CB124782402B7
:1046A40029430FB13F783F040C433C43C0F8004218
:1046B40003B0F0BD1FB50DF10F03019300238DF876
:1046C4000F101A4619460093FFF7ABFF05B05DF8CB
:1046D40004FB38B5054608460C46FDF785FFB0B126
:1046E4000846FDF775FF90B90846FDF765FF0123FD
:1046F4002A688340C2F808332A6803B202EB8303B2
:10470400D3F8102522F00302C3F8102538BD204643
:10471400BDE838400021FFF7CDBFFDF7E9BFFFF743
:10472400D8BF08B1FCF7E6BC7047704740B1C36816
:10473400587810F001001EBF1878B0FA80F04009D4
:104744007047EFF31183202383F31288BFF36F8F35
:10475400FEE708B5FFF7F5FF10B54369044633B922
:104764000020E268537843F00103537010BD98476A
:104774000028F5D00028B8BF4042FF28A8BFFF207A
:10478400E3681870EDE700F0F4B800F0E5B8202411
:1047940008B5EFF3118384F31288BFF36F8FFFF72B
:1047A40074FDF6E7EFF30580003818BF0120704769
:1047B400D0E9003213605A600023C0E90033704727
:1047C40008B5FFF7F5FF437B23F00203437300238F
:1047D400836008BD38B504460D46FEF7CDFC637B07
:1047E40043F002036373E5B1A5602B689D4209D1D0
:1047F4006B68C4E900531C606C6012E06A689A42FA
:10480400F6D01B68002BF3D094F90E2093F90E1008
:104814008A42F3D09142F1DD5A68C4E9003214604F
:104824005C6038BD10B5EFF31184202383F3128844
:10483400BFF36F8FFEF75EFC84F31188BFF36F8FB5
:1048440010BD014610B5EFF31184202383F31288C1
:10485400BFF36F8F437B13F0280F0AD183680BB12A
:10486400FFF7AEFF4B7B084623F004034B73FEF7C0
:1048740041FC84F31188BFF36F8F10BD01211838F8
:10488400FFF7DFBF38B504460D46FEF7D1FDB5F19D
:10489400FF3F08BFB4F1FF3F0246204618D0002076
:1048A4004FF47A7447F6FF730146C2FB0431B3F543
:1048B400004F71F100020BD36FF400429A4243F6A9
:1048C400FF728A4132BF6FF00040D80B40EA41408A
:1048D40038BD08B50246FEF753FF70B1D0E9043184
:1048E4009B1A61EBE272B3F1004F72F1000104DA3A
:1048F400002AACBF1846002008BD6FF00040FBE75B
:10490400024638B5EFF31185202383F31288BFF3F1
:104914006F8F0368CBB1FEF733FF04461046FEF7F2
:1049240041FF00224FF000438442C0E9042306D132
:10493400FEF72EFFFFF7CDFF0021FDF743FB00201C
:1049440085F31188BFF36F8F38BD6FF01500F7E75B
:1049540008B5FFF731F808BD0A44431E914200D15F
:10496400704710B511F8014B914203F8014FF9D18A
:1049740010BD02440346934200D1704703F8011B63
:10498400F9E70246014410B58A42134603D01C7865
:104994000132002CF8D1181A10BDF0B5C3F1370755
:1049A400044603F01F031046FFB2082BE6B232D0D0
:1049B400102B3DD06508A40845EAC17544EA81740A
:1049C4008A082D1942EB5102290941EA02716D1836
:1049D40042EB1212290A41EA02616D1842EB1222DB
:1049E400290C41EA02416D1842EB1242AD1842F122
:1049F4000002EC0844EA4274D10804EB8402A6EBFA
:104A04004205EDB2092D0CD90134A5F10A0541F195
:104A14000001EDB212E0E40806F0070544EA41742F
:104A2400C908303554EA010200F8015BBDD1F0BD7C
:104A3400240906F00F0544EA01740909092D84BF0D
:104A4400ED19EDB2EDE70000014800687047000081
:044A54000802002034
:104A580000000000904A000000000000D04A00005A
:104A680000000000B04A000000000000F04A00000A
:104A7800D514000000000000691E000000000000BE
:084A8800990F0000000000007E
:104A900009530000E84D00005C4D0000400000207C
:104AA000740200200D120000000000000000000051
:104AB00014530000084E0000384D00004200002052
:104AC0001803002091160000000000000000000004
:104AD00020530000204E0000384D0000440000200C
:104AE00024030020911600000000000000000000D8
:104AF00035530000384E0000784D0000460000207D
:104B000030030020211B0000000000000000000016
:104B1000000000006B420000000000006B4200003B
:104B2000000000006B420000000000006B4200002B
:104B3000000000006B420000C5240000FB4500009F
:104B4000000000006B420000000000006B4200000B
:104B5000F04A00007B450000000000006B420000AE
:104B6000000000006B420000000000006B420000EB
:104B7000000000006B420000612B0000FB450000BC
:104B8000000000006B420000000000006B420000CB
:104B9000000000006B420000000000006B420000BB
:104BA000000000006B420000000000006B420000AB
:104BB000000000006B42000000000000F91E000031
:104BC000000000006B420000000000006B4200008B
:104BD000000000006B420000000000006B4200007B
:104BE000000000006B420000000000006B4200006B
:104BF000000000006B420000000000006B4200005B
:104C0000000000006B420000000000006B4200004A
:104C1000000000006B420000000000006B4200003A
:104C2000000000006B420000000000006B4200002A
:104C3000000000006B420000000000006B4200001A
:104C4000000000006B420000000000006B4200000A
:104C5000000000006B420000000000006B420000FA
:104C6000000000006B420000000000006B420000EA
:104C7000000000006B420000000000006B420000DA
:104C8000000000006B420000000000006B420000CA
:104C9000000000006B420000000000006B420000BA
:104CA000000000006B420000000000006B420000AA
:104CB000000000006B420000000000006B4200009A
:104CC000000000006B420000000000006B4200008A
:104CD000000000006B420000000000006B4200007A
:104CE000000000006B420000000000006B4200006A
:104CF000000000006B420000000000006B4200005A
:104D0000000000006B420000000000006B42000049
:104D1000000000006B420000000000006B42000039
:104D2000000000006B420000000000006B42000029
:084D3000000000006B420000CE
:104D3800D91600006744000073440000874400004F
:104D4800914400009B44000025150000AF4400007A
:044D58000000000057
:104D5C007D120000BB4300001D4400000000000059
:0C4D6C00574300000000000000000000A1
:0C4D7800354500006D1A000027450000C2
:104D90000338FDD87047000000000020000000002C
:104DA0000600010002000000AC4D00000000000001
:104DB000F652000006000000E0FF0F000000002097
:104DC000FE52000021000000E0FF06200400002049
:104DD0001D1100004743000000000000C911000041
:104DE000991100000000000031130000B112000012
:104DF000494400005B440000434400005544000067
:104E00003D4400004F440000FFFF00000028845094
:104E1000000000000100000000D000500000000071
:104E2000FFFFFFFF0025845000000000000000008D
:104E300000D0005000000000008000500100000081
:104E4000000000005C4E00000000D60100000000E1
:104E500000000000100400200F040020008000501B
:104E6000684E000001000000704E000002000000CB
:104E700025000000240000010800000003000000DD
:104E8000584A0000584A0000804A0000884A000042
:104E9000904A0000904A0000040100012401200112
:104EA00002000100000200014F4E004F4646004C38
:104EB00045442073746174653A2025730A0072308A
:104EC0002F61313A20203078253038782020723117
:104ED0002F61323A20203078253038782020723205
:104EE0002F61333A20203078253038780A00723329
:104EF0002F61343A202030782530387820723132D2
:104F00002F69703A2020307825303878207231347B
:104F10002F6C723A20203078253038780A002078BB
:104F20007073723A20203078253038780A00466154
:104F3000756C74696E6720696E73747275637469D9
:104F40006F6E206164647265737320287231352F2F
:104F50007063293A203078253038780A00556E6819
:104F6000616E646C6564204952516E3A2025640A72
:104F7000002A2A2A2A2A20555341474520464155CE
:104F80004C54202A2A2A2A2A0A00202044697669B9
:104F900073696F6E206279207A65726F0A00202033
:104FA000556E616C69676E6564206D656D6F7279B1
:104FB000206163636573730A002020537461636B1F
:104FC000206F766572666C6F772028636F6E7465EC
:104FD00078742061726561206E6F742076616C69EF
:104FE00064290A0020204E6F20636F70726F636522
:104FF00073736F7220696E737472756374696F6E08
:10500000730A002020496C6C6567616C206C6F61CD
:1050100064206F66204558435F52455455524E20D8
:10502000696E746F2050430A002020496C6C6567DC
:10503000616C20757365206F66207468652045502B
:1050400053520A002020417474656D707420746F8F
:10505000206578656375746520756E646566696E34
:10506000656420696E737472756374696F6E0A008B
:105070002A2A2A2A2A20425553204641554C542098
:105080002A2A2A2A2A0A002020537461636B696E37
:1050900067206572726F720A002020556E7374610A
:1050A000636B696E67206572726F720A0020205010
:1050B0007265636973652064617461206275732031
:1050C0006572726F720A002020424641522041648C
:1050D00064726573733A20307825780A002020497D
:1050E0006D707265636973652064617461206275B7
:1050F00073206572726F720A002020496E73747299
:10510000756374696F6E20627573206572726F7259
:105110000A002020466C6F6174696E672D706F699C
:105120006E74206C617A792073746174652070727A
:1051300065736572766174696F6E206572726F72E5
:105140000A002A2A2A2A2A204D5055204641554C29
:1051500054202A2A2A2A2A0A002020537461636BC9
:10516000696E67206572726F722028636F6E746556
:1051700078742061726561206D696768742062656A
:10518000206E6F742076616C6964290A00202044C7
:10519000617461204163636573732056696F6C614C
:1051A00074696F6E0A0020204D4D464152204164C3
:1051B00064726573733A20307825780A002020499C
:1051C0006E737472756374696F6E20416363657387
:1051D000732056696F6C6174696F6E0A0052657353
:1051E000657276656420457863657074696F6E20BA
:1051F000280053707572696F757320696E746572DB
:105200007275707420284952512000535053454CF8
:1052100020696E20746872656164206D6F6465201A
:10522000646F6573206E6F7420696E646963617466
:1052300065205053500A002A2A2A2A2A204841521F
:1052400044204641554C54202A2A2A2A2A0A002062
:1052500020427573206661756C74206F6E207665D0
:1052600063746F72207461626C6520726561640A98
:105270000020204465627567206576656E740A00BB
:1052800020204661756C7420657363616C6174697C
:105290006F6E20287365652062656C6F77290A0040
:1052A000415243485F4558434550542077697468DC
:1052B00020726561736F6E2025780A0A002A2A2AF7
:1052C0002A2A204465627567206D6F6E69746F725B
:1052D00020657863657074696F6E202A2A2A2A2AED
:1052E0000A002A2A2A2A2A20257320256429202A0E
:1052F0002A2A2A2A0A00464C4153485F300053525A
:10530000414D5F300000000001636C6F636B4035FE
:10531000303030006770696F4038343238303000D8
:105320006770696F40383432353030000001020355
:10533000040506070B756172744038303030000088
:1053400000000101010000010000000C04241C0009
:10535000203030303030303030303030303030008D
:10536000016D61696E002A2A2A20426F6F74696E8E
:1053700067205A6570687972204F53206275696C96
:10538000642076342E322E302D323230392D67663D
:105390006161353037656636633932202A2A2A0A38
:1053A00000286E756C6C29002A666C6F61742A0087
:1053B00087400000000000003D43000000000000A6
:1053C000000000000090D0030070015000000000B9
:1053D000FFFFFFFF3F000000FFFFFFFF3F00000057
:1053E000FF0000009002000038000020380000207C
:0853F0000000000000000000B5
:0453F80015E015E0C7
:0400000300000925CB
:00000001FF
